{"project/contracts/GuardianToken.sol":{"GuardianToken":{"abi":[{"inputs":[{"internalType":"string","name":"name_","type":"string"},{"internalType":"string","name":"symbol_","type":"string"},{"internalType":"uint256","name":"totalSupplyWhole","type":"uint256"},{"internalType":"uint256","name":"maxWalletPct","type":"uint256"},{"internalType":"uint256","name":"antiBotBlocks","type":"uint256"},{"internalType":"uint256","name":"buyTaxBps_","type":"uint256"},{"internalType":"uint256","name":"sellTaxBps_","type":"uint256"},{"internalType":"uint256","name":"cooldownSec","type":"uint256"},{"internalType":"address","name":"taxReceiver_","type":"address"}],"stateMutability":"nonpayable","type":"constructor"},{"inputs":[{"internalType":"address","name":"spender","type":"address"},{"internalType":"uint256","name":"allowance","type":"uint256"},{"internalType":"uint256","name":"needed","type":"uint256"}],"name":"ERC20InsufficientAllowance","type":"error"},{"inputs":[{"internalType":"address","name":"sender","type":"address"},{"internalType":"uint256","name":"balance","type":"uint256"},{"internalType":"uint256","name":"needed","type":"uint256"}],"name":"ERC20InsufficientBalance","type":"error"},{"inputs":[{"internalType":"address","name":"approver","type":"address"}],"name":"ERC20InvalidApprover","type":"error"},{"inputs":[{"internalType":"address","name":"receiver","type":"address"}],"name":"ERC20InvalidReceiver","type":"error"},{"inputs":[{"internalType":"address","name":"sender","type":"address"}],"name":"ERC20InvalidSender","type":"error"},{"inputs":[{"internalType":"address","name":"spender","type":"address"}],"name":"ERC20InvalidSpender","type":"error"},{"inputs":[{"internalType":"address","name":"owner","type":"address"}],"name":"OwnableInvalidOwner","type":"error"},{"inputs":[{"internalType":"address","name":"account","type":"address"}],"name":"OwnableUnauthorizedAccount","type":"error"},{"anonymous":false,"inputs":[{"indexed":true,"internalType":"address","name":"owner","type":"address"},{"indexed":true,"internalType":"address","name":"spender","type":"address"},{"indexed":false,"internalType":"uint256","name":"value","type":"uint256"}],"name":"Approval","type":"event"},{"anonymous":false,"inputs":[{"indexed":false,"internalType":"uint256","name":"newCooldown","type":"uint256"}],"name":"CooldownUpdated","type":"event"},{"anonymous":false,"inputs":[{"indexed":true,"internalType":"address","name":"account","type":"address"},{"indexed":false,"internalType":"bool","name":"excluded","type":"bool"}],"name":"ExclusionUpdated","type":"event"},{"anonymous":false,"inputs":[{"indexed":true,"internalType":"address","name":"previousOwner","type":"address"},{"indexed":true,"internalType":"address","name":"newOwner","type":"address"}],"name":"OwnershipTransferred","type":"event"},{"anonymous":false,"inputs":[{"indexed":false,"internalType":"uint256","name":"newBuyTax","type":"uint256"},{"indexed":false,"internalType":"uint256","name":"newSellTax","type":"uint256"}],"name":"TaxUpdated","type":"event"},{"anonymous":false,"inputs":[{"indexed":true,"internalType":"address","name":"from","type":"address"},{"indexed":true,"internalType":"address","name":"to","type":"address"},{"indexed":false,"internalType":"uint256","name":"value","type":"uint256"}],"name":"Transfer","type":"event"},{"inputs":[{"internalType":"address","name":"owner","type":"address"},{"internalType":"address","name":"spender","type":"address"}],"name":"allowance","outputs":[{"internalType":"uint256","name":"","type":"uint256"}],"stateMutability":"view","type":"function"},{"inputs":[],"name":"antiBotEndBlock","outputs":[{"internalType":"uint256","name":"","type":"uint256"}],"stateMutability":"view","type":"function"},{"inputs":[{"internalType":"address","name":"spender","type":"address"},{"internalType":"uint256","name":"value","type":"uint256"}],"name":"approve","outputs":[{"internalType":"bool","name":"","type":"bool"}],"stateMutability":"nonpayable","type":"function"},{"inputs":[{"internalType":"address","name":"account","type":"address"}],"name":"balanceOf","outputs":[{"internalType":"uint256","name":"","type":"uint256"}],"stateMutability":"view","type":"function"},{"inputs":[],"name":"buyTaxBps","outputs":[{"internalType":"uint256","name":"","type":"uint256"}],"stateMutability":"view","type":"function"},{"inputs":[],"name":"decimals","outputs":[{"internalType":"uint8","name":"","type":"uint8"}],"stateMutability":"view","type":"function"},{"inputs":[{"internalType":"address","name":"","type":"address"}],"name":"isExcludedFromLimits","outputs":[{"internalType":"bool","name":"","type":"bool"}],"stateMutability":"view","type":"function"},{"inputs":[{"internalType":"address","name":"","type":"address"}],"name":"lastSellTimestamp","outputs":[{"internalType":"uint256","name":"","type":"uint256"}],"stateMutability":"view","type":"function"},{"inputs":[],"name":"maxWalletAmount","outputs":[{"internalType":"uint256","name":"","type":"uint256"}],"stateMutability":"view","type":"function"},{"inputs":[],"name":"name","outputs":[{"internalType":"string","name":"","type":"string"}],"stateMutability":"view","type":"function"},{"inputs":[],"name":"owner","outputs":[{"internalType":"address","name":"","type":"address"}],"stateMutability":"view","type":"function"},{"inputs":[{"internalType":"uint256","name":"newCooldown","type":"uint256"}],"name":"reduceCooldown","outputs":[],"stateMutability":"nonpayable","type":"function"},{"inputs":[{"internalType":"uint256","name":"newBuyTax","type":"uint256"},{"internalType":"uint256","name":"newSellTax","type":"uint256"}],"name":"reduceTax","outputs":[],"stateMutability":"nonpayable","type":"function"},{"inputs":[],"name":"renounceOwnership","outputs":[],"stateMutability":"nonpayable","type":"function"},{"inputs":[],"name":"sellCooldownSeconds","outputs":[{"internalType":"uint256","name":"","type":"uint256"}],"stateMutability":"view","type":"function"},{"inputs":[],"name":"sellTaxBps","outputs":[{"internalType":"uint256","name":"","type":"uint256"}],"stateMutability":"view","type":"function"},{"inputs":[{"internalType":"address","name":"account","type":"address"},{"internalType":"bool","name":"excluded","type":"bool"}],"name":"setExcluded","outputs":[],"stateMutability":"nonpayable","type":"function"},{"inputs":[],"name":"symbol","outputs":[{"internalType":"string","name":"","type":"string"}],"stateMutability":"view","type":"function"},{"inputs":[],"name":"taxReceiver","outputs":[{"internalType":"address","name":"","type":"address"}],"stateMutability":"view","type":"function"},{"inputs":[],"name":"totalSupply","outputs":[{"internalType":"uint256","name":"","type":"uint256"}],"stateMutability":"view","type":"function"},{"inputs":[{"internalType":"address","name":"to","type":"address"},{"internalType":"uint256","name":"value","type":"uint256"}],"name":"transfer","outputs":[{"internalType":"bool","name":"","type":"bool"}],"stateMutability":"nonpayable","type":"function"},{"inputs":[{"internalType":"address","name":"from","type":"address"},{"internalType":"address","name":"to","type":"address"},{"internalType":"uint256","name":"value","type":"uint256"}],"name":"transferFrom","outputs":[{"internalType":"bool","name":"","type":"bool"}],"stateMutability":"nonpayable","type":"function"},{"inputs":[{"internalType":"address","name":"newOwner","type":"address"}],"name":"transferOwnership","outputs":[],"stateMutability":"nonpayable","type":"function"}],"evm":{"bytecode":{"linkReferences":{},"object":"604060c0815234620006765762001686803803806200001e816200067a565b928339810161012082820312620006765781516001600160401b0381116200067657816200004e918401620006a0565b602083015190916001600160401b038211620006765762000071918401620006a0565b90838301519260608101519260808201519360a08301519060c08401519261010060e08601519501519560018060a01b038716870362000676578051906001600160401b0382116200054e5760035490600182811c921680156200066b575b60208310146200052f5781601f849311620005fb575b50602090601f83116001146200056e575f9262000562575b50508160011b915f199060031b1c1916176003555b8051906001600160401b0382116200054e5760045490600182811c9216801562000543575b60208310146200052f5781601f849311620004bc575b50602090601f83116001146200042f575f9262000423575b50508160011b915f199060031b1c1916176004555b33156200040c5760058054336001600160a01b031980831682179093558a51929892916001600160a01b03167f8be0079c531659141344cd1fd0a4f28419497f9722a3daafe3b4186f6b6457e05f80a360018310158062000400575b15620003be57506103e88084116200038a57841162000355576001600160a01b038616156200031157670de0b6b3a764000080890298808a04821481151715620002fd57830202918883041488151715620002fd5760646200023e92046080524362000710565b60a05260085560095560065560018060a01b031690600a541617600a55335f52600b602052815f2060ff1990600182825416179055305f526001835f2091825416179055620002908160025462000710565b600255335f525f602052815f2081815401905581519081525f7fddf252ad1be2c89b69c2b068fc378daa952ba7f163c4a11628f55a4df523b3ef60203393a351610f6790816200071f823960805181818161040a0152610d45015260a0518181816105960152610bb50152f35b634e487b7160e01b5f52601160045260245ffd5b885162461bcd60e51b815260206004820152601460248201527f496e76616c6964207461782072656365697665720000000000000000000000006044820152606490fd5b885162461bcd60e51b815260206004820152600e60248201526d53656c6c20746178203e2031302560901b6044820152606490fd5b895162461bcd60e51b815260206004820152600d60248201526c42757920746178203e2031302560981b6044820152606490fd5b62461bcd60e51b815260206004820152601460248201527f496e76616c6964206d61782077616c6c657420250000000000000000000000006044820152606490fd5b506064831115620001d7565b8751631e4fbdf760e01b81525f6004820152602490fd5b015190505f8062000166565b60045f90815293507f8a35acfbc15ff81a39ae7d344fd709f28e8600b4aa8c65c6b64bfe7fe36bd19b91905b601f1984168510620004a0576001945083601f1981161062000487575b505050811b016004556200017b565b01515f1960f88460031b161c191690555f808062000478565b818101518355602094850194600190930192909101906200045b565b60045f529091507f8a35acfbc15ff81a39ae7d344fd709f28e8600b4aa8c65c6b64bfe7fe36bd19b601f840160051c8101916020851062000524575b90601f859493920160051c01905b8181106200051557506200014e565b5f815584935060010162000506565b9091508190620004f8565b634e487b7160e01b5f52602260045260245ffd5b91607f169162000138565b634e487b7160e01b5f52604160045260245ffd5b015190505f80620000fe565b60035f90815293507fc2575a0e9e593c00f959f8c92f12db2869c3395a3b0502d05e2516446f71f85b91905b601f1984168510620005df576001945083601f19811610620005c6575b505050811b0160035562000113565b01515f1960f88460031b161c191690555f8080620005b7565b818101518355602094850194600190930192909101906200059a565b60035f529091507fc2575a0e9e593c00f959f8c92f12db2869c3395a3b0502d05e2516446f71f85b601f840160051c81016020851062000663575b90849392915b601f830160051c8201811062000654575050620000e6565b5f81558594506001016200063c565b508062000636565b91607f1691620000d0565b5f80fd5b6040519190601f01601f191682016001600160401b038111838210176200054e57604052565b919080601f84011215620006765782516001600160401b0381116200054e57602090620006d6601f8201601f191683016200067a565b9281845282828701011162000676575f5b818110620006fc5750825f9394955001015290565b8581018301518482018401528201620006e7565b91908201809211620002fd5756fe60806040818152600480361015610014575f80fd5b5f92833560e01c90816306fdde031461096657508063095ea7b3146108bd5780630eff64271461089e57806318160ddd1461087f57806323b872dd1461078d5780632836be241461070b578063313ce567146106ef57806333cbeaa0146106b75780635cce86cd1461067957806370a0823114610642578063715018a6146105e25780638da5cb5b146105b957806391a83fea1461057e57806395d89b411461045e578063a9059cbb1461042d578063aa4bde28146103f2578063b9a410ff146102ff578063c473413a146102e0578063cffd129c146102c1578063dd62ed3e14610278578063e6ef73d61461024b578063e8891de8146101af5763f2fde38b1461011d575f80fd5b346101ab5760203660031901126101ab57610136610aa2565b9061013f610ad2565b6001600160a01b03918216928315610195575050600554826bffffffffffffffffffffffff60a01b821617600555167f8be0079c531659141344cd1fd0a4f28419497f9722a3daafe3b4186f6b6457e08380a380f35b51631e4fbdf760e01b8152908101849052602490fd5b8280fd5b5090346101ab5760203660031901126101ab578135916101cd610ad2565b6006548310156102095750816020917f583d8b24c5439ab7d810e51e37e8db41ba66f1168fd7b752ceae0c7681c5272c9360065551908152a180f35b6020606492519162461bcd60e51b8352820152601860248201527f43616e6e6f7420696e63726561736520636f6f6c646f776e00000000000000006044820152fd5b505034610274578160031936011261027457600a5490516001600160a01b039091168152602090f35b5080fd5b50503461027457806003193601126102745780602092610296610aa2565b61029e610abc565b6001600160a01b0391821683526001865283832091168252845220549051908152f35b5050346102745781600319360112610274576020906009549051908152f35b5050346102745781600319360112610274576020906008549051908152f35b50919034610274578060031936011261027457823560243593610320610ad2565b60085482116103af57600954851161036c57507fb841faf0d1b32571f4ef966a2f35e3ae51f3cdda45318c3da5570a5b2ad856059293816008558060095582519182526020820152a180f35b606490602084519162461bcd60e51b8352820152601860248201527f43616e6e6f7420696e6372656173652073656c6c2074617800000000000000006044820152fd5b606490602084519162461bcd60e51b8352820152601760248201527f43616e6e6f7420696e63726561736520627579207461780000000000000000006044820152fd5b505034610274578160031936011261027457602090517f00000000000000000000000000000000000000000000000000000000000000008152f35b50503461027457806003193601126102745760209061045761044d610aa2565b6024359033610afe565b5160018152f35b50919034610274578160031936011261027457805190828454600181811c90808316928315610574575b60209384841081146105615783885290811561054557506001146104f0575b505050829003601f01601f191682019267ffffffffffffffff8411838510176104dd57508291826104d9925282610a5b565b0390f35b634e487b7160e01b815260418552602490fd5b8787529192508591837f8a35acfbc15ff81a39ae7d344fd709f28e8600b4aa8c65c6b64bfe7fe36bd19b5b83851061053157505050508301015f80806104a7565b80548886018301529301928490820161051b565b60ff1916878501525050151560051b84010190505f80806104a7565b634e487b7160e01b895260228a52602489fd5b91607f1691610488565b505034610274578160031936011261027457602090517f00000000000000000000000000000000000000000000000000000000000000008152f35b50503461027457816003193601126102745760055490516001600160a01b039091168152602090f35b833461063f578060031936011261063f576105fb610ad2565b600580546001600160a01b0319811690915581906001600160a01b03167f8be0079c531659141344cd1fd0a4f28419497f9722a3daafe3b4186f6b6457e08280a380f35b80fd5b5050346102745760203660031901126102745760209181906001600160a01b0361066a610aa2565b16815280845220549051908152f35b5050346102745760203660031901126102745760209160ff9082906001600160a01b036106a4610aa2565b168152600b855220541690519015158152f35b5050346102745760203660031901126102745760209181906001600160a01b036106df610aa2565b1681526007845220549051908152f35b5050346102745781600319360112610274576020905160128152f35b505034610274578060031936011261027457610725610aa2565b60243590811515809203610789577f83f2b279b6151af5a15cdbe8471d34fe8b34aed9bd9514ffeadb57c9ea366e6191602091610760610ad2565b6001600160a01b0316808652600b8352848620805460ff191660ff84161790559351908152a280f35b8380fd5b50823461063f57606036600319011261063f576107a8610aa2565b6107b0610abc565b916044359360018060a01b038316808352600160205286832033845260205286832054915f1983106107eb575b602088610457898989610afe565b86831061085357811561083c57331561082557508252600160209081528683203384528152918690209085900390558290610457876107dd565b8751634a1406b160e11b8152908101849052602490fd5b875163e602df0560e01b8152908101849052602490fd5b8751637dc7a0d960e11b8152339181019182526020820193909352604081018790528291506060010390fd5b5050346102745781600319360112610274576020906002549051908152f35b5050346102745781600319360112610274576020906006549051908152f35b50346101ab57816003193601126101ab576108d6610aa2565b60243590331561094f576001600160a01b031691821561093857508083602095338152600187528181208582528752205582519081527f8c5be1e5ebec7d5bd14f71427d1e84f3dd0314c0f7b2291e5b200ac8c7c3b925843392a35160018152f35b8351634a1406b160e11b8152908101859052602490fd5b835163e602df0560e01b8152808401869052602490fd5b84915083346101ab57826003193601126101ab5782600354600181811c90808316928315610a51575b602093848410811461056157838852908115610a3557506001146109df57505050829003601f01601f191682019267ffffffffffffffff8411838510176104dd57508291826104d9925282610a5b565b600387529192508591837fc2575a0e9e593c00f959f8c92f12db2869c3395a3b0502d05e2516446f71f85b5b838510610a2157505050508301018580806104a7565b805488860183015293019284908201610a0b565b60ff1916878501525050151560051b84010190508580806104a7565b91607f169161098f565b602080825282518183018190529093925f5b828110610a8e57505060409293505f838284010152601f8019910116010190565b818101860151848201604001528501610a6d565b600435906001600160a01b0382168203610ab857565b5f80fd5b602435906001600160a01b0382168203610ab857565b6005546001600160a01b03163303610ae657565b60405163118cdaa760e01b8152336004820152602490fd5b91906001600160a01b0380841615610b3a57811615610b2257610b2092610b73565b565b60405163ec442f0560e01b81525f6004820152602490fd5b604051634b637e8f60e11b81525f6004820152602490fd5b91908201809211610b5f57565b634e487b7160e01b5f52601160045260245ffd5b6001600160a01b039392919084811680158015610e2e575b610e22575f95818752602091600b8352604060ff818a2054169383871694858b5260ff838c2054167f000000000000000000000000000000000000000000000000000000000000000043111580610e1a575b80610e12575b610dbc57159586610d31575b5015928380610d26575b610ca7575b505050879281610c9f575b50610c59575b8115610c4c5781610c2491600a541684610e38565b8303928311610c3857610b20939450610e38565b634e487b7160e01b85526011600452602485fd5b5050610b20939450610e38565b905060095460085480610c97575b50808502908582041485151715610c8357612710900490610c0f565b634e487b7160e01b87526011600452602487fd5b90505f610c67565b90505f610c09565b808b5260078252610cbe838c205460065490610b52565b4210610cd7578a526007905288204290555f8080610bfe565b50608491519062461bcd60e51b82526004820152602360248201527f477561726469616e546f6b656e3a2073656c6c20636f6f6c646f776e2061637460448201526269766560e81b6064820152fd5b506006541515610bf9565b8b528a8252610d4389848d2054610b52565b7f000000000000000000000000000000000000000000000000000000000000000010610d6f575f610bef565b50608491519062461bcd60e51b82526004820152602160248201527f477561726469616e546f6b656e3a2065786365656473206d61782077616c6c656044820152601d60fa1b6064820152fd5b835162461bcd60e51b815260048101849052602960248201527f477561726469616e546f6b656e3a20616e74692d626f742070726f74656374696044820152686f6e2061637469766560b81b6064820152608490fd5b508015610be3565b508115610bdd565b50610b20939450610e38565b5085831615610b8b565b6001600160a01b0380821692909183610eaf57507fddf252ad1be2c89b69c2b068fc378daa952ba7f163c4a11628f55a4df523b3ef91602091610e7d86600254610b52565b6002555b169384610e9a5780600254036002555b604051908152a3565b845f525f825260405f20818154019055610e91565b5f9084825281602052604082205490868210610eff57509181604087602095887fddf252ad1be2c89b69c2b068fc378daa952ba7f163c4a11628f55a4df523b3ef98965283875203912055610e81565b60405163391434e360e21b81526001600160a01b03919091166004820152602481019190915260448101869052606490fdfea2646970667358221220d7cb02b54fd61eae2a00818ba84b2b0ed94df10d8f0d5e3ddf7d6a90b9e591e864736f6c63430008140033","opcodes":"PUSH1 0x40 PUSH1 0xC0 DUP2 MSTORE CALLVALUE PUSH3 0x676 JUMPI PUSH3 0x1686 DUP1 CODESIZE SUB DUP1 PUSH3 0x1E DUP2 PUSH3 0x67A JUMP JUMPDEST SWAP3 DUP4 CODECOPY DUP2 ADD PUSH2 0x120 DUP3 DUP3 SUB SLT PUSH3 0x676 JUMPI DUP2 MLOAD PUSH1 0x1 PUSH1 0x1 PUSH1 0x40 SHL SUB DUP2 GT PUSH3 0x676 JUMPI DUP2 PUSH3 0x4E SWAP2 DUP5 ADD PUSH3 0x6A0 JUMP JUMPDEST PUSH1 0x20 DUP4 ADD MLOAD SWAP1 SWAP2 PUSH1 0x1 PUSH1 0x1 PUSH1 0x40 SHL SUB DUP3 GT PUSH3 0x676 JUMPI PUSH3 0x71 SWAP2 DUP5 ADD PUSH3 0x6A0 JUMP JUMPDEST SWAP1 DUP4 DUP4 ADD MLOAD SWAP3 PUSH1 0x60 DUP2 ADD MLOAD SWAP3 PUSH1 0x80 DUP3 ADD MLOAD SWAP4 PUSH1 0xA0 DUP4 ADD MLOAD SWAP1 PUSH1 0xC0 DUP5 ADD MLOAD SWAP3 PUSH2 0x100 PUSH1 0xE0 DUP7 ADD MLOAD SWAP6 ADD MLOAD SWAP6 PUSH1 0x1 DUP1 PUSH1 0xA0 SHL SUB DUP8 AND DUP8 SUB PUSH3 0x676 JUMPI DUP1 MLOAD SWAP1 PUSH1 0x1 PUSH1 0x1 PUSH1 0x40 SHL SUB DUP3 GT PUSH3 0x54E JUMPI PUSH1 0x3 SLOAD SWAP1 PUSH1 0x1 DUP3 DUP2 SHR SWAP3 AND DUP1 ISZERO PUSH3 0x66B JUMPI JUMPDEST PUSH1 0x20 DUP4 LT EQ PUSH3 0x52F JUMPI DUP2 PUSH1 0x1F DUP5 SWAP4 GT PUSH3 0x5FB JUMPI JUMPDEST POP PUSH1 0x20 SWAP1 PUSH1 0x1F DUP4 GT PUSH1 0x1 EQ PUSH3 0x56E JUMPI PUSH0 SWAP3 PUSH3 0x562 JUMPI JUMPDEST POP POP DUP2 PUSH1 0x1 SHL SWAP2 PUSH0 NOT SWAP1 PUSH1 0x3 SHL SHR NOT AND OR PUSH1 0x3 SSTORE JUMPDEST DUP1 MLOAD SWAP1 PUSH1 0x1 PUSH1 0x1 PUSH1 0x40 SHL SUB DUP3 GT PUSH3 0x54E JUMPI PUSH1 0x4 SLOAD SWAP1 PUSH1 0x1 DUP3 DUP2 SHR SWAP3 AND DUP1 ISZERO PUSH3 0x543 JUMPI JUMPDEST PUSH1 0x20 DUP4 LT EQ PUSH3 0x52F JUMPI DUP2 PUSH1 0x1F DUP5 SWAP4 GT PUSH3 0x4BC JUMPI JUMPDEST POP PUSH1 0x20 SWAP1 PUSH1 0x1F DUP4 GT PUSH1 0x1 EQ PUSH3 0x42F JUMPI PUSH0 SWAP3 PUSH3 0x423 JUMPI JUMPDEST POP POP DUP2 PUSH1 0x1 SHL SWAP2 PUSH0 NOT SWAP1 PUSH1 0x3 SHL SHR NOT AND OR PUSH1 0x4 SSTORE JUMPDEST CALLER ISZERO PUSH3 0x40C JUMPI PUSH1 0x5 DUP1 SLOAD CALLER PUSH1 0x1 PUSH1 0x1 PUSH1 0xA0 SHL SUB NOT DUP1 DUP4 AND DUP3 OR SWAP1 SWAP4 SSTORE DUP11 MLOAD SWAP3 SWAP9 SWAP3 SWAP2 PUSH1 0x1 PUSH1 0x1 PUSH1 0xA0 SHL SUB AND PUSH32 0x8BE0079C531659141344CD1FD0A4F28419497F9722A3DAAFE3B4186F6B6457E0 PUSH0 DUP1 LOG3 PUSH1 0x1 DUP4 LT ISZERO DUP1 PUSH3 0x400 JUMPI JUMPDEST ISZERO PUSH3 0x3BE JUMPI POP PUSH2 0x3E8 DUP1 DUP5 GT PUSH3 0x38A JUMPI DUP5 GT PUSH3 0x355 JUMPI PUSH1 0x1 PUSH1 0x1 PUSH1 0xA0 SHL SUB DUP7 AND ISZERO PUSH3 0x311 JUMPI PUSH8 0xDE0B6B3A7640000 DUP1 DUP10 MUL SWAP9 DUP1 DUP11 DIV DUP3 EQ DUP2 ISZERO OR ISZERO PUSH3 0x2FD JUMPI DUP4 MUL MUL SWAP2 DUP9 DUP4 DIV EQ DUP9 ISZERO OR ISZERO PUSH3 0x2FD JUMPI PUSH1 0x64 PUSH3 0x23E SWAP3 DIV PUSH1 0x80 MSTORE NUMBER PUSH3 0x710 JUMP JUMPDEST PUSH1 0xA0 MSTORE PUSH1 0x8 SSTORE PUSH1 0x9 SSTORE PUSH1 0x6 SSTORE PUSH1 0x1 DUP1 PUSH1 0xA0 SHL SUB AND SWAP1 PUSH1 0xA SLOAD AND OR PUSH1 0xA SSTORE CALLER PUSH0 MSTORE PUSH1 0xB PUSH1 0x20 MSTORE DUP2 PUSH0 KECCAK256 PUSH1 0xFF NOT SWAP1 PUSH1 0x1 DUP3 DUP3 SLOAD AND OR SWAP1 SSTORE ADDRESS PUSH0 MSTORE PUSH1 0x1 DUP4 PUSH0 KECCAK256 SWAP2 DUP3 SLOAD AND OR SWAP1 SSTORE PUSH3 0x290 DUP2 PUSH1 0x2 SLOAD PUSH3 0x710 JUMP JUMPDEST PUSH1 0x2 SSTORE CALLER PUSH0 MSTORE PUSH0 PUSH1 0x20 MSTORE DUP2 PUSH0 KECCAK256 DUP2 DUP2 SLOAD ADD SWAP1 SSTORE DUP2 MLOAD SWAP1 DUP2 MSTORE PUSH0 PUSH32 0xDDF252AD1BE2C89B69C2B068FC378DAA952BA7F163C4A11628F55A4DF523B3EF PUSH1 0x20 CALLER SWAP4 LOG3 MLOAD PUSH2 0xF67 SWAP1 DUP2 PUSH3 0x71F DUP3 CODECOPY PUSH1 0x80 MLOAD DUP2 DUP2 DUP2 PUSH2 0x40A ADD MSTORE PUSH2 0xD45 ADD MSTORE PUSH1 0xA0 MLOAD DUP2 DUP2 DUP2 PUSH2 0x596 ADD MSTORE PUSH2 0xBB5 ADD MSTORE RETURN JUMPDEST PUSH4 0x4E487B71 PUSH1 0xE0 SHL PUSH0 MSTORE PUSH1 0x11 PUSH1 0x4 MSTORE PUSH1 0x24 PUSH0 REVERT JUMPDEST DUP9 MLOAD PUSH3 0x461BCD PUSH1 0xE5 SHL DUP2 MSTORE PUSH1 0x20 PUSH1 0x4 DUP3 ADD MSTORE PUSH1 0x14 PUSH1 0x24 DUP3 ADD MSTORE PUSH32 0x496E76616C696420746178207265636569766572000000000000000000000000 PUSH1 0x44 DUP3 ADD MSTORE PUSH1 0x64 SWAP1 REVERT JUMPDEST DUP9 MLOAD PUSH3 0x461BCD PUSH1 0xE5 SHL DUP2 MSTORE PUSH1 0x20 PUSH1 0x4 DUP3 ADD MSTORE PUSH1 0xE PUSH1 0x24 DUP3 ADD MSTORE PUSH14 0x53656C6C20746178203E20313025 PUSH1 0x90 SHL PUSH1 0x44 DUP3 ADD MSTORE PUSH1 0x64 SWAP1 REVERT JUMPDEST DUP10 MLOAD PUSH3 0x461BCD PUSH1 0xE5 SHL DUP2 MSTORE PUSH1 0x20 PUSH1 0x4 DUP3 ADD MSTORE PUSH1 0xD PUSH1 0x24 DUP3 ADD MSTORE PUSH13 0x42757920746178203E20313025 PUSH1 0x98 SHL PUSH1 0x44 DUP3 ADD MSTORE PUSH1 0x64 SWAP1 REVERT JUMPDEST PUSH3 0x461BCD PUSH1 0xE5 SHL DUP2 MSTORE PUSH1 0x20 PUSH1 0x4 DUP3 ADD MSTORE PUSH1 0x14 PUSH1 0x24 DUP3 ADD MSTORE PUSH32 0x496E76616C6964206D61782077616C6C65742025000000000000000000000000 PUSH1 0x44 DUP3 ADD MSTORE PUSH1 0x64 SWAP1 REVERT JUMPDEST POP PUSH1 0x64 DUP4 GT ISZERO PUSH3 0x1D7 JUMP JUMPDEST DUP8 MLOAD PUSH4 0x1E4FBDF7 PUSH1 0xE0 SHL DUP2 MSTORE PUSH0 PUSH1 0x4 DUP3 ADD MSTORE PUSH1 0x24 SWAP1 REVERT JUMPDEST ADD MLOAD SWAP1 POP PUSH0 DUP1 PUSH3 0x166 JUMP JUMPDEST PUSH1 0x4 PUSH0 SWAP1 DUP2 MSTORE SWAP4 POP PUSH32 0x8A35ACFBC15FF81A39AE7D344FD709F28E8600B4AA8C65C6B64BFE7FE36BD19B SWAP2 SWAP1 JUMPDEST PUSH1 0x1F NOT DUP5 AND DUP6 LT PUSH3 0x4A0 JUMPI PUSH1 0x1 SWAP5 POP DUP4 PUSH1 0x1F NOT DUP2 AND LT PUSH3 0x487 JUMPI JUMPDEST POP POP POP DUP2 SHL ADD PUSH1 0x4 SSTORE PUSH3 0x17B JUMP JUMPDEST ADD MLOAD PUSH0 NOT PUSH1 0xF8 DUP5 PUSH1 0x3 SHL AND SHR NOT AND SWAP1 SSTORE PUSH0 DUP1 DUP1 PUSH3 0x478 JUMP JUMPDEST DUP2 DUP2 ADD MLOAD DUP4 SSTORE PUSH1 0x20 SWAP5 DUP6 ADD SWAP5 PUSH1 0x1 SWAP1 SWAP4 ADD SWAP3 SWAP1 SWAP2 ADD SWAP1 PUSH3 0x45B JUMP JUMPDEST PUSH1 0x4 PUSH0 MSTORE SWAP1 SWAP2 POP PUSH32 0x8A35ACFBC15FF81A39AE7D344FD709F28E8600B4AA8C65C6B64BFE7FE36BD19B PUSH1 0x1F DUP5 ADD PUSH1 0x5 SHR DUP2 ADD SWAP2 PUSH1 0x20 DUP6 LT PUSH3 0x524 JUMPI JUMPDEST SWAP1 PUSH1 0x1F DUP6 SWAP5 SWAP4 SWAP3 ADD PUSH1 0x5 SHR ADD SWAP1 JUMPDEST DUP2 DUP2 LT PUSH3 0x515 JUMPI POP PUSH3 0x14E JUMP JUMPDEST PUSH0 DUP2 SSTORE DUP5 SWAP4 POP PUSH1 0x1 ADD PUSH3 0x506 JUMP JUMPDEST SWAP1 SWAP2 POP DUP2 SWAP1 PUSH3 0x4F8 JUMP JUMPDEST PUSH4 0x4E487B71 PUSH1 0xE0 SHL PUSH0 MSTORE PUSH1 0x22 PUSH1 0x4 MSTORE PUSH1 0x24 PUSH0 REVERT JUMPDEST SWAP2 PUSH1 0x7F AND SWAP2 PUSH3 0x138 JUMP JUMPDEST PUSH4 0x4E487B71 PUSH1 0xE0 SHL PUSH0 MSTORE PUSH1 0x41 PUSH1 0x4 MSTORE PUSH1 0x24 PUSH0 REVERT JUMPDEST ADD MLOAD SWAP1 POP PUSH0 DUP1 PUSH3 0xFE JUMP JUMPDEST PUSH1 0x3 PUSH0 SWAP1 DUP2 MSTORE SWAP4 POP PUSH32 0xC2575A0E9E593C00F959F8C92F12DB2869C3395A3B0502D05E2516446F71F85B SWAP2 SWAP1 JUMPDEST PUSH1 0x1F NOT DUP5 AND DUP6 LT PUSH3 0x5DF JUMPI PUSH1 0x1 SWAP5 POP DUP4 PUSH1 0x1F NOT DUP2 AND LT PUSH3 0x5C6 JUMPI JUMPDEST POP POP POP DUP2 SHL ADD PUSH1 0x3 SSTORE PUSH3 0x113 JUMP JUMPDEST ADD MLOAD PUSH0 NOT PUSH1 0xF8 DUP5 PUSH1 0x3 SHL AND SHR NOT AND SWAP1 SSTORE PUSH0 DUP1 DUP1 PUSH3 0x5B7 JUMP JUMPDEST DUP2 DUP2 ADD MLOAD DUP4 SSTORE PUSH1 0x20 SWAP5 DUP6 ADD SWAP5 PUSH1 0x1 SWAP1 SWAP4 ADD SWAP3 SWAP1 SWAP2 ADD SWAP1 PUSH3 0x59A JUMP JUMPDEST PUSH1 0x3 PUSH0 MSTORE SWAP1 SWAP2 POP PUSH32 0xC2575A0E9E593C00F959F8C92F12DB2869C3395A3B0502D05E2516446F71F85B PUSH1 0x1F DUP5 ADD PUSH1 0x5 SHR DUP2 ADD PUSH1 0x20 DUP6 LT PUSH3 0x663 JUMPI JUMPDEST SWAP1 DUP5 SWAP4 SWAP3 SWAP2 JUMPDEST PUSH1 0x1F DUP4 ADD PUSH1 0x5 SHR DUP3 ADD DUP2 LT PUSH3 0x654 JUMPI POP POP PUSH3 0xE6 JUMP JUMPDEST PUSH0 DUP2 SSTORE DUP6 SWAP5 POP PUSH1 0x1 ADD PUSH3 0x63C JUMP JUMPDEST POP DUP1 PUSH3 0x636 JUMP JUMPDEST SWAP2 PUSH1 0x7F AND SWAP2 PUSH3 0xD0 JUMP JUMPDEST PUSH0 DUP1 REVERT JUMPDEST PUSH1 0x40 MLOAD SWAP2 SWAP1 PUSH1 0x1F ADD PUSH1 0x1F NOT AND DUP3 ADD PUSH1 0x1 PUSH1 0x1 PUSH1 0x40 SHL SUB DUP2 GT DUP4 DUP3 LT OR PUSH3 0x54E JUMPI PUSH1 0x40 MSTORE JUMP JUMPDEST SWAP2 SWAP1 DUP1 PUSH1 0x1F DUP5 ADD SLT ISZERO PUSH3 0x676 JUMPI DUP3 MLOAD PUSH1 0x1 PUSH1 0x1 PUSH1 0x40 SHL SUB DUP2 GT PUSH3 0x54E JUMPI PUSH1 0x20 SWAP1 PUSH3 0x6D6 PUSH1 0x1F DUP3 ADD PUSH1 0x1F NOT AND DUP4 ADD PUSH3 0x67A JUMP JUMPDEST SWAP3 DUP2 DUP5 MSTORE DUP3 DUP3 DUP8 ADD ADD GT PUSH3 0x676 JUMPI PUSH0 JUMPDEST DUP2 DUP2 LT PUSH3 0x6FC JUMPI POP DUP3 PUSH0 SWAP4 SWAP5 SWAP6 POP ADD ADD MSTORE SWAP1 JUMP JUMPDEST DUP6 DUP2 ADD DUP4 ADD MLOAD DUP5 DUP3 ADD DUP5 ADD MSTORE DUP3 ADD PUSH3 0x6E7 JUMP JUMPDEST SWAP2 SWAP1 DUP3 ADD DUP1 SWAP3 GT PUSH3 0x2FD JUMPI JUMP INVALID PUSH1 0x80 PUSH1 0x40 DUP2 DUP2 MSTORE PUSH1 0x4 DUP1 CALLDATASIZE LT ISZERO PUSH2 0x14 JUMPI PUSH0 DUP1 REVERT JUMPDEST PUSH0 SWAP3 DUP4 CALLDATALOAD PUSH1 0xE0 SHR SWAP1 DUP2 PUSH4 0x6FDDE03 EQ PUSH2 0x966 JUMPI POP DUP1 PUSH4 0x95EA7B3 EQ PUSH2 0x8BD JUMPI DUP1 PUSH4 0xEFF6427 EQ PUSH2 0x89E JUMPI DUP1 PUSH4 0x18160DDD EQ PUSH2 0x87F JUMPI DUP1 PUSH4 0x23B872DD EQ PUSH2 0x78D JUMPI DUP1 PUSH4 0x2836BE24 EQ PUSH2 0x70B JUMPI DUP1 PUSH4 0x313CE567 EQ PUSH2 0x6EF JUMPI DUP1 PUSH4 0x33CBEAA0 EQ PUSH2 0x6B7 JUMPI DUP1 PUSH4 0x5CCE86CD EQ PUSH2 0x679 JUMPI DUP1 PUSH4 0x70A08231 EQ PUSH2 0x642 JUMPI DUP1 PUSH4 0x715018A6 EQ PUSH2 0x5E2 JUMPI DUP1 PUSH4 0x8DA5CB5B EQ PUSH2 0x5B9 JUMPI DUP1 PUSH4 0x91A83FEA EQ PUSH2 0x57E JUMPI DUP1 PUSH4 0x95D89B41 EQ PUSH2 0x45E JUMPI DUP1 PUSH4 0xA9059CBB EQ PUSH2 0x42D JUMPI DUP1 PUSH4 0xAA4BDE28 EQ PUSH2 0x3F2 JUMPI DUP1 PUSH4 0xB9A410FF EQ PUSH2 0x2FF JUMPI DUP1 PUSH4 0xC473413A EQ PUSH2 0x2E0 JUMPI DUP1 PUSH4 0xCFFD129C EQ PUSH2 0x2C1 JUMPI DUP1 PUSH4 0xDD62ED3E EQ PUSH2 0x278 JUMPI DUP1 PUSH4 0xE6EF73D6 EQ PUSH2 0x24B JUMPI DUP1 PUSH4 0xE8891DE8 EQ PUSH2 0x1AF JUMPI PUSH4 0xF2FDE38B EQ PUSH2 0x11D JUMPI PUSH0 DUP1 REVERT JUMPDEST CALLVALUE PUSH2 0x1AB JUMPI PUSH1 0x20 CALLDATASIZE PUSH1 0x3 NOT ADD SLT PUSH2 0x1AB JUMPI PUSH2 0x136 PUSH2 0xAA2 JUMP JUMPDEST SWAP1 PUSH2 0x13F PUSH2 0xAD2 JUMP JUMPDEST PUSH1 0x1 PUSH1 0x1 PUSH1 0xA0 SHL SUB SWAP2 DUP3 AND SWAP3 DUP4 ISZERO PUSH2 0x195 JUMPI POP POP PUSH1 0x5 SLOAD DUP3 PUSH12 0xFFFFFFFFFFFFFFFFFFFFFFFF PUSH1 0xA0 SHL DUP3 AND OR PUSH1 0x5 SSTORE AND PUSH32 0x8BE0079C531659141344CD1FD0A4F28419497F9722A3DAAFE3B4186F6B6457E0 DUP4 DUP1 LOG3 DUP1 RETURN JUMPDEST MLOAD PUSH4 0x1E4FBDF7 PUSH1 0xE0 SHL DUP2 MSTORE SWAP1 DUP2 ADD DUP5 SWAP1 MSTORE PUSH1 0x24 SWAP1 REVERT JUMPDEST DUP3 DUP1 REVERT JUMPDEST POP SWAP1 CALLVALUE PUSH2 0x1AB JUMPI PUSH1 0x20 CALLDATASIZE PUSH1 0x3 NOT ADD SLT PUSH2 0x1AB JUMPI DUP2 CALLDATALOAD SWAP2 PUSH2 0x1CD PUSH2 0xAD2 JUMP JUMPDEST PUSH1 0x6 SLOAD DUP4 LT ISZERO PUSH2 0x209 JUMPI POP DUP2 PUSH1 0x20 SWAP2 PUSH32 0x583D8B24C5439AB7D810E51E37E8DB41BA66F1168FD7B752CEAE0C7681C5272C SWAP4 PUSH1 0x6 SSTORE MLOAD SWAP1 DUP2 MSTORE LOG1 DUP1 RETURN JUMPDEST PUSH1 0x20 PUSH1 0x64 SWAP3 MLOAD SWAP2 PUSH3 0x461BCD PUSH1 0xE5 SHL DUP4 MSTORE DUP3 ADD MSTORE PUSH1 0x18 PUSH1 0x24 DUP3 ADD MSTORE PUSH32 0x43616E6E6F7420696E63726561736520636F6F6C646F776E0000000000000000 PUSH1 0x44 DUP3 ADD MSTORE REVERT JUMPDEST POP POP CALLVALUE PUSH2 0x274 JUMPI DUP2 PUSH1 0x3 NOT CALLDATASIZE ADD SLT PUSH2 0x274 JUMPI PUSH1 0xA SLOAD SWAP1 MLOAD PUSH1 0x1 PUSH1 0x1 PUSH1 0xA0 SHL SUB SWAP1 SWAP2 AND DUP2 MSTORE PUSH1 0x20 SWAP1 RETURN JUMPDEST POP DUP1 REVERT JUMPDEST POP POP CALLVALUE PUSH2 0x274 JUMPI DUP1 PUSH1 0x3 NOT CALLDATASIZE ADD SLT PUSH2 0x274 JUMPI DUP1 PUSH1 0x20 SWAP3 PUSH2 0x296 PUSH2 0xAA2 JUMP JUMPDEST PUSH2 0x29E PUSH2 0xABC JUMP JUMPDEST PUSH1 0x1 PUSH1 0x1 PUSH1 0xA0 SHL SUB SWAP2 DUP3 AND DUP4 MSTORE PUSH1 0x1 DUP7 MSTORE DUP4 DUP4 KECCAK256 SWAP2 AND DUP3 MSTORE DUP5 MSTORE KECCAK256 SLOAD SWAP1 MLOAD SWAP1 DUP2 MSTORE RETURN JUMPDEST POP POP CALLVALUE PUSH2 0x274 JUMPI DUP2 PUSH1 0x3 NOT CALLDATASIZE ADD SLT PUSH2 0x274 JUMPI PUSH1 0x20 SWAP1 PUSH1 0x9 SLOAD SWAP1 MLOAD SWAP1 DUP2 MSTORE RETURN JUMPDEST POP POP CALLVALUE PUSH2 0x274 JUMPI DUP2 PUSH1 0x3 NOT CALLDATASIZE ADD SLT PUSH2 0x274 JUMPI PUSH1 0x20 SWAP1 PUSH1 0x8 SLOAD SWAP1 MLOAD SWAP1 DUP2 MSTORE RETURN JUMPDEST POP SWAP2 SWAP1 CALLVALUE PUSH2 0x274 JUMPI DUP1 PUSH1 0x3 NOT CALLDATASIZE ADD SLT PUSH2 0x274 JUMPI DUP3 CALLDATALOAD PUSH1 0x24 CALLDATALOAD SWAP4 PUSH2 0x320 PUSH2 0xAD2 JUMP JUMPDEST PUSH1 0x8 SLOAD DUP3 GT PUSH2 0x3AF JUMPI PUSH1 0x9 SLOAD DUP6 GT PUSH2 0x36C JUMPI POP PUSH32 0xB841FAF0D1B32571F4EF966A2F35E3AE51F3CDDA45318C3DA5570A5B2AD85605 SWAP3 SWAP4 DUP2 PUSH1 0x8 SSTORE DUP1 PUSH1 0x9 SSTORE DUP3 MLOAD SWAP2 DUP3 MSTORE PUSH1 0x20 DUP3 ADD MSTORE LOG1 DUP1 RETURN JUMPDEST PUSH1 0x64 SWAP1 PUSH1 0x20 DUP5 MLOAD SWAP2 PUSH3 0x461BCD PUSH1 0xE5 SHL DUP4 MSTORE DUP3 ADD MSTORE PUSH1 0x18 PUSH1 0x24 DUP3 ADD MSTORE PUSH32 0x43616E6E6F7420696E6372656173652073656C6C207461780000000000000000 PUSH1 0x44 DUP3 ADD MSTORE REVERT JUMPDEST PUSH1 0x64 SWAP1 PUSH1 0x20 DUP5 MLOAD SWAP2 PUSH3 0x461BCD PUSH1 0xE5 SHL DUP4 MSTORE DUP3 ADD MSTORE PUSH1 0x17 PUSH1 0x24 DUP3 ADD MSTORE PUSH32 0x43616E6E6F7420696E6372656173652062757920746178000000000000000000 PUSH1 0x44 DUP3 ADD MSTORE REVERT JUMPDEST POP POP CALLVALUE PUSH2 0x274 JUMPI DUP2 PUSH1 0x3 NOT CALLDATASIZE ADD SLT PUSH2 0x274 JUMPI PUSH1 0x20 SWAP1 MLOAD PUSH32 0x0 DUP2 MSTORE RETURN JUMPDEST POP POP CALLVALUE PUSH2 0x274 JUMPI DUP1 PUSH1 0x3 NOT CALLDATASIZE ADD SLT PUSH2 0x274 JUMPI PUSH1 0x20 SWAP1 PUSH2 0x457 PUSH2 0x44D PUSH2 0xAA2 JUMP JUMPDEST PUSH1 0x24 CALLDATALOAD SWAP1 CALLER PUSH2 0xAFE JUMP JUMPDEST MLOAD PUSH1 0x1 DUP2 MSTORE RETURN JUMPDEST POP SWAP2 SWAP1 CALLVALUE PUSH2 0x274 JUMPI DUP2 PUSH1 0x3 NOT CALLDATASIZE ADD SLT PUSH2 0x274 JUMPI DUP1 MLOAD SWAP1 DUP3 DUP5 SLOAD PUSH1 0x1 DUP2 DUP2 SHR SWAP1 DUP1 DUP4 AND SWAP3 DUP4 ISZERO PUSH2 0x574 JUMPI JUMPDEST PUSH1 0x20 SWAP4 DUP5 DUP5 LT DUP2 EQ PUSH2 0x561 JUMPI DUP4 DUP9 MSTORE SWAP1 DUP2 ISZERO PUSH2 0x545 JUMPI POP PUSH1 0x1 EQ PUSH2 0x4F0 JUMPI JUMPDEST POP POP POP DUP3 SWAP1 SUB PUSH1 0x1F ADD PUSH1 0x1F NOT AND DUP3 ADD SWAP3 PUSH8 0xFFFFFFFFFFFFFFFF DUP5 GT DUP4 DUP6 LT OR PUSH2 0x4DD JUMPI POP DUP3 SWAP2 DUP3 PUSH2 0x4D9 SWAP3 MSTORE DUP3 PUSH2 0xA5B JUMP JUMPDEST SUB SWAP1 RETURN JUMPDEST PUSH4 0x4E487B71 PUSH1 0xE0 SHL DUP2 MSTORE PUSH1 0x41 DUP6 MSTORE PUSH1 0x24 SWAP1 REVERT JUMPDEST DUP8 DUP8 MSTORE SWAP2 SWAP3 POP DUP6 SWAP2 DUP4 PUSH32 0x8A35ACFBC15FF81A39AE7D344FD709F28E8600B4AA8C65C6B64BFE7FE36BD19B JUMPDEST DUP4 DUP6 LT PUSH2 0x531 JUMPI POP POP POP POP DUP4 ADD ADD PUSH0 DUP1 DUP1 PUSH2 0x4A7 JUMP JUMPDEST DUP1 SLOAD DUP9 DUP7 ADD DUP4 ADD MSTORE SWAP4 ADD SWAP3 DUP5 SWAP1 DUP3 ADD PUSH2 0x51B JUMP JUMPDEST PUSH1 0xFF NOT AND DUP8 DUP6 ADD MSTORE POP POP ISZERO ISZERO PUSH1 0x5 SHL DUP5 ADD ADD SWAP1 POP PUSH0 DUP1 DUP1 PUSH2 0x4A7 JUMP JUMPDEST PUSH4 0x4E487B71 PUSH1 0xE0 SHL DUP10 MSTORE PUSH1 0x22 DUP11 MSTORE PUSH1 0x24 DUP10 REVERT JUMPDEST SWAP2 PUSH1 0x7F AND SWAP2 PUSH2 0x488 JUMP JUMPDEST POP POP CALLVALUE PUSH2 0x274 JUMPI DUP2 PUSH1 0x3 NOT CALLDATASIZE ADD SLT PUSH2 0x274 JUMPI PUSH1 0x20 SWAP1 MLOAD PUSH32 0x0 DUP2 MSTORE RETURN JUMPDEST POP POP CALLVALUE PUSH2 0x274 JUMPI DUP2 PUSH1 0x3 NOT CALLDATASIZE ADD SLT PUSH2 0x274 JUMPI PUSH1 0x5 SLOAD SWAP1 MLOAD PUSH1 0x1 PUSH1 0x1 PUSH1 0xA0 SHL SUB SWAP1 SWAP2 AND DUP2 MSTORE PUSH1 0x20 SWAP1 RETURN JUMPDEST DUP4 CALLVALUE PUSH2 0x63F JUMPI DUP1 PUSH1 0x3 NOT CALLDATASIZE ADD SLT PUSH2 0x63F JUMPI PUSH2 0x5FB PUSH2 0xAD2 JUMP JUMPDEST PUSH1 0x5 DUP1 SLOAD PUSH1 0x1 PUSH1 0x1 PUSH1 0xA0 SHL SUB NOT DUP2 AND SWAP1 SWAP2 SSTORE DUP2 SWAP1 PUSH1 0x1 PUSH1 0x1 PUSH1 0xA0 SHL SUB AND PUSH32 0x8BE0079C531659141344CD1FD0A4F28419497F9722A3DAAFE3B4186F6B6457E0 DUP3 DUP1 LOG3 DUP1 RETURN JUMPDEST DUP1 REVERT JUMPDEST POP POP CALLVALUE PUSH2 0x274 JUMPI PUSH1 0x20 CALLDATASIZE PUSH1 0x3 NOT ADD SLT PUSH2 0x274 JUMPI PUSH1 0x20 SWAP2 DUP2 SWAP1 PUSH1 0x1 PUSH1 0x1 PUSH1 0xA0 SHL SUB PUSH2 0x66A PUSH2 0xAA2 JUMP JUMPDEST AND DUP2 MSTORE DUP1 DUP5 MSTORE KECCAK256 SLOAD SWAP1 MLOAD SWAP1 DUP2 MSTORE RETURN JUMPDEST POP POP CALLVALUE PUSH2 0x274 JUMPI PUSH1 0x20 CALLDATASIZE PUSH1 0x3 NOT ADD SLT PUSH2 0x274 JUMPI PUSH1 0x20 SWAP2 PUSH1 0xFF SWAP1 DUP3 SWAP1 PUSH1 0x1 PUSH1 0x1 PUSH1 0xA0 SHL SUB PUSH2 0x6A4 PUSH2 0xAA2 JUMP JUMPDEST AND DUP2 MSTORE PUSH1 0xB DUP6 MSTORE KECCAK256 SLOAD AND SWAP1 MLOAD SWAP1 ISZERO ISZERO DUP2 MSTORE RETURN JUMPDEST POP POP CALLVALUE PUSH2 0x274 JUMPI PUSH1 0x20 CALLDATASIZE PUSH1 0x3 NOT ADD SLT PUSH2 0x274 JUMPI PUSH1 0x20 SWAP2 DUP2 SWAP1 PUSH1 0x1 PUSH1 0x1 PUSH1 0xA0 SHL SUB PUSH2 0x6DF PUSH2 0xAA2 JUMP JUMPDEST AND DUP2 MSTORE PUSH1 0x7 DUP5 MSTORE KECCAK256 SLOAD SWAP1 MLOAD SWAP1 DUP2 MSTORE RETURN JUMPDEST POP POP CALLVALUE PUSH2 0x274 JUMPI DUP2 PUSH1 0x3 NOT CALLDATASIZE ADD SLT PUSH2 0x274 JUMPI PUSH1 0x20 SWAP1 MLOAD PUSH1 0x12 DUP2 MSTORE RETURN JUMPDEST POP POP CALLVALUE PUSH2 0x274 JUMPI DUP1 PUSH1 0x3 NOT CALLDATASIZE ADD SLT PUSH2 0x274 JUMPI PUSH2 0x725 PUSH2 0xAA2 JUMP JUMPDEST PUSH1 0x24 CALLDATALOAD SWAP1 DUP2 ISZERO ISZERO DUP1 SWAP3 SUB PUSH2 0x789 JUMPI PUSH32 0x83F2B279B6151AF5A15CDBE8471D34FE8B34AED9BD9514FFEADB57C9EA366E61 SWAP2 PUSH1 0x20 SWAP2 PUSH2 0x760 PUSH2 0xAD2 JUMP JUMPDEST PUSH1 0x1 PUSH1 0x1 PUSH1 0xA0 SHL SUB AND DUP1 DUP7 MSTORE PUSH1 0xB DUP4 MSTORE DUP5 DUP7 KECCAK256 DUP1 SLOAD PUSH1 0xFF NOT AND PUSH1 0xFF DUP5 AND OR SWAP1 SSTORE SWAP4 MLOAD SWAP1 DUP2 MSTORE LOG2 DUP1 RETURN JUMPDEST DUP4 DUP1 REVERT JUMPDEST POP DUP3 CALLVALUE PUSH2 0x63F JUMPI PUSH1 0x60 CALLDATASIZE PUSH1 0x3 NOT ADD SLT PUSH2 0x63F JUMPI PUSH2 0x7A8 PUSH2 0xAA2 JUMP JUMPDEST PUSH2 0x7B0 PUSH2 0xABC JUMP JUMPDEST SWAP2 PUSH1 0x44 CALLDATALOAD SWAP4 PUSH1 0x1 DUP1 PUSH1 0xA0 SHL SUB DUP4 AND DUP1 DUP4 MSTORE PUSH1 0x1 PUSH1 0x20 MSTORE DUP7 DUP4 KECCAK256 CALLER DUP5 MSTORE PUSH1 0x20 MSTORE DUP7 DUP4 KECCAK256 SLOAD SWAP2 PUSH0 NOT DUP4 LT PUSH2 0x7EB JUMPI JUMPDEST PUSH1 0x20 DUP9 PUSH2 0x457 DUP10 DUP10 DUP10 PUSH2 0xAFE JUMP JUMPDEST DUP7 DUP4 LT PUSH2 0x853 JUMPI DUP2 ISZERO PUSH2 0x83C JUMPI CALLER ISZERO PUSH2 0x825 JUMPI POP DUP3 MSTORE PUSH1 0x1 PUSH1 0x20 SWAP1 DUP2 MSTORE DUP7 DUP4 KECCAK256 CALLER DUP5 MSTORE DUP2 MSTORE SWAP2 DUP7 SWAP1 KECCAK256 SWAP1 DUP6 SWAP1 SUB SWAP1 SSTORE DUP3 SWAP1 PUSH2 0x457 DUP8 PUSH2 0x7DD JUMP JUMPDEST DUP8 MLOAD PUSH4 0x4A1406B1 PUSH1 0xE1 SHL DUP2 MSTORE SWAP1 DUP2 ADD DUP5 SWAP1 MSTORE PUSH1 0x24 SWAP1 REVERT JUMPDEST DUP8 MLOAD PUSH4 0xE602DF05 PUSH1 0xE0 SHL DUP2 MSTORE SWAP1 DUP2 ADD DUP5 SWAP1 MSTORE PUSH1 0x24 SWAP1 REVERT JUMPDEST DUP8 MLOAD PUSH4 0x7DC7A0D9 PUSH1 0xE1 SHL DUP2 MSTORE CALLER SWAP2 DUP2 ADD SWAP2 DUP3 MSTORE PUSH1 0x20 DUP3 ADD SWAP4 SWAP1 SWAP4 MSTORE PUSH1 0x40 DUP2 ADD DUP8 SWAP1 MSTORE DUP3 SWAP2 POP PUSH1 0x60 ADD SUB SWAP1 REVERT JUMPDEST POP POP CALLVALUE PUSH2 0x274 JUMPI DUP2 PUSH1 0x3 NOT CALLDATASIZE ADD SLT PUSH2 0x274 JUMPI PUSH1 0x20 SWAP1 PUSH1 0x2 SLOAD SWAP1 MLOAD SWAP1 DUP2 MSTORE RETURN JUMPDEST POP POP CALLVALUE PUSH2 0x274 JUMPI DUP2 PUSH1 0x3 NOT CALLDATASIZE ADD SLT PUSH2 0x274 JUMPI PUSH1 0x20 SWAP1 PUSH1 0x6 SLOAD SWAP1 MLOAD SWAP1 DUP2 MSTORE RETURN JUMPDEST POP CALLVALUE PUSH2 0x1AB JUMPI DUP2 PUSH1 0x3 NOT CALLDATASIZE ADD SLT PUSH2 0x1AB JUMPI PUSH2 0x8D6 PUSH2 0xAA2 JUMP JUMPDEST PUSH1 0x24 CALLDATALOAD SWAP1 CALLER ISZERO PUSH2 0x94F JUMPI PUSH1 0x1 PUSH1 0x1 PUSH1 0xA0 SHL SUB AND SWAP2 DUP3 ISZERO PUSH2 0x938 JUMPI POP DUP1 DUP4 PUSH1 0x20 SWAP6 CALLER DUP2 MSTORE PUSH1 0x1 DUP8 MSTORE DUP2 DUP2 KECCAK256 DUP6 DUP3 MSTORE DUP8 MSTORE KECCAK256 SSTORE DUP3 MLOAD SWAP1 DUP2 MSTORE PUSH32 0x8C5BE1E5EBEC7D5BD14F71427D1E84F3DD0314C0F7B2291E5B200AC8C7C3B925 DUP5 CALLER SWAP3 LOG3 MLOAD PUSH1 0x1 DUP2 MSTORE RETURN JUMPDEST DUP4 MLOAD PUSH4 0x4A1406B1 PUSH1 0xE1 SHL DUP2 MSTORE SWAP1 DUP2 ADD DUP6 SWAP1 MSTORE PUSH1 0x24 SWAP1 REVERT JUMPDEST DUP4 MLOAD PUSH4 0xE602DF05 PUSH1 0xE0 SHL DUP2 MSTORE DUP1 DUP5 ADD DUP7 SWAP1 MSTORE PUSH1 0x24 SWAP1 REVERT JUMPDEST DUP5 SWAP2 POP DUP4 CALLVALUE PUSH2 0x1AB JUMPI DUP3 PUSH1 0x3 NOT CALLDATASIZE ADD SLT PUSH2 0x1AB JUMPI DUP3 PUSH1 0x3 SLOAD PUSH1 0x1 DUP2 DUP2 SHR SWAP1 DUP1 DUP4 AND SWAP3 DUP4 ISZERO PUSH2 0xA51 JUMPI JUMPDEST PUSH1 0x20 SWAP4 DUP5 DUP5 LT DUP2 EQ PUSH2 0x561 JUMPI DUP4 DUP9 MSTORE SWAP1 DUP2 ISZERO PUSH2 0xA35 JUMPI POP PUSH1 0x1 EQ PUSH2 0x9DF JUMPI POP POP POP DUP3 SWAP1 SUB PUSH1 0x1F ADD PUSH1 0x1F NOT AND DUP3 ADD SWAP3 PUSH8 0xFFFFFFFFFFFFFFFF DUP5 GT DUP4 DUP6 LT OR PUSH2 0x4DD JUMPI POP DUP3 SWAP2 DUP3 PUSH2 0x4D9 SWAP3 MSTORE DUP3 PUSH2 0xA5B JUMP JUMPDEST PUSH1 0x3 DUP8 MSTORE SWAP2 SWAP3 POP DUP6 SWAP2 DUP4 PUSH32 0xC2575A0E9E593C00F959F8C92F12DB2869C3395A3B0502D05E2516446F71F85B JUMPDEST DUP4 DUP6 LT PUSH2 0xA21 JUMPI POP POP POP POP DUP4 ADD ADD DUP6 DUP1 DUP1 PUSH2 0x4A7 JUMP JUMPDEST DUP1 SLOAD DUP9 DUP7 ADD DUP4 ADD MSTORE SWAP4 ADD SWAP3 DUP5 SWAP1 DUP3 ADD PUSH2 0xA0B JUMP JUMPDEST PUSH1 0xFF NOT AND DUP8 DUP6 ADD MSTORE POP POP ISZERO ISZERO PUSH1 0x5 SHL DUP5 ADD ADD SWAP1 POP DUP6 DUP1 DUP1 PUSH2 0x4A7 JUMP JUMPDEST SWAP2 PUSH1 0x7F AND SWAP2 PUSH2 0x98F JUMP JUMPDEST PUSH1 0x20 DUP1 DUP3 MSTORE DUP3 MLOAD DUP2 DUP4 ADD DUP2 SWAP1 MSTORE SWAP1 SWAP4 SWAP3 PUSH0 JUMPDEST DUP3 DUP2 LT PUSH2 0xA8E JUMPI POP POP PUSH1 0x40 SWAP3 SWAP4 POP PUSH0 DUP4 DUP3 DUP5 ADD ADD MSTORE PUSH1 0x1F DUP1 NOT SWAP2 ADD AND ADD ADD SWAP1 JUMP JUMPDEST DUP2 DUP2 ADD DUP7 ADD MLOAD DUP5 DUP3 ADD PUSH1 0x40 ADD MSTORE DUP6 ADD PUSH2 0xA6D JUMP JUMPDEST PUSH1 0x4 CALLDATALOAD SWAP1 PUSH1 0x1 PUSH1 0x1 PUSH1 0xA0 SHL SUB DUP3 AND DUP3 SUB PUSH2 0xAB8 JUMPI JUMP JUMPDEST PUSH0 DUP1 REVERT JUMPDEST PUSH1 0x24 CALLDATALOAD SWAP1 PUSH1 0x1 PUSH1 0x1 PUSH1 0xA0 SHL SUB DUP3 AND DUP3 SUB PUSH2 0xAB8 JUMPI JUMP JUMPDEST PUSH1 0x5 SLOAD PUSH1 0x1 PUSH1 0x1 PUSH1 0xA0 SHL SUB AND CALLER SUB PUSH2 0xAE6 JUMPI JUMP JUMPDEST PUSH1 0x40 MLOAD PUSH4 0x118CDAA7 PUSH1 0xE0 SHL DUP2 MSTORE CALLER PUSH1 0x4 DUP3 ADD MSTORE PUSH1 0x24 SWAP1 REVERT JUMPDEST SWAP2 SWAP1 PUSH1 0x1 PUSH1 0x1 PUSH1 0xA0 SHL SUB DUP1 DUP5 AND ISZERO PUSH2 0xB3A JUMPI DUP2 AND ISZERO PUSH2 0xB22 JUMPI PUSH2 0xB20 SWAP3 PUSH2 0xB73 JUMP JUMPDEST JUMP JUMPDEST PUSH1 0x40 MLOAD PUSH4 0xEC442F05 PUSH1 0xE0 SHL DUP2 MSTORE PUSH0 PUSH1 0x4 DUP3 ADD MSTORE PUSH1 0x24 SWAP1 REVERT JUMPDEST PUSH1 0x40 MLOAD PUSH4 0x4B637E8F PUSH1 0xE1 SHL DUP2 MSTORE PUSH0 PUSH1 0x4 DUP3 ADD MSTORE PUSH1 0x24 SWAP1 REVERT JUMPDEST SWAP2 SWAP1 DUP3 ADD DUP1 SWAP3 GT PUSH2 0xB5F JUMPI JUMP JUMPDEST PUSH4 0x4E487B71 PUSH1 0xE0 SHL PUSH0 MSTORE PUSH1 0x11 PUSH1 0x4 MSTORE PUSH1 0x24 PUSH0 REVERT JUMPDEST PUSH1 0x1 PUSH1 0x1 PUSH1 0xA0 SHL SUB SWAP4 SWAP3 SWAP2 SWAP1 DUP5 DUP2 AND DUP1 ISZERO DUP1 ISZERO PUSH2 0xE2E JUMPI JUMPDEST PUSH2 0xE22 JUMPI PUSH0 SWAP6 DUP2 DUP8 MSTORE PUSH1 0x20 SWAP2 PUSH1 0xB DUP4 MSTORE PUSH1 0x40 PUSH1 0xFF DUP2 DUP11 KECCAK256 SLOAD AND SWAP4 DUP4 DUP8 AND SWAP5 DUP6 DUP12 MSTORE PUSH1 0xFF DUP4 DUP13 KECCAK256 SLOAD AND PUSH32 0x0 NUMBER GT ISZERO DUP1 PUSH2 0xE1A JUMPI JUMPDEST DUP1 PUSH2 0xE12 JUMPI JUMPDEST PUSH2 0xDBC JUMPI ISZERO SWAP6 DUP7 PUSH2 0xD31 JUMPI JUMPDEST POP ISZERO SWAP3 DUP4 DUP1 PUSH2 0xD26 JUMPI JUMPDEST PUSH2 0xCA7 JUMPI JUMPDEST POP POP POP DUP8 SWAP3 DUP2 PUSH2 0xC9F JUMPI JUMPDEST POP PUSH2 0xC59 JUMPI JUMPDEST DUP2 ISZERO PUSH2 0xC4C JUMPI DUP2 PUSH2 0xC24 SWAP2 PUSH1 0xA SLOAD AND DUP5 PUSH2 0xE38 JUMP JUMPDEST DUP4 SUB SWAP3 DUP4 GT PUSH2 0xC38 JUMPI PUSH2 0xB20 SWAP4 SWAP5 POP PUSH2 0xE38 JUMP JUMPDEST PUSH4 0x4E487B71 PUSH1 0xE0 SHL DUP6 MSTORE PUSH1 0x11 PUSH1 0x4 MSTORE PUSH1 0x24 DUP6 REVERT JUMPDEST POP POP PUSH2 0xB20 SWAP4 SWAP5 POP PUSH2 0xE38 JUMP JUMPDEST SWAP1 POP PUSH1 0x9 SLOAD PUSH1 0x8 SLOAD DUP1 PUSH2 0xC97 JUMPI JUMPDEST POP DUP1 DUP6 MUL SWAP1 DUP6 DUP3 DIV EQ DUP6 ISZERO OR ISZERO PUSH2 0xC83 JUMPI PUSH2 0x2710 SWAP1 DIV SWAP1 PUSH2 0xC0F JUMP JUMPDEST PUSH4 0x4E487B71 PUSH1 0xE0 SHL DUP8 MSTORE PUSH1 0x11 PUSH1 0x4 MSTORE PUSH1 0x24 DUP8 REVERT JUMPDEST SWAP1 POP PUSH0 PUSH2 0xC67 JUMP JUMPDEST SWAP1 POP PUSH0 PUSH2 0xC09 JUMP JUMPDEST DUP1 DUP12 MSTORE PUSH1 0x7 DUP3 MSTORE PUSH2 0xCBE DUP4 DUP13 KECCAK256 SLOAD PUSH1 0x6 SLOAD SWAP1 PUSH2 0xB52 JUMP JUMPDEST TIMESTAMP LT PUSH2 0xCD7 JUMPI DUP11 MSTORE PUSH1 0x7 SWAP1 MSTORE DUP9 KECCAK256 TIMESTAMP SWAP1 SSTORE PUSH0 DUP1 DUP1 PUSH2 0xBFE JUMP JUMPDEST POP PUSH1 0x84 SWAP2 MLOAD SWAP1 PUSH3 0x461BCD PUSH1 0xE5 SHL DUP3 MSTORE PUSH1 0x4 DUP3 ADD MSTORE PUSH1 0x23 PUSH1 0x24 DUP3 ADD MSTORE PUSH32 0x477561726469616E546F6B656E3A2073656C6C20636F6F6C646F776E20616374 PUSH1 0x44 DUP3 ADD MSTORE PUSH3 0x697665 PUSH1 0xE8 SHL PUSH1 0x64 DUP3 ADD MSTORE REVERT JUMPDEST POP PUSH1 0x6 SLOAD ISZERO ISZERO PUSH2 0xBF9 JUMP JUMPDEST DUP12 MSTORE DUP11 DUP3 MSTORE PUSH2 0xD43 DUP10 DUP5 DUP14 KECCAK256 SLOAD PUSH2 0xB52 JUMP JUMPDEST PUSH32 0x0 LT PUSH2 0xD6F JUMPI PUSH0 PUSH2 0xBEF JUMP JUMPDEST POP PUSH1 0x84 SWAP2 MLOAD SWAP1 PUSH3 0x461BCD PUSH1 0xE5 SHL DUP3 MSTORE PUSH1 0x4 DUP3 ADD MSTORE PUSH1 0x21 PUSH1 0x24 DUP3 ADD MSTORE PUSH32 0x477561726469616E546F6B656E3A2065786365656473206D61782077616C6C65 PUSH1 0x44 DUP3 ADD MSTORE PUSH1 0x1D PUSH1 0xFA SHL PUSH1 0x64 DUP3 ADD MSTORE REVERT JUMPDEST DUP4 MLOAD PUSH3 0x461BCD PUSH1 0xE5 SHL DUP2 MSTORE PUSH1 0x4 DUP2 ADD DUP5 SWAP1 MSTORE PUSH1 0x29 PUSH1 0x24 DUP3 ADD MSTORE PUSH32 0x477561726469616E546F6B656E3A20616E74692D626F742070726F7465637469 PUSH1 0x44 DUP3 ADD MSTORE PUSH9 0x6F6E20616374697665 PUSH1 0xB8 SHL PUSH1 0x64 DUP3 ADD MSTORE PUSH1 0x84 SWAP1 REVERT JUMPDEST POP DUP1 ISZERO PUSH2 0xBE3 JUMP JUMPDEST POP DUP2 ISZERO PUSH2 0xBDD JUMP JUMPDEST POP PUSH2 0xB20 SWAP4 SWAP5 POP PUSH2 0xE38 JUMP JUMPDEST POP DUP6 DUP4 AND ISZERO PUSH2 0xB8B JUMP JUMPDEST PUSH1 0x1 PUSH1 0x1 PUSH1 0xA0 SHL SUB DUP1 DUP3 AND SWAP3 SWAP1 SWAP2 DUP4 PUSH2 0xEAF JUMPI POP PUSH32 0xDDF252AD1BE2C89B69C2B068FC378DAA952BA7F163C4A11628F55A4DF523B3EF SWAP2 PUSH1 0x20 SWAP2 PUSH2 0xE7D DUP7 PUSH1 0x2 SLOAD PUSH2 0xB52 JUMP JUMPDEST PUSH1 0x2 SSTORE JUMPDEST AND SWAP4 DUP5 PUSH2 0xE9A JUMPI DUP1 PUSH1 0x2 SLOAD SUB PUSH1 0x2 SSTORE JUMPDEST PUSH1 0x40 MLOAD SWAP1 DUP2 MSTORE LOG3 JUMP JUMPDEST DUP5 PUSH0 MSTORE PUSH0 DUP3 MSTORE PUSH1 0x40 PUSH0 KECCAK256 DUP2 DUP2 SLOAD ADD SWAP1 SSTORE PUSH2 0xE91 JUMP JUMPDEST PUSH0 SWAP1 DUP5 DUP3 MSTORE DUP2 PUSH1 0x20 MSTORE PUSH1 0x40 DUP3 KECCAK256 SLOAD SWAP1 DUP7 DUP3 LT PUSH2 0xEFF JUMPI POP SWAP2 DUP2 PUSH1 0x40 DUP8 PUSH1 0x20 SWAP6 DUP9 PUSH32 0xDDF252AD1BE2C89B69C2B068FC378DAA952BA7F163C4A11628F55A4DF523B3EF SWAP9 SWAP7 MSTORE DUP4 DUP8 MSTORE SUB SWAP2 KECCAK256 SSTORE PUSH2 0xE81 JUMP JUMPDEST PUSH1 0x40 MLOAD PUSH4 0x391434E3 PUSH1 0xE2 SHL DUP2 MSTORE PUSH1 0x1 PUSH1 0x1 PUSH1 0xA0 SHL SUB SWAP2 SWAP1 SWAP2 AND PUSH1 0x4 DUP3 ADD MSTORE PUSH1 0x24 DUP2 ADD SWAP2 SWAP1 SWAP2 MSTORE PUSH1 0x44 DUP2 ADD DUP7 SWAP1 MSTORE PUSH1 0x64 SWAP1 REVERT INVALID LOG2 PUSH5 0x6970667358 0x22 SLT KECCAK256 0xD7 0xCB MUL 0xB5 0x4F 0xD6 0x1E 0xAE 0x2A STOP DUP2 DUP12 0xA8 0x4B 0x2B 0xE 0xD9 0x4D CALL 0xD DUP16 0xD 0x5E RETURNDATASIZE 0xDF PUSH30 0x6A90B9E591E864736F6C6343000814003300000000000000000000000000 "},"methodIdentifiers":{"allowance(address,address)":"dd62ed3e","antiBotEndBlock()":"91a83fea","approve(address,uint256)":"095ea7b3","balanceOf(address)":"70a08231","buyTaxBps()":"c473413a","decimals()":"313ce567","isExcludedFromLimits(address)":"5cce86cd","lastSellTimestamp(address)":"33cbeaa0","maxWalletAmount()":"aa4bde28","name()":"06fdde03","owner()":"8da5cb5b","reduceCooldown(uint256)":"e8891de8","reduceTax(uint256,uint256)":"b9a410ff","renounceOwnership()":"715018a6","sellCooldownSeconds()":"0eff6427","sellTaxBps()":"cffd129c","setExcluded(address,bool)":"2836be24","symbol()":"95d89b41","taxReceiver()":"e6ef73d6","totalSupply()":"18160ddd","transfer(address,uint256)":"a9059cbb","transferFrom(address,address,uint256)":"23b872dd","transferOwnership(address)":"f2fde38b"}}}}}