{"project/contracts/BulkDistributor.sol":{"BulkDistributor":{"abi":[{"inputs":[],"stateMutability":"nonpayable","type":"constructor"},{"inputs":[{"internalType":"address","name":"owner","type":"address"}],"name":"OwnableInvalidOwner","type":"error"},{"inputs":[{"internalType":"address","name":"account","type":"address"}],"name":"OwnableUnauthorizedAccount","type":"error"},{"inputs":[{"internalType":"address","name":"token","type":"address"}],"name":"SafeERC20FailedOperation","type":"error"},{"anonymous":false,"inputs":[{"indexed":true,"internalType":"address","name":"token","type":"address"},{"indexed":false,"internalType":"uint256","name":"totalRecipients","type":"uint256"},{"indexed":false,"internalType":"uint256","name":"totalAmount","type":"uint256"}],"name":"BulkTransferCompleted","type":"event"},{"anonymous":false,"inputs":[{"indexed":true,"internalType":"address","name":"token","type":"address"},{"indexed":true,"internalType":"address","name":"to","type":"address"},{"indexed":false,"internalType":"uint256","name":"amount","type":"uint256"}],"name":"EmergencyWithdrawn","type":"event"},{"anonymous":false,"inputs":[{"indexed":true,"internalType":"address","name":"previousOwner","type":"address"},{"indexed":true,"internalType":"address","name":"newOwner","type":"address"}],"name":"OwnershipTransferred","type":"event"},{"inputs":[{"internalType":"contract IERC20","name":"token","type":"address"},{"internalType":"address[]","name":"recipients","type":"address[]"},{"internalType":"uint256[]","name":"amounts","type":"uint256[]"}],"name":"bulkTransfer","outputs":[],"stateMutability":"nonpayable","type":"function"},{"inputs":[],"name":"owner","outputs":[{"internalType":"address","name":"","type":"address"}],"stateMutability":"view","type":"function"},{"inputs":[],"name":"renounceOwnership","outputs":[],"stateMutability":"nonpayable","type":"function"},{"inputs":[{"internalType":"address","name":"newOwner","type":"address"}],"name":"transferOwnership","outputs":[],"stateMutability":"nonpayable","type":"function"}],"evm":{"bytecode":{"linkReferences":{},"object":"60808060405234610078573315610063575f8054336001600160a01b03198216811783556040519290916001600160a01b0316907f8be0079c531659141344cd1fd0a4f28419497f9722a3daafe3b4186f6b6457e09080a3610517908161007d8239f35b631e4fbdf760e01b81525f6004820152602490fd5b5f80fdfe604060808152600480361015610013575f80fd5b5f91823560e01c8063715018a6146103ec5780638da5cb5b146103c4578063e886dade146100d95763f2fde38b14610049575f80fd5b346100d55760203660031901126100d5576001600160a01b038235818116939192908490036100d15761007a61047e565b83156100bb57505082546001600160a01b0319811683178455167f8be0079c531659141344cd1fd0a4f28419497f9722a3daafe3b4186f6b6457e08380a380f35b51631e4fbdf760e01b8152908101849052602490fd5b8480fd5b8280fd5b508290346103c05760603660031901126103c0576001600160a01b039280358481169291908381036100d15760249567ffffffffffffffff9287358481116103bc576101289036908301610449565b94909260449485358381116103b8576101449036908601610449565b93909261014f61047e565b881561037c5784890361034157969594939291908b978c975b8a89106101a3578d8d7fe8a7d6e699fb418582fb76f8a1bff2ed76956a5f52c53f167dbffb088b3a18d88e8e8e82519182526020820152a280f35b909192939495969798826101c06101bb8c8e8d6104a9565b6104cd565b16156102fe576101d18a88886104a9565b35156102ca578d8f8b8e868f6101ef8f856101f7936101bb926104a9565b938d8d6104a9565b3591519260208401946323b872dd60e01b86523390850152168683015260649081830152815260a08101818110888211176102b5578f52516020929182895af1156102ab578d513d6102a257508c3b155b61028c576102578a88886104a9565b35810180911161027a57985f19811461027a576001019796959493929190610168565b634e487b7160e01b8e52601188528e8efd5b8b51635274afe760e01b81528089018e90528f90fd5b60011415610248565b8b513d8f823e3d90fd5b5050634e487b7160e01b825250604189528f90fd5b60648f6d125b9d985b1a5908185b5bdd5b9d60921b848f8c936020600e92519562461bcd60e51b8752860152840152820152fd5b60648f7f496e76616c696420726563697069656e74206164647265737300000000000000848f8c936020601992519562461bcd60e51b8752860152840152820152fd5b5050875162461bcd60e51b81526020818601526015818d015274082e4e4c2f240d8cadccee8d040dad2e6dac2e8c6d605b1b81880152606490fd5b5050875162461bcd60e51b81526020818601526016818d015275456d70747920726563697069656e747320617272617960501b81880152606490fd5b8a80fd5b8780fd5b5080fd5b8382346103c057816003193601126103c057905490516001600160a01b039091168152602090f35b833461044657806003193601126104465761040561047e565b80546001600160a01b03198116825581906001600160a01b03167f8be0079c531659141344cd1fd0a4f28419497f9722a3daafe3b4186f6b6457e08280a380f35b80fd5b9181601f8401121561047a5782359167ffffffffffffffff831161047a576020808501948460051b01011161047a57565b5f80fd5b5f546001600160a01b0316330361049157565b60405163118cdaa760e01b8152336004820152602490fd5b91908110156104b95760051b0190565b634e487b7160e01b5f52603260045260245ffd5b356001600160a01b038116810361047a579056fea2646970667358221220fb050e499668d99ed30a8ffa491d52d4255a1a2c03fedc0aa62f288b23a7d74264736f6c63430008140033","opcodes":"PUSH1 0x80 DUP1 PUSH1 0x40 MSTORE CALLVALUE PUSH2 0x78 JUMPI CALLER ISZERO PUSH2 0x63 JUMPI PUSH0 DUP1 SLOAD CALLER PUSH1 0x1 PUSH1 0x1 PUSH1 0xA0 SHL SUB NOT DUP3 AND DUP2 OR DUP4 SSTORE PUSH1 0x40 MLOAD SWAP3 SWAP1 SWAP2 PUSH1 0x1 PUSH1 0x1 PUSH1 0xA0 SHL SUB AND SWAP1 PUSH32 0x8BE0079C531659141344CD1FD0A4F28419497F9722A3DAAFE3B4186F6B6457E0 SWAP1 DUP1 LOG3 PUSH2 0x517 SWAP1 DUP2 PUSH2 0x7D DUP3 CODECOPY RETURN JUMPDEST PUSH4 0x1E4FBDF7 PUSH1 0xE0 SHL DUP2 MSTORE PUSH0 PUSH1 0x4 DUP3 ADD MSTORE PUSH1 0x24 SWAP1 REVERT JUMPDEST PUSH0 DUP1 REVERT INVALID PUSH1 0x40 PUSH1 0x80 DUP2 MSTORE PUSH1 0x4 DUP1 CALLDATASIZE LT ISZERO PUSH2 0x13 JUMPI PUSH0 DUP1 REVERT JUMPDEST PUSH0 SWAP2 DUP3 CALLDATALOAD PUSH1 0xE0 SHR DUP1 PUSH4 0x715018A6 EQ PUSH2 0x3EC JUMPI DUP1 PUSH4 0x8DA5CB5B EQ PUSH2 0x3C4 JUMPI DUP1 PUSH4 0xE886DADE EQ PUSH2 0xD9 JUMPI PUSH4 0xF2FDE38B EQ PUSH2 0x49 JUMPI PUSH0 DUP1 REVERT JUMPDEST CALLVALUE PUSH2 0xD5 JUMPI PUSH1 0x20 CALLDATASIZE PUSH1 0x3 NOT ADD SLT PUSH2 0xD5 JUMPI PUSH1 0x1 PUSH1 0x1 PUSH1 0xA0 SHL SUB DUP3 CALLDATALOAD DUP2 DUP2 AND SWAP4 SWAP2 SWAP3 SWAP1 DUP5 SWAP1 SUB PUSH2 0xD1 JUMPI PUSH2 0x7A PUSH2 0x47E JUMP JUMPDEST DUP4 ISZERO PUSH2 0xBB JUMPI POP POP DUP3 SLOAD PUSH1 0x1 PUSH1 0x1 PUSH1 0xA0 SHL SUB NOT DUP2 AND DUP4 OR DUP5 SSTORE AND PUSH32 0x8BE0079C531659141344CD1FD0A4F28419497F9722A3DAAFE3B4186F6B6457E0 DUP4 DUP1 LOG3 DUP1 RETURN JUMPDEST MLOAD PUSH4 0x1E4FBDF7 PUSH1 0xE0 SHL DUP2 MSTORE SWAP1 DUP2 ADD DUP5 SWAP1 MSTORE PUSH1 0x24 SWAP1 REVERT JUMPDEST DUP5 DUP1 REVERT JUMPDEST DUP3 DUP1 REVERT JUMPDEST POP DUP3 SWAP1 CALLVALUE PUSH2 0x3C0 JUMPI PUSH1 0x60 CALLDATASIZE PUSH1 0x3 NOT ADD SLT PUSH2 0x3C0 JUMPI PUSH1 0x1 PUSH1 0x1 PUSH1 0xA0 SHL SUB SWAP3 DUP1 CALLDATALOAD DUP5 DUP2 AND SWAP3 SWAP2 SWAP1 DUP4 DUP2 SUB PUSH2 0xD1 JUMPI PUSH1 0x24 SWAP6 PUSH8 0xFFFFFFFFFFFFFFFF SWAP3 DUP8 CALLDATALOAD DUP5 DUP2 GT PUSH2 0x3BC JUMPI PUSH2 0x128 SWAP1 CALLDATASIZE SWAP1 DUP4 ADD PUSH2 0x449 JUMP JUMPDEST SWAP5 SWAP1 SWAP3 PUSH1 0x44 SWAP5 DUP6 CALLDATALOAD DUP4 DUP2 GT PUSH2 0x3B8 JUMPI PUSH2 0x144 SWAP1 CALLDATASIZE SWAP1 DUP7 ADD PUSH2 0x449 JUMP JUMPDEST SWAP4 SWAP1 SWAP3 PUSH2 0x14F PUSH2 0x47E JUMP JUMPDEST DUP9 ISZERO PUSH2 0x37C JUMPI DUP5 DUP10 SUB PUSH2 0x341 JUMPI SWAP7 SWAP6 SWAP5 SWAP4 SWAP3 SWAP2 SWAP1 DUP12 SWAP8 DUP13 SWAP8 JUMPDEST DUP11 DUP10 LT PUSH2 0x1A3 JUMPI DUP14 DUP14 PUSH32 0xE8A7D6E699FB418582FB76F8A1BFF2ED76956A5F52C53F167DBFFB088B3A18D8 DUP15 DUP15 DUP15 DUP3 MLOAD SWAP2 DUP3 MSTORE PUSH1 0x20 DUP3 ADD MSTORE LOG2 DUP1 RETURN JUMPDEST SWAP1 SWAP2 SWAP3 SWAP4 SWAP5 SWAP6 SWAP7 SWAP8 SWAP9 DUP3 PUSH2 0x1C0 PUSH2 0x1BB DUP13 DUP15 DUP14 PUSH2 0x4A9 JUMP JUMPDEST PUSH2 0x4CD JUMP JUMPDEST AND ISZERO PUSH2 0x2FE JUMPI PUSH2 0x1D1 DUP11 DUP9 DUP9 PUSH2 0x4A9 JUMP JUMPDEST CALLDATALOAD ISZERO PUSH2 0x2CA JUMPI DUP14 DUP16 DUP12 DUP15 DUP7 DUP16 PUSH2 0x1EF DUP16 DUP6 PUSH2 0x1F7 SWAP4 PUSH2 0x1BB SWAP3 PUSH2 0x4A9 JUMP JUMPDEST SWAP4 DUP14 DUP14 PUSH2 0x4A9 JUMP JUMPDEST CALLDATALOAD SWAP2 MLOAD SWAP3 PUSH1 0x20 DUP5 ADD SWAP5 PUSH4 0x23B872DD PUSH1 0xE0 SHL DUP7 MSTORE CALLER SWAP1 DUP6 ADD MSTORE AND DUP7 DUP4 ADD MSTORE PUSH1 0x64 SWAP1 DUP2 DUP4 ADD MSTORE DUP2 MSTORE PUSH1 0xA0 DUP2 ADD DUP2 DUP2 LT DUP9 DUP3 GT OR PUSH2 0x2B5 JUMPI DUP16 MSTORE MLOAD PUSH1 0x20 SWAP3 SWAP2 DUP3 DUP10 GAS CALL ISZERO PUSH2 0x2AB JUMPI DUP14 MLOAD RETURNDATASIZE PUSH2 0x2A2 JUMPI POP DUP13 EXTCODESIZE ISZERO JUMPDEST PUSH2 0x28C JUMPI PUSH2 0x257 DUP11 DUP9 DUP9 PUSH2 0x4A9 JUMP JUMPDEST CALLDATALOAD DUP2 ADD DUP1 SWAP2 GT PUSH2 0x27A JUMPI SWAP9 PUSH0 NOT DUP2 EQ PUSH2 0x27A JUMPI PUSH1 0x1 ADD SWAP8 SWAP7 SWAP6 SWAP5 SWAP4 SWAP3 SWAP2 SWAP1 PUSH2 0x168 JUMP JUMPDEST PUSH4 0x4E487B71 PUSH1 0xE0 SHL DUP15 MSTORE PUSH1 0x11 DUP9 MSTORE DUP15 DUP15 REVERT JUMPDEST DUP12 MLOAD PUSH4 0x5274AFE7 PUSH1 0xE0 SHL DUP2 MSTORE DUP1 DUP10 ADD DUP15 SWAP1 MSTORE DUP16 SWAP1 REVERT JUMPDEST PUSH1 0x1 EQ ISZERO PUSH2 0x248 JUMP JUMPDEST DUP12 MLOAD RETURNDATASIZE DUP16 DUP3 RETURNDATACOPY RETURNDATASIZE SWAP1 REVERT JUMPDEST POP POP PUSH4 0x4E487B71 PUSH1 0xE0 SHL DUP3 MSTORE POP PUSH1 0x41 DUP10 MSTORE DUP16 SWAP1 REVERT JUMPDEST PUSH1 0x64 DUP16 PUSH14 0x125B9D985B1A5908185B5BDD5B9D PUSH1 0x92 SHL DUP5 DUP16 DUP13 SWAP4 PUSH1 0x20 PUSH1 0xE SWAP3 MLOAD SWAP6 PUSH3 0x461BCD PUSH1 0xE5 SHL DUP8 MSTORE DUP7 ADD MSTORE DUP5 ADD MSTORE DUP3 ADD MSTORE REVERT JUMPDEST PUSH1 0x64 DUP16 PUSH32 0x496E76616C696420726563697069656E74206164647265737300000000000000 DUP5 DUP16 DUP13 SWAP4 PUSH1 0x20 PUSH1 0x19 SWAP3 MLOAD SWAP6 PUSH3 0x461BCD PUSH1 0xE5 SHL DUP8 MSTORE DUP7 ADD MSTORE DUP5 ADD MSTORE DUP3 ADD MSTORE REVERT JUMPDEST POP POP DUP8 MLOAD PUSH3 0x461BCD PUSH1 0xE5 SHL DUP2 MSTORE PUSH1 0x20 DUP2 DUP7 ADD MSTORE PUSH1 0x15 DUP2 DUP14 ADD MSTORE PUSH21 0x82E4E4C2F240D8CADCCEE8D040DAD2E6DAC2E8C6D PUSH1 0x5B SHL DUP2 DUP9 ADD MSTORE PUSH1 0x64 SWAP1 REVERT JUMPDEST POP POP DUP8 MLOAD PUSH3 0x461BCD PUSH1 0xE5 SHL DUP2 MSTORE PUSH1 0x20 DUP2 DUP7 ADD MSTORE PUSH1 0x16 DUP2 DUP14 ADD MSTORE PUSH22 0x456D70747920726563697069656E7473206172726179 PUSH1 0x50 SHL DUP2 DUP9 ADD MSTORE PUSH1 0x64 SWAP1 REVERT JUMPDEST DUP11 DUP1 REVERT JUMPDEST DUP8 DUP1 REVERT JUMPDEST POP DUP1 REVERT JUMPDEST DUP4 DUP3 CALLVALUE PUSH2 0x3C0 JUMPI DUP2 PUSH1 0x3 NOT CALLDATASIZE ADD SLT PUSH2 0x3C0 JUMPI SWAP1 SLOAD SWAP1 MLOAD PUSH1 0x1 PUSH1 0x1 PUSH1 0xA0 SHL SUB SWAP1 SWAP2 AND DUP2 MSTORE PUSH1 0x20 SWAP1 RETURN JUMPDEST DUP4 CALLVALUE PUSH2 0x446 JUMPI DUP1 PUSH1 0x3 NOT CALLDATASIZE ADD SLT PUSH2 0x446 JUMPI PUSH2 0x405 PUSH2 0x47E JUMP JUMPDEST DUP1 SLOAD PUSH1 0x1 PUSH1 0x1 PUSH1 0xA0 SHL SUB NOT DUP2 AND DUP3 SSTORE DUP2 SWAP1 PUSH1 0x1 PUSH1 0x1 PUSH1 0xA0 SHL SUB AND PUSH32 0x8BE0079C531659141344CD1FD0A4F28419497F9722A3DAAFE3B4186F6B6457E0 DUP3 DUP1 LOG3 DUP1 RETURN JUMPDEST DUP1 REVERT JUMPDEST SWAP2 DUP2 PUSH1 0x1F DUP5 ADD SLT ISZERO PUSH2 0x47A JUMPI DUP3 CALLDATALOAD SWAP2 PUSH8 0xFFFFFFFFFFFFFFFF DUP4 GT PUSH2 0x47A JUMPI PUSH1 0x20 DUP1 DUP6 ADD SWAP5 DUP5 PUSH1 0x5 SHL ADD ADD GT PUSH2 0x47A JUMPI JUMP JUMPDEST PUSH0 DUP1 REVERT JUMPDEST PUSH0 SLOAD PUSH1 0x1 PUSH1 0x1 PUSH1 0xA0 SHL SUB AND CALLER SUB PUSH2 0x491 JUMPI JUMP JUMPDEST PUSH1 0x40 MLOAD PUSH4 0x118CDAA7 PUSH1 0xE0 SHL DUP2 MSTORE CALLER PUSH1 0x4 DUP3 ADD MSTORE PUSH1 0x24 SWAP1 REVERT JUMPDEST SWAP2 SWAP1 DUP2 LT ISZERO PUSH2 0x4B9 JUMPI PUSH1 0x5 SHL ADD SWAP1 JUMP JUMPDEST PUSH4 0x4E487B71 PUSH1 0xE0 SHL PUSH0 MSTORE PUSH1 0x32 PUSH1 0x4 MSTORE PUSH1 0x24 PUSH0 REVERT JUMPDEST CALLDATALOAD PUSH1 0x1 PUSH1 0x1 PUSH1 0xA0 SHL SUB DUP2 AND DUP2 SUB PUSH2 0x47A JUMPI SWAP1 JUMP INVALID LOG2 PUSH5 0x6970667358 0x22 SLT KECCAK256 0xFB SDIV 0xE 0x49 SWAP7 PUSH9 0xD99ED30A8FFA491D52 0xD4 0x25 GAS BYTE 0x2C SUB INVALID 0xDC EXP 0xA6 0x2F 0x28 DUP12 0x23 0xA7 0xD7 TIMESTAMP PUSH5 0x736F6C6343 STOP ADDMOD EQ STOP CALLER "},"methodIdentifiers":{"bulkTransfer(address,address[],uint256[])":"e886dade","owner()":"8da5cb5b","renounceOwnership()":"715018a6","transferOwnership(address)":"f2fde38b"}}}}}