{"project/contracts/LiquidityController.sol":{"LiquidityController":{"abi":[{"inputs":[{"internalType":"address","name":"_oracle","type":"address"}],"stateMutability":"nonpayable","type":"constructor"},{"inputs":[],"name":"ECDSAInvalidSignature","type":"error"},{"inputs":[{"internalType":"uint256","name":"length","type":"uint256"}],"name":"ECDSAInvalidSignatureLength","type":"error"},{"inputs":[{"internalType":"bytes32","name":"s","type":"bytes32"}],"name":"ECDSAInvalidSignatureS","type":"error"},{"inputs":[{"internalType":"address","name":"owner","type":"address"}],"name":"OwnableInvalidOwner","type":"error"},{"inputs":[{"internalType":"address","name":"account","type":"address"}],"name":"OwnableUnauthorizedAccount","type":"error"},{"inputs":[{"internalType":"address","name":"token","type":"address"}],"name":"SafeERC20FailedOperation","type":"error"},{"anonymous":false,"inputs":[{"indexed":true,"internalType":"address","name":"token","type":"address"},{"indexed":false,"internalType":"string","name":"reason","type":"string"}],"name":"EmergencyFrozen","type":"event"},{"anonymous":false,"inputs":[{"indexed":true,"internalType":"address","name":"token","type":"address"},{"indexed":true,"internalType":"address","name":"lpToken","type":"address"},{"indexed":false,"internalType":"uint256","name":"amount","type":"uint256"}],"name":"Locked","type":"event"},{"anonymous":false,"inputs":[{"indexed":true,"internalType":"address","name":"previousOwner","type":"address"},{"indexed":true,"internalType":"address","name":"newOwner","type":"address"}],"name":"OwnershipTransferred","type":"event"},{"anonymous":false,"inputs":[{"indexed":true,"internalType":"address","name":"token","type":"address"},{"indexed":false,"internalType":"uint256","name":"delayDays","type":"uint256"},{"indexed":false,"internalType":"uint256","name":"healthScore","type":"uint256"}],"name":"PenaltyApplied","type":"event"},{"anonymous":false,"inputs":[{"indexed":true,"internalType":"address","name":"token","type":"address"},{"indexed":false,"internalType":"uint256","name":"amount","type":"uint256"},{"indexed":false,"internalType":"uint256","name":"healthScore","type":"uint256"}],"name":"Unlocked","type":"event"},{"inputs":[{"internalType":"address","name":"projectToken","type":"address"}],"name":"emergencyFreeze","outputs":[],"stateMutability":"nonpayable","type":"function"},{"inputs":[{"internalType":"address","name":"projectToken","type":"address"}],"name":"getMilestones","outputs":[{"components":[{"internalType":"uint256","name":"unlockTimestamp","type":"uint256"},{"internalType":"uint256","name":"amountToUnlock","type":"uint256"},{"internalType":"bool","name":"isUnlocked","type":"bool"}],"internalType":"struct LiquidityController.Milestone[]","name":"","type":"tuple[]"}],"stateMutability":"view","type":"function"},{"inputs":[],"name":"guardianOracle","outputs":[{"internalType":"address","name":"","type":"address"}],"stateMutability":"view","type":"function"},{"inputs":[{"internalType":"address","name":"projectToken","type":"address"},{"internalType":"address","name":"lpToken","type":"address"},{"internalType":"uint256","name":"amount","type":"uint256"},{"internalType":"uint256[]","name":"unlockTimestamps","type":"uint256[]"},{"internalType":"uint256[]","name":"unlockAmounts","type":"uint256[]"}],"name":"lockLP","outputs":[],"stateMutability":"nonpayable","type":"function"},{"inputs":[{"internalType":"address","name":"","type":"address"}],"name":"locks","outputs":[{"internalType":"address","name":"deployer","type":"address"},{"internalType":"address","name":"lpToken","type":"address"},{"internalType":"uint256","name":"totalLocked","type":"uint256"},{"internalType":"uint256","name":"totalUnlocked","type":"uint256"},{"internalType":"bool","name":"emergencyFrozen","type":"bool"}],"stateMutability":"view","type":"function"},{"inputs":[],"name":"owner","outputs":[{"internalType":"address","name":"","type":"address"}],"stateMutability":"view","type":"function"},{"inputs":[{"internalType":"address","name":"projectToken","type":"address"},{"internalType":"uint256","name":"milestoneIndex","type":"uint256"},{"internalType":"uint256","name":"healthScore","type":"uint256"},{"internalType":"bytes","name":"signature","type":"bytes"}],"name":"processUnlock","outputs":[],"stateMutability":"nonpayable","type":"function"},{"inputs":[],"name":"renounceOwnership","outputs":[],"stateMutability":"nonpayable","type":"function"},{"inputs":[{"internalType":"address","name":"_oracle","type":"address"}],"name":"setOracle","outputs":[],"stateMutability":"nonpayable","type":"function"},{"inputs":[{"internalType":"address","name":"newOwner","type":"address"}],"name":"transferOwnership","outputs":[],"stateMutability":"nonpayable","type":"function"}],"evm":{"bytecode":{"linkReferences":{},"object":"6080346100c257601f61100238819003918201601f19168301916001600160401b038311848410176100c6578084926020946040528339810103126100c257516001600160a01b0390818116908190036100c25733156100aa575f5460018060a01b03199033828216175f55604051933391167f8be0079c531659141344cd1fd0a4f28419497f9722a3daafe3b4186f6b6457e05f80a36001541617600155610f2790816100db8239f35b604051631e4fbdf760e01b81525f6004820152602490fd5b5f80fd5b634e487b7160e01b5f52604160045260245ffdfe60806040526004361015610011575f80fd5b5f3560e01c8063074e58d614610b6f57806322a4e42d14610a625780635de9a137146109f5578063715018a61461099e5780637adbf9731461095b5780638da5cb5b14610934578063967cce2514610479578063a97be93d14610451578063c9778f96146101105763f2fde38b14610087575f80fd5b3461010c57602036600319011261010c576100a0610c1d565b6100a8610c64565b6001600160a01b039081169081156100f4575f54826001600160601b0360a01b8216175f55167f8be0079c531659141344cd1fd0a4f28419497f9722a3daafe3b4186f6b6457e05f80a3005b604051631e4fbdf760e01b81525f6004820152602490fd5b5f80fd5b3461010c5760a036600319011261010c57610129610c1d565b602480356001600160a01b0381811693909184900361010c57606492604480359267ffffffffffffffff9190863583811161010c5761016c903690600401610c33565b9190926084359480861161010c5761018989963690600401610c33565b96909316998a5f5260209960028b5260405f205416610411578685036103d95784156103a957885f805b89811061038057500361033557604051926323b872dd60e01b8b850152338985015230908401528881840152825260a08201908282109082111761032257604052929392610201908a610d41565b875f526002875260405f20926001600160601b0360a01b9233848654161785556001938b8587019182541617905587600286015560055f9501945b818110610271578b8b7f989eaa915cbb416ea3d6f9a63b1a3de51770c7674b11fe21ecdf76b4e1d139108c8c604051908152a3005b61027c818389610c9d565b35610288828587610c9d565b35906040519061029782610cce565b81528b810191825260408101915f835288546801000000000000000081101561030f5780896102c992018b558a610d28565b9290926102fd57916002916102f89594935182555189820155019051151560ff80198354169116179055610c8f565b61023c565b8b634e487b7160e01b5f525f6004525ffd5b8b634e487b7160e01b5f5260416004525ffd5b86634e487b7160e01b5f5260416004525ffd5b89601b60fa1b6084927f5363686564756c6520616d6f756e7473206d75737420657175616c20746f74618660218d6040519662461bcd60e51b88526004880152860152840152820152fd5b915061039b6103a191610394848c8a610c9d565b3590610cc1565b91610c8f565b908a916101b3565b60405162461bcd60e51b8152600481018b9052600d818a01526c4e6f206d696c6573746f6e657360981b81850152fd5b60405162461bcd60e51b8152600481018b90526015818a015274082e4e4c2f240d8cadccee8d040dad2e6dac2e8c6d605b1b81850152fd5b60405162461bcd60e51b8152600481018b9052601d818a01527f416c7265616479206c6f636b656420666f72207468697320746f6b656e00000081850152fd5b3461010c575f36600319011261010c576001546040516001600160a01b039091168152602090f35b3461010c57608036600319011261010c57610492610c1d565b67ffffffffffffffff806064351161010c5736602360643501121561010c57606435600401351161010c573660246064356004013560643501011161010c576001600160a01b038181165f908152600260205260409020805490911633036108fc5760048101549060ff82166108b757600581018054602435101561087e5761051e9060243590610d28565b509160ff6002840154166108465782544210610801576040516001600160601b03198560601b166020820152602435603482015260443560548201526054815261056781610cea565b602081519101207f19457468657265756d205369676e6564204d6573736167653a0a3332000000005f52601c526105ec6105e3603c5f20604051906105bc6020601f19601f6064356004013501160183610d06565b60643560048101358084529060240160208401375f60206064356004013584010152610da6565b90929192610e6e565b6001546001600160a01b039081169116036107bc576050604435106106bc575060409061069f60017f3f2f29fa02cc34566ac167b446be0be9e0254cac18eda93b2dfe6a7a7c8affb9948160ff196002830154161760028201550191825461065960038301918254610cc1565b9055600181015490548354855163a9059cbb60e01b60208201526001600160a01b039283166024820152604480820192909252908152911661069a82610cea565b610d41565b54815190815260443560208201526001600160a01b0390931692a2005b60326044351061072d57505062127500420190814211610719575560408051600e815260443560208201526001600160a01b03909216917fcf40cadcd86c14cb7e696a86578255719f67bc54bf991d45d267ee6e01467c199190a2005b634e487b7160e01b5f52601160045260245ffd5b600491925060019060ff1916179101557fc06d420c02ffa76e3d8e9886af2d015ffc5ec5d9cd458acd9b49e51cf684f15f60806040519260208452603260208501527f437269746963616c206865616c74682073636f72652064726f70202d2044414e60408501527111d154881b5bd919481858dd1a5d985d195960721b606085015260018060a01b031692a2005b60405162461bcd60e51b815260206004820152601860248201527f496e76616c6964206f7261636c65207369676e617475726500000000000000006044820152606490fd5b60405162461bcd60e51b815260206004820152601a60248201527f4d696c6573746f6e652074696d65206e6f7420726561636865640000000000006044820152606490fd5b60405162461bcd60e51b815260206004820152601060248201526f105b1c9958591e481d5b9b1bd8dad95960821b6044820152606490fd5b60405162461bcd60e51b8152602060048201526011602482015270496e76616c6964206d696c6573746f6e6560781b6044820152606490fd5b60405162461bcd60e51b815260206004820152601860248201527f4c6f636b20697320656d657267656e63792066726f7a656e00000000000000006044820152606490fd5b60405162461bcd60e51b815260206004820152601060248201526f2737ba103a3432903232b83637bcb2b960811b6044820152606490fd5b3461010c575f36600319011261010c575f546040516001600160a01b039091168152602090f35b3461010c57602036600319011261010c57610974610c1d565b61097c610c64565b600180546001600160a01b0319166001600160a01b0392909216919091179055005b3461010c575f36600319011261010c576109b6610c64565b5f80546001600160a01b0319811682556001600160a01b03167f8be0079c531659141344cd1fd0a4f28419497f9722a3daafe3b4186f6b6457e08280a3005b3461010c57602036600319011261010c5760a06001600160a01b0380610a19610c1d565b165f52600260205260405f20818154169160018201541690600281015460ff60046003840154930154169260405194855260208501526040840152606083015215156080820152f35b3461010c5760208060031936011261010c576001600160a01b03610a84610c1d565b165f52600290818152600560405f200191825467ffffffffffffffff8111610b5b5760405191610ab9848360051b0184610d06565b8183525f9485528385208484019591865b848410610b2157604080518881528751818a018190528a928201908a5f5b828110610af55784840385f35b855180518552808301518584015260409081015115159085015294810194606090930192600101610ae8565b600387600192604051610b3381610cce565b86548152848701548382015260ff868801541615156040820152815201930193019291610aca565b634e487b7160e01b5f52604160045260245ffd5b3461010c57602036600319011261010c57610b88610c1d565b610b90610c64565b60018060a01b0316805f526002602052600460405f2001600160ff198254161790557fc06d420c02ffa76e3d8e9886af2d015ffc5ec5d9cd458acd9b49e51cf684f15f608060405160208152602860208201527f4d616e75616c20696e74657276656e74696f6e20627920477561726469616e20604082015267706c6174666f726d60c01b6060820152a2005b600435906001600160a01b038216820361010c57565b9181601f8401121561010c5782359167ffffffffffffffff831161010c576020808501948460051b01011161010c57565b5f546001600160a01b03163303610c7757565b60405163118cdaa760e01b8152336004820152602490fd5b5f1981146107195760010190565b9190811015610cad5760051b0190565b634e487b7160e01b5f52603260045260245ffd5b9190820180921161071957565b6060810190811067ffffffffffffffff821117610b5b57604052565b6080810190811067ffffffffffffffff821117610b5b57604052565b90601f8019910116810190811067ffffffffffffffff821117610b5b57604052565b8054821015610cad575f52600360205f20910201905f90565b905f602091828151910182855af115610d9b575f513d610d9257506001600160a01b0381163b155b610d705750565b604051635274afe760e01b81526001600160a01b039091166004820152602490fd5b60011415610d69565b6040513d5f823e3d90fd5b8151919060418303610dd657610dcf9250602082015190606060408401519301515f1a90610de0565b9192909190565b50505f9160029190565b91907f7fffffffffffffffffffffffffffffff5d576e7357a4501ddfe92f46681b20a08411610e6357926020929160ff6080956040519485521684840152604083015260608201525f92839182805260015afa15610e575780516001600160a01b03811615610e4e57918190565b50809160019190565b604051903d90823e3d90fd5b5050505f9160039190565b6004811015610edd5780610e80575050565b60018103610e9a5760405163f645eedf60e01b8152600490fd5b60028103610ebb5760405163fce698f760e01b815260048101839052602490fd5b600314610ec55750565b602490604051906335e2f38360e21b82526004820152fd5b634e487b7160e01b5f52602160045260245ffdfea2646970667358221220da986db811f72b7bae8e204e961f4d4e715f95735030930a191eeeef34052cd064736f6c63430008140033","opcodes":"PUSH1 0x80 CALLVALUE PUSH2 0xC2 JUMPI PUSH1 0x1F PUSH2 0x1002 CODESIZE DUP2 SWAP1 SUB SWAP2 DUP3 ADD PUSH1 0x1F NOT AND DUP4 ADD SWAP2 PUSH1 0x1 PUSH1 0x1 PUSH1 0x40 SHL SUB DUP4 GT DUP5 DUP5 LT OR PUSH2 0xC6 JUMPI DUP1 DUP5 SWAP3 PUSH1 0x20 SWAP5 PUSH1 0x40 MSTORE DUP4 CODECOPY DUP2 ADD SUB SLT PUSH2 0xC2 JUMPI MLOAD PUSH1 0x1 PUSH1 0x1 PUSH1 0xA0 SHL SUB SWAP1 DUP2 DUP2 AND SWAP1 DUP2 SWAP1 SUB PUSH2 0xC2 JUMPI CALLER ISZERO PUSH2 0xAA JUMPI PUSH0 SLOAD PUSH1 0x1 DUP1 PUSH1 0xA0 SHL SUB NOT SWAP1 CALLER DUP3 DUP3 AND OR PUSH0 SSTORE PUSH1 0x40 MLOAD SWAP4 CALLER SWAP2 AND PUSH32 0x8BE0079C531659141344CD1FD0A4F28419497F9722A3DAAFE3B4186F6B6457E0 PUSH0 DUP1 LOG3 PUSH1 0x1 SLOAD AND OR PUSH1 0x1 SSTORE PUSH2 0xF27 SWAP1 DUP2 PUSH2 0xDB DUP3 CODECOPY RETURN JUMPDEST PUSH1 0x40 MLOAD PUSH4 0x1E4FBDF7 PUSH1 0xE0 SHL DUP2 MSTORE PUSH0 PUSH1 0x4 DUP3 ADD MSTORE PUSH1 0x24 SWAP1 REVERT JUMPDEST PUSH0 DUP1 REVERT JUMPDEST PUSH4 0x4E487B71 PUSH1 0xE0 SHL PUSH0 MSTORE PUSH1 0x41 PUSH1 0x4 MSTORE PUSH1 0x24 PUSH0 REVERT INVALID PUSH1 0x80 PUSH1 0x40 MSTORE PUSH1 0x4 CALLDATASIZE LT ISZERO PUSH2 0x11 JUMPI PUSH0 DUP1 REVERT JUMPDEST PUSH0 CALLDATALOAD PUSH1 0xE0 SHR DUP1 PUSH4 0x74E58D6 EQ PUSH2 0xB6F JUMPI DUP1 PUSH4 0x22A4E42D EQ PUSH2 0xA62 JUMPI DUP1 PUSH4 0x5DE9A137 EQ PUSH2 0x9F5 JUMPI DUP1 PUSH4 0x715018A6 EQ PUSH2 0x99E JUMPI DUP1 PUSH4 0x7ADBF973 EQ PUSH2 0x95B JUMPI DUP1 PUSH4 0x8DA5CB5B EQ PUSH2 0x934 JUMPI DUP1 PUSH4 0x967CCE25 EQ PUSH2 0x479 JUMPI DUP1 PUSH4 0xA97BE93D EQ PUSH2 0x451 JUMPI DUP1 PUSH4 0xC9778F96 EQ PUSH2 0x110 JUMPI PUSH4 0xF2FDE38B EQ PUSH2 0x87 JUMPI PUSH0 DUP1 REVERT JUMPDEST CALLVALUE PUSH2 0x10C JUMPI PUSH1 0x20 CALLDATASIZE PUSH1 0x3 NOT ADD SLT PUSH2 0x10C JUMPI PUSH2 0xA0 PUSH2 0xC1D JUMP JUMPDEST PUSH2 0xA8 PUSH2 0xC64 JUMP JUMPDEST PUSH1 0x1 PUSH1 0x1 PUSH1 0xA0 SHL SUB SWAP1 DUP2 AND SWAP1 DUP2 ISZERO PUSH2 0xF4 JUMPI PUSH0 SLOAD DUP3 PUSH1 0x1 PUSH1 0x1 PUSH1 0x60 SHL SUB PUSH1 0xA0 SHL DUP3 AND OR PUSH0 SSTORE AND PUSH32 0x8BE0079C531659141344CD1FD0A4F28419497F9722A3DAAFE3B4186F6B6457E0 PUSH0 DUP1 LOG3 STOP JUMPDEST PUSH1 0x40 MLOAD PUSH4 0x1E4FBDF7 PUSH1 0xE0 SHL DUP2 MSTORE PUSH0 PUSH1 0x4 DUP3 ADD MSTORE PUSH1 0x24 SWAP1 REVERT JUMPDEST PUSH0 DUP1 REVERT JUMPDEST CALLVALUE PUSH2 0x10C JUMPI PUSH1 0xA0 CALLDATASIZE PUSH1 0x3 NOT ADD SLT PUSH2 0x10C JUMPI PUSH2 0x129 PUSH2 0xC1D JUMP JUMPDEST PUSH1 0x24 DUP1 CALLDATALOAD PUSH1 0x1 PUSH1 0x1 PUSH1 0xA0 SHL SUB DUP2 DUP2 AND SWAP4 SWAP1 SWAP2 DUP5 SWAP1 SUB PUSH2 0x10C JUMPI PUSH1 0x64 SWAP3 PUSH1 0x44 DUP1 CALLDATALOAD SWAP3 PUSH8 0xFFFFFFFFFFFFFFFF SWAP2 SWAP1 DUP7 CALLDATALOAD DUP4 DUP2 GT PUSH2 0x10C JUMPI PUSH2 0x16C SWAP1 CALLDATASIZE SWAP1 PUSH1 0x4 ADD PUSH2 0xC33 JUMP JUMPDEST SWAP2 SWAP1 SWAP3 PUSH1 0x84 CALLDATALOAD SWAP5 DUP1 DUP7 GT PUSH2 0x10C JUMPI PUSH2 0x189 DUP10 SWAP7 CALLDATASIZE SWAP1 PUSH1 0x4 ADD PUSH2 0xC33 JUMP JUMPDEST SWAP7 SWAP1 SWAP4 AND SWAP10 DUP11 PUSH0 MSTORE PUSH1 0x20 SWAP10 PUSH1 0x2 DUP12 MSTORE PUSH1 0x40 PUSH0 KECCAK256 SLOAD AND PUSH2 0x411 JUMPI DUP7 DUP6 SUB PUSH2 0x3D9 JUMPI DUP5 ISZERO PUSH2 0x3A9 JUMPI DUP9 PUSH0 DUP1 JUMPDEST DUP10 DUP2 LT PUSH2 0x380 JUMPI POP SUB PUSH2 0x335 JUMPI PUSH1 0x40 MLOAD SWAP3 PUSH4 0x23B872DD PUSH1 0xE0 SHL DUP12 DUP6 ADD MSTORE CALLER DUP10 DUP6 ADD MSTORE ADDRESS SWAP1 DUP5 ADD MSTORE DUP9 DUP2 DUP5 ADD MSTORE DUP3 MSTORE PUSH1 0xA0 DUP3 ADD SWAP1 DUP3 DUP3 LT SWAP1 DUP3 GT OR PUSH2 0x322 JUMPI PUSH1 0x40 MSTORE SWAP3 SWAP4 SWAP3 PUSH2 0x201 SWAP1 DUP11 PUSH2 0xD41 JUMP JUMPDEST DUP8 PUSH0 MSTORE PUSH1 0x2 DUP8 MSTORE PUSH1 0x40 PUSH0 KECCAK256 SWAP3 PUSH1 0x1 PUSH1 0x1 PUSH1 0x60 SHL SUB PUSH1 0xA0 SHL SWAP3 CALLER DUP5 DUP7 SLOAD AND OR DUP6 SSTORE PUSH1 0x1 SWAP4 DUP12 DUP6 DUP8 ADD SWAP2 DUP3 SLOAD AND OR SWAP1 SSTORE DUP8 PUSH1 0x2 DUP7 ADD SSTORE PUSH1 0x5 PUSH0 SWAP6 ADD SWAP5 JUMPDEST DUP2 DUP2 LT PUSH2 0x271 JUMPI DUP12 DUP12 PUSH32 0x989EAA915CBB416EA3D6F9A63B1A3DE51770C7674B11FE21ECDF76B4E1D13910 DUP13 DUP13 PUSH1 0x40 MLOAD SWAP1 DUP2 MSTORE LOG3 STOP JUMPDEST PUSH2 0x27C DUP2 DUP4 DUP10 PUSH2 0xC9D JUMP JUMPDEST CALLDATALOAD PUSH2 0x288 DUP3 DUP6 DUP8 PUSH2 0xC9D JUMP JUMPDEST CALLDATALOAD SWAP1 PUSH1 0x40 MLOAD SWAP1 PUSH2 0x297 DUP3 PUSH2 0xCCE JUMP JUMPDEST DUP2 MSTORE DUP12 DUP2 ADD SWAP2 DUP3 MSTORE PUSH1 0x40 DUP2 ADD SWAP2 PUSH0 DUP4 MSTORE DUP9 SLOAD PUSH9 0x10000000000000000 DUP2 LT ISZERO PUSH2 0x30F JUMPI DUP1 DUP10 PUSH2 0x2C9 SWAP3 ADD DUP12 SSTORE DUP11 PUSH2 0xD28 JUMP JUMPDEST SWAP3 SWAP1 SWAP3 PUSH2 0x2FD JUMPI SWAP2 PUSH1 0x2 SWAP2 PUSH2 0x2F8 SWAP6 SWAP5 SWAP4 MLOAD DUP3 SSTORE MLOAD DUP10 DUP3 ADD SSTORE ADD SWAP1 MLOAD ISZERO ISZERO PUSH1 0xFF DUP1 NOT DUP4 SLOAD AND SWAP2 AND OR SWAP1 SSTORE PUSH2 0xC8F JUMP JUMPDEST PUSH2 0x23C JUMP JUMPDEST DUP12 PUSH4 0x4E487B71 PUSH1 0xE0 SHL PUSH0 MSTORE PUSH0 PUSH1 0x4 MSTORE PUSH0 REVERT JUMPDEST DUP12 PUSH4 0x4E487B71 PUSH1 0xE0 SHL PUSH0 MSTORE PUSH1 0x41 PUSH1 0x4 MSTORE PUSH0 REVERT JUMPDEST DUP7 PUSH4 0x4E487B71 PUSH1 0xE0 SHL PUSH0 MSTORE PUSH1 0x41 PUSH1 0x4 MSTORE PUSH0 REVERT JUMPDEST DUP10 PUSH1 0x1B PUSH1 0xFA SHL PUSH1 0x84 SWAP3 PUSH32 0x5363686564756C6520616D6F756E7473206D75737420657175616C20746F7461 DUP7 PUSH1 0x21 DUP14 PUSH1 0x40 MLOAD SWAP7 PUSH3 0x461BCD PUSH1 0xE5 SHL DUP9 MSTORE PUSH1 0x4 DUP9 ADD MSTORE DUP7 ADD MSTORE DUP5 ADD MSTORE DUP3 ADD MSTORE REVERT JUMPDEST SWAP2 POP PUSH2 0x39B PUSH2 0x3A1 SWAP2 PUSH2 0x394 DUP5 DUP13 DUP11 PUSH2 0xC9D JUMP JUMPDEST CALLDATALOAD SWAP1 PUSH2 0xCC1 JUMP JUMPDEST SWAP2 PUSH2 0xC8F JUMP JUMPDEST SWAP1 DUP11 SWAP2 PUSH2 0x1B3 JUMP JUMPDEST PUSH1 0x40 MLOAD PUSH3 0x461BCD PUSH1 0xE5 SHL DUP2 MSTORE PUSH1 0x4 DUP2 ADD DUP12 SWAP1 MSTORE PUSH1 0xD DUP2 DUP11 ADD MSTORE PUSH13 0x4E6F206D696C6573746F6E6573 PUSH1 0x98 SHL DUP2 DUP6 ADD MSTORE REVERT JUMPDEST PUSH1 0x40 MLOAD PUSH3 0x461BCD PUSH1 0xE5 SHL DUP2 MSTORE PUSH1 0x4 DUP2 ADD DUP12 SWAP1 MSTORE PUSH1 0x15 DUP2 DUP11 ADD MSTORE PUSH21 0x82E4E4C2F240D8CADCCEE8D040DAD2E6DAC2E8C6D PUSH1 0x5B SHL DUP2 DUP6 ADD MSTORE REVERT JUMPDEST PUSH1 0x40 MLOAD PUSH3 0x461BCD PUSH1 0xE5 SHL DUP2 MSTORE PUSH1 0x4 DUP2 ADD DUP12 SWAP1 MSTORE PUSH1 0x1D DUP2 DUP11 ADD MSTORE PUSH32 0x416C7265616479206C6F636B656420666F72207468697320746F6B656E000000 DUP2 DUP6 ADD MSTORE REVERT JUMPDEST CALLVALUE PUSH2 0x10C JUMPI PUSH0 CALLDATASIZE PUSH1 0x3 NOT ADD SLT PUSH2 0x10C JUMPI PUSH1 0x1 SLOAD PUSH1 0x40 MLOAD PUSH1 0x1 PUSH1 0x1 PUSH1 0xA0 SHL SUB SWAP1 SWAP2 AND DUP2 MSTORE PUSH1 0x20 SWAP1 RETURN JUMPDEST CALLVALUE PUSH2 0x10C JUMPI PUSH1 0x80 CALLDATASIZE PUSH1 0x3 NOT ADD SLT PUSH2 0x10C JUMPI PUSH2 0x492 PUSH2 0xC1D JUMP JUMPDEST PUSH8 0xFFFFFFFFFFFFFFFF DUP1 PUSH1 0x64 CALLDATALOAD GT PUSH2 0x10C JUMPI CALLDATASIZE PUSH1 0x23 PUSH1 0x64 CALLDATALOAD ADD SLT ISZERO PUSH2 0x10C JUMPI PUSH1 0x64 CALLDATALOAD PUSH1 0x4 ADD CALLDATALOAD GT PUSH2 0x10C JUMPI CALLDATASIZE PUSH1 0x24 PUSH1 0x64 CALLDATALOAD PUSH1 0x4 ADD CALLDATALOAD PUSH1 0x64 CALLDATALOAD ADD ADD GT PUSH2 0x10C JUMPI PUSH1 0x1 PUSH1 0x1 PUSH1 0xA0 SHL SUB DUP2 DUP2 AND PUSH0 SWAP1 DUP2 MSTORE PUSH1 0x2 PUSH1 0x20 MSTORE PUSH1 0x40 SWAP1 KECCAK256 DUP1 SLOAD SWAP1 SWAP2 AND CALLER SUB PUSH2 0x8FC JUMPI PUSH1 0x4 DUP2 ADD SLOAD SWAP1 PUSH1 0xFF DUP3 AND PUSH2 0x8B7 JUMPI PUSH1 0x5 DUP2 ADD DUP1 SLOAD PUSH1 0x24 CALLDATALOAD LT ISZERO PUSH2 0x87E JUMPI PUSH2 0x51E SWAP1 PUSH1 0x24 CALLDATALOAD SWAP1 PUSH2 0xD28 JUMP JUMPDEST POP SWAP2 PUSH1 0xFF PUSH1 0x2 DUP5 ADD SLOAD AND PUSH2 0x846 JUMPI DUP3 SLOAD TIMESTAMP LT PUSH2 0x801 JUMPI PUSH1 0x40 MLOAD PUSH1 0x1 PUSH1 0x1 PUSH1 0x60 SHL SUB NOT DUP6 PUSH1 0x60 SHL AND PUSH1 0x20 DUP3 ADD MSTORE PUSH1 0x24 CALLDATALOAD PUSH1 0x34 DUP3 ADD MSTORE PUSH1 0x44 CALLDATALOAD PUSH1 0x54 DUP3 ADD MSTORE PUSH1 0x54 DUP2 MSTORE PUSH2 0x567 DUP2 PUSH2 0xCEA JUMP JUMPDEST PUSH1 0x20 DUP2 MLOAD SWAP2 ADD KECCAK256 PUSH32 0x19457468657265756D205369676E6564204D6573736167653A0A333200000000 PUSH0 MSTORE PUSH1 0x1C MSTORE PUSH2 0x5EC PUSH2 0x5E3 PUSH1 0x3C PUSH0 KECCAK256 PUSH1 0x40 MLOAD SWAP1 PUSH2 0x5BC PUSH1 0x20 PUSH1 0x1F NOT PUSH1 0x1F PUSH1 0x64 CALLDATALOAD PUSH1 0x4 ADD CALLDATALOAD ADD AND ADD DUP4 PUSH2 0xD06 JUMP JUMPDEST PUSH1 0x64 CALLDATALOAD PUSH1 0x4 DUP2 ADD CALLDATALOAD DUP1 DUP5 MSTORE SWAP1 PUSH1 0x24 ADD PUSH1 0x20 DUP5 ADD CALLDATACOPY PUSH0 PUSH1 0x20 PUSH1 0x64 CALLDATALOAD PUSH1 0x4 ADD CALLDATALOAD DUP5 ADD ADD MSTORE PUSH2 0xDA6 JUMP JUMPDEST SWAP1 SWAP3 SWAP2 SWAP3 PUSH2 0xE6E JUMP JUMPDEST PUSH1 0x1 SLOAD PUSH1 0x1 PUSH1 0x1 PUSH1 0xA0 SHL SUB SWAP1 DUP2 AND SWAP2 AND SUB PUSH2 0x7BC JUMPI PUSH1 0x50 PUSH1 0x44 CALLDATALOAD LT PUSH2 0x6BC JUMPI POP PUSH1 0x40 SWAP1 PUSH2 0x69F PUSH1 0x1 PUSH32 0x3F2F29FA02CC34566AC167B446BE0BE9E0254CAC18EDA93B2DFE6A7A7C8AFFB9 SWAP5 DUP2 PUSH1 0xFF NOT PUSH1 0x2 DUP4 ADD SLOAD AND OR PUSH1 0x2 DUP3 ADD SSTORE ADD SWAP2 DUP3 SLOAD PUSH2 0x659 PUSH1 0x3 DUP4 ADD SWAP2 DUP3 SLOAD PUSH2 0xCC1 JUMP JUMPDEST SWAP1 SSTORE PUSH1 0x1 DUP2 ADD SLOAD SWAP1 SLOAD DUP4 SLOAD DUP6 MLOAD PUSH4 0xA9059CBB PUSH1 0xE0 SHL PUSH1 0x20 DUP3 ADD MSTORE PUSH1 0x1 PUSH1 0x1 PUSH1 0xA0 SHL SUB SWAP3 DUP4 AND PUSH1 0x24 DUP3 ADD MSTORE PUSH1 0x44 DUP1 DUP3 ADD SWAP3 SWAP1 SWAP3 MSTORE SWAP1 DUP2 MSTORE SWAP2 AND PUSH2 0x69A DUP3 PUSH2 0xCEA JUMP JUMPDEST PUSH2 0xD41 JUMP JUMPDEST SLOAD DUP2 MLOAD SWAP1 DUP2 MSTORE PUSH1 0x44 CALLDATALOAD PUSH1 0x20 DUP3 ADD MSTORE PUSH1 0x1 PUSH1 0x1 PUSH1 0xA0 SHL SUB SWAP1 SWAP4 AND SWAP3 LOG2 STOP JUMPDEST PUSH1 0x32 PUSH1 0x44 CALLDATALOAD LT PUSH2 0x72D JUMPI POP POP PUSH3 0x127500 TIMESTAMP ADD SWAP1 DUP2 TIMESTAMP GT PUSH2 0x719 JUMPI SSTORE PUSH1 0x40 DUP1 MLOAD PUSH1 0xE DUP2 MSTORE PUSH1 0x44 CALLDATALOAD PUSH1 0x20 DUP3 ADD MSTORE PUSH1 0x1 PUSH1 0x1 PUSH1 0xA0 SHL SUB SWAP1 SWAP3 AND SWAP2 PUSH32 0xCF40CADCD86C14CB7E696A86578255719F67BC54BF991D45D267EE6E01467C19 SWAP2 SWAP1 LOG2 STOP JUMPDEST PUSH4 0x4E487B71 PUSH1 0xE0 SHL PUSH0 MSTORE PUSH1 0x11 PUSH1 0x4 MSTORE PUSH1 0x24 PUSH0 REVERT JUMPDEST PUSH1 0x4 SWAP2 SWAP3 POP PUSH1 0x1 SWAP1 PUSH1 0xFF NOT AND OR SWAP2 ADD SSTORE PUSH32 0xC06D420C02FFA76E3D8E9886AF2D015FFC5EC5D9CD458ACD9B49E51CF684F15F PUSH1 0x80 PUSH1 0x40 MLOAD SWAP3 PUSH1 0x20 DUP5 MSTORE PUSH1 0x32 PUSH1 0x20 DUP6 ADD MSTORE PUSH32 0x437269746963616C206865616C74682073636F72652064726F70202D2044414E PUSH1 0x40 DUP6 ADD MSTORE PUSH18 0x11D154881B5BD919481858DD1A5D985D1959 PUSH1 0x72 SHL PUSH1 0x60 DUP6 ADD MSTORE PUSH1 0x1 DUP1 PUSH1 0xA0 SHL SUB AND SWAP3 LOG2 STOP JUMPDEST PUSH1 0x40 MLOAD PUSH3 0x461BCD PUSH1 0xE5 SHL DUP2 MSTORE PUSH1 0x20 PUSH1 0x4 DUP3 ADD MSTORE PUSH1 0x18 PUSH1 0x24 DUP3 ADD MSTORE PUSH32 0x496E76616C6964206F7261636C65207369676E61747572650000000000000000 PUSH1 0x44 DUP3 ADD MSTORE PUSH1 0x64 SWAP1 REVERT JUMPDEST PUSH1 0x40 MLOAD PUSH3 0x461BCD PUSH1 0xE5 SHL DUP2 MSTORE PUSH1 0x20 PUSH1 0x4 DUP3 ADD MSTORE PUSH1 0x1A PUSH1 0x24 DUP3 ADD MSTORE PUSH32 0x4D696C6573746F6E652074696D65206E6F742072656163686564000000000000 PUSH1 0x44 DUP3 ADD MSTORE PUSH1 0x64 SWAP1 REVERT JUMPDEST PUSH1 0x40 MLOAD PUSH3 0x461BCD PUSH1 0xE5 SHL DUP2 MSTORE PUSH1 0x20 PUSH1 0x4 DUP3 ADD MSTORE PUSH1 0x10 PUSH1 0x24 DUP3 ADD MSTORE PUSH16 0x105B1C9958591E481D5B9B1BD8DAD959 PUSH1 0x82 SHL PUSH1 0x44 DUP3 ADD MSTORE PUSH1 0x64 SWAP1 REVERT JUMPDEST PUSH1 0x40 MLOAD PUSH3 0x461BCD PUSH1 0xE5 SHL DUP2 MSTORE PUSH1 0x20 PUSH1 0x4 DUP3 ADD MSTORE PUSH1 0x11 PUSH1 0x24 DUP3 ADD MSTORE PUSH17 0x496E76616C6964206D696C6573746F6E65 PUSH1 0x78 SHL PUSH1 0x44 DUP3 ADD MSTORE PUSH1 0x64 SWAP1 REVERT JUMPDEST PUSH1 0x40 MLOAD PUSH3 0x461BCD PUSH1 0xE5 SHL DUP2 MSTORE PUSH1 0x20 PUSH1 0x4 DUP3 ADD MSTORE PUSH1 0x18 PUSH1 0x24 DUP3 ADD MSTORE PUSH32 0x4C6F636B20697320656D657267656E63792066726F7A656E0000000000000000 PUSH1 0x44 DUP3 ADD MSTORE PUSH1 0x64 SWAP1 REVERT JUMPDEST PUSH1 0x40 MLOAD PUSH3 0x461BCD PUSH1 0xE5 SHL DUP2 MSTORE PUSH1 0x20 PUSH1 0x4 DUP3 ADD MSTORE PUSH1 0x10 PUSH1 0x24 DUP3 ADD MSTORE PUSH16 0x2737BA103A3432903232B83637BCB2B9 PUSH1 0x81 SHL PUSH1 0x44 DUP3 ADD MSTORE PUSH1 0x64 SWAP1 REVERT JUMPDEST CALLVALUE PUSH2 0x10C JUMPI PUSH0 CALLDATASIZE PUSH1 0x3 NOT ADD SLT PUSH2 0x10C JUMPI PUSH0 SLOAD PUSH1 0x40 MLOAD PUSH1 0x1 PUSH1 0x1 PUSH1 0xA0 SHL SUB SWAP1 SWAP2 AND DUP2 MSTORE PUSH1 0x20 SWAP1 RETURN JUMPDEST CALLVALUE PUSH2 0x10C JUMPI PUSH1 0x20 CALLDATASIZE PUSH1 0x3 NOT ADD SLT PUSH2 0x10C JUMPI PUSH2 0x974 PUSH2 0xC1D JUMP JUMPDEST PUSH2 0x97C PUSH2 0xC64 JUMP JUMPDEST PUSH1 0x1 DUP1 SLOAD PUSH1 0x1 PUSH1 0x1 PUSH1 0xA0 SHL SUB NOT AND PUSH1 0x1 PUSH1 0x1 PUSH1 0xA0 SHL SUB SWAP3 SWAP1 SWAP3 AND SWAP2 SWAP1 SWAP2 OR SWAP1 SSTORE STOP JUMPDEST CALLVALUE PUSH2 0x10C JUMPI PUSH0 CALLDATASIZE PUSH1 0x3 NOT ADD SLT PUSH2 0x10C JUMPI PUSH2 0x9B6 PUSH2 0xC64 JUMP JUMPDEST PUSH0 DUP1 SLOAD PUSH1 0x1 PUSH1 0x1 PUSH1 0xA0 SHL SUB NOT DUP2 AND DUP3 SSTORE PUSH1 0x1 PUSH1 0x1 PUSH1 0xA0 SHL SUB AND PUSH32 0x8BE0079C531659141344CD1FD0A4F28419497F9722A3DAAFE3B4186F6B6457E0 DUP3 DUP1 LOG3 STOP JUMPDEST CALLVALUE PUSH2 0x10C JUMPI PUSH1 0x20 CALLDATASIZE PUSH1 0x3 NOT ADD SLT PUSH2 0x10C JUMPI PUSH1 0xA0 PUSH1 0x1 PUSH1 0x1 PUSH1 0xA0 SHL SUB DUP1 PUSH2 0xA19 PUSH2 0xC1D JUMP JUMPDEST AND PUSH0 MSTORE PUSH1 0x2 PUSH1 0x20 MSTORE PUSH1 0x40 PUSH0 KECCAK256 DUP2 DUP2 SLOAD AND SWAP2 PUSH1 0x1 DUP3 ADD SLOAD AND SWAP1 PUSH1 0x2 DUP2 ADD SLOAD PUSH1 0xFF PUSH1 0x4 PUSH1 0x3 DUP5 ADD SLOAD SWAP4 ADD SLOAD AND SWAP3 PUSH1 0x40 MLOAD SWAP5 DUP6 MSTORE PUSH1 0x20 DUP6 ADD MSTORE PUSH1 0x40 DUP5 ADD MSTORE PUSH1 0x60 DUP4 ADD MSTORE ISZERO ISZERO PUSH1 0x80 DUP3 ADD MSTORE RETURN JUMPDEST CALLVALUE PUSH2 0x10C JUMPI PUSH1 0x20 DUP1 PUSH1 0x3 NOT CALLDATASIZE ADD SLT PUSH2 0x10C JUMPI PUSH1 0x1 PUSH1 0x1 PUSH1 0xA0 SHL SUB PUSH2 0xA84 PUSH2 0xC1D JUMP JUMPDEST AND PUSH0 MSTORE PUSH1 0x2 SWAP1 DUP2 DUP2 MSTORE PUSH1 0x5 PUSH1 0x40 PUSH0 KECCAK256 ADD SWAP2 DUP3 SLOAD PUSH8 0xFFFFFFFFFFFFFFFF DUP2 GT PUSH2 0xB5B JUMPI PUSH1 0x40 MLOAD SWAP2 PUSH2 0xAB9 DUP5 DUP4 PUSH1 0x5 SHL ADD DUP5 PUSH2 0xD06 JUMP JUMPDEST DUP2 DUP4 MSTORE PUSH0 SWAP5 DUP6 MSTORE DUP4 DUP6 KECCAK256 DUP5 DUP5 ADD SWAP6 SWAP2 DUP7 JUMPDEST DUP5 DUP5 LT PUSH2 0xB21 JUMPI PUSH1 0x40 DUP1 MLOAD DUP9 DUP2 MSTORE DUP8 MLOAD DUP2 DUP11 ADD DUP2 SWAP1 MSTORE DUP11 SWAP3 DUP3 ADD SWAP1 DUP11 PUSH0 JUMPDEST DUP3 DUP2 LT PUSH2 0xAF5 JUMPI DUP5 DUP5 SUB DUP6 RETURN JUMPDEST DUP6 MLOAD DUP1 MLOAD DUP6 MSTORE DUP1 DUP4 ADD MLOAD DUP6 DUP5 ADD MSTORE PUSH1 0x40 SWAP1 DUP2 ADD MLOAD ISZERO ISZERO SWAP1 DUP6 ADD MSTORE SWAP5 DUP2 ADD SWAP5 PUSH1 0x60 SWAP1 SWAP4 ADD SWAP3 PUSH1 0x1 ADD PUSH2 0xAE8 JUMP JUMPDEST PUSH1 0x3 DUP8 PUSH1 0x1 SWAP3 PUSH1 0x40 MLOAD PUSH2 0xB33 DUP2 PUSH2 0xCCE JUMP JUMPDEST DUP7 SLOAD DUP2 MSTORE DUP5 DUP8 ADD SLOAD DUP4 DUP3 ADD MSTORE PUSH1 0xFF DUP7 DUP9 ADD SLOAD AND ISZERO ISZERO PUSH1 0x40 DUP3 ADD MSTORE DUP2 MSTORE ADD SWAP4 ADD SWAP4 ADD SWAP3 SWAP2 PUSH2 0xACA JUMP JUMPDEST PUSH4 0x4E487B71 PUSH1 0xE0 SHL PUSH0 MSTORE PUSH1 0x41 PUSH1 0x4 MSTORE PUSH1 0x24 PUSH0 REVERT JUMPDEST CALLVALUE PUSH2 0x10C JUMPI PUSH1 0x20 CALLDATASIZE PUSH1 0x3 NOT ADD SLT PUSH2 0x10C JUMPI PUSH2 0xB88 PUSH2 0xC1D JUMP JUMPDEST PUSH2 0xB90 PUSH2 0xC64 JUMP JUMPDEST PUSH1 0x1 DUP1 PUSH1 0xA0 SHL SUB AND DUP1 PUSH0 MSTORE PUSH1 0x2 PUSH1 0x20 MSTORE PUSH1 0x4 PUSH1 0x40 PUSH0 KECCAK256 ADD PUSH1 0x1 PUSH1 0xFF NOT DUP3 SLOAD AND OR SWAP1 SSTORE PUSH32 0xC06D420C02FFA76E3D8E9886AF2D015FFC5EC5D9CD458ACD9B49E51CF684F15F PUSH1 0x80 PUSH1 0x40 MLOAD PUSH1 0x20 DUP2 MSTORE PUSH1 0x28 PUSH1 0x20 DUP3 ADD MSTORE PUSH32 0x4D616E75616C20696E74657276656E74696F6E20627920477561726469616E20 PUSH1 0x40 DUP3 ADD MSTORE PUSH8 0x706C6174666F726D PUSH1 0xC0 SHL PUSH1 0x60 DUP3 ADD MSTORE LOG2 STOP JUMPDEST PUSH1 0x4 CALLDATALOAD SWAP1 PUSH1 0x1 PUSH1 0x1 PUSH1 0xA0 SHL SUB DUP3 AND DUP3 SUB PUSH2 0x10C JUMPI JUMP JUMPDEST SWAP2 DUP2 PUSH1 0x1F DUP5 ADD SLT ISZERO PUSH2 0x10C JUMPI DUP3 CALLDATALOAD SWAP2 PUSH8 0xFFFFFFFFFFFFFFFF DUP4 GT PUSH2 0x10C JUMPI PUSH1 0x20 DUP1 DUP6 ADD SWAP5 DUP5 PUSH1 0x5 SHL ADD ADD GT PUSH2 0x10C JUMPI JUMP JUMPDEST PUSH0 SLOAD PUSH1 0x1 PUSH1 0x1 PUSH1 0xA0 SHL SUB AND CALLER SUB PUSH2 0xC77 JUMPI JUMP JUMPDEST PUSH1 0x40 MLOAD PUSH4 0x118CDAA7 PUSH1 0xE0 SHL DUP2 MSTORE CALLER PUSH1 0x4 DUP3 ADD MSTORE PUSH1 0x24 SWAP1 REVERT JUMPDEST PUSH0 NOT DUP2 EQ PUSH2 0x719 JUMPI PUSH1 0x1 ADD SWAP1 JUMP JUMPDEST SWAP2 SWAP1 DUP2 LT ISZERO PUSH2 0xCAD JUMPI PUSH1 0x5 SHL ADD SWAP1 JUMP JUMPDEST PUSH4 0x4E487B71 PUSH1 0xE0 SHL PUSH0 MSTORE PUSH1 0x32 PUSH1 0x4 MSTORE PUSH1 0x24 PUSH0 REVERT JUMPDEST SWAP2 SWAP1 DUP3 ADD DUP1 SWAP3 GT PUSH2 0x719 JUMPI JUMP JUMPDEST PUSH1 0x60 DUP2 ADD SWAP1 DUP2 LT PUSH8 0xFFFFFFFFFFFFFFFF DUP3 GT OR PUSH2 0xB5B JUMPI PUSH1 0x40 MSTORE JUMP JUMPDEST PUSH1 0x80 DUP2 ADD SWAP1 DUP2 LT PUSH8 0xFFFFFFFFFFFFFFFF DUP3 GT OR PUSH2 0xB5B JUMPI PUSH1 0x40 MSTORE JUMP JUMPDEST SWAP1 PUSH1 0x1F DUP1 NOT SWAP2 ADD AND DUP2 ADD SWAP1 DUP2 LT PUSH8 0xFFFFFFFFFFFFFFFF DUP3 GT OR PUSH2 0xB5B JUMPI PUSH1 0x40 MSTORE JUMP JUMPDEST DUP1 SLOAD DUP3 LT ISZERO PUSH2 0xCAD JUMPI PUSH0 MSTORE PUSH1 0x3 PUSH1 0x20 PUSH0 KECCAK256 SWAP2 MUL ADD SWAP1 PUSH0 SWAP1 JUMP JUMPDEST SWAP1 PUSH0 PUSH1 0x20 SWAP2 DUP3 DUP2 MLOAD SWAP2 ADD DUP3 DUP6 GAS CALL ISZERO PUSH2 0xD9B JUMPI PUSH0 MLOAD RETURNDATASIZE PUSH2 0xD92 JUMPI POP PUSH1 0x1 PUSH1 0x1 PUSH1 0xA0 SHL SUB DUP2 AND EXTCODESIZE ISZERO JUMPDEST PUSH2 0xD70 JUMPI POP JUMP JUMPDEST PUSH1 0x40 MLOAD PUSH4 0x5274AFE7 PUSH1 0xE0 SHL DUP2 MSTORE PUSH1 0x1 PUSH1 0x1 PUSH1 0xA0 SHL SUB SWAP1 SWAP2 AND PUSH1 0x4 DUP3 ADD MSTORE PUSH1 0x24 SWAP1 REVERT JUMPDEST PUSH1 0x1 EQ ISZERO PUSH2 0xD69 JUMP JUMPDEST PUSH1 0x40 MLOAD RETURNDATASIZE PUSH0 DUP3 RETURNDATACOPY RETURNDATASIZE SWAP1 REVERT JUMPDEST DUP2 MLOAD SWAP2 SWAP1 PUSH1 0x41 DUP4 SUB PUSH2 0xDD6 JUMPI PUSH2 0xDCF SWAP3 POP PUSH1 0x20 DUP3 ADD MLOAD SWAP1 PUSH1 0x60 PUSH1 0x40 DUP5 ADD MLOAD SWAP4 ADD MLOAD PUSH0 BYTE SWAP1 PUSH2 0xDE0 JUMP JUMPDEST SWAP2 SWAP3 SWAP1 SWAP2 SWAP1 JUMP JUMPDEST POP POP PUSH0 SWAP2 PUSH1 0x2 SWAP2 SWAP1 JUMP JUMPDEST SWAP2 SWAP1 PUSH32 0x7FFFFFFFFFFFFFFFFFFFFFFFFFFFFFFF5D576E7357A4501DDFE92F46681B20A0 DUP5 GT PUSH2 0xE63 JUMPI SWAP3 PUSH1 0x20 SWAP3 SWAP2 PUSH1 0xFF PUSH1 0x80 SWAP6 PUSH1 0x40 MLOAD SWAP5 DUP6 MSTORE AND DUP5 DUP5 ADD MSTORE PUSH1 0x40 DUP4 ADD MSTORE PUSH1 0x60 DUP3 ADD MSTORE PUSH0 SWAP3 DUP4 SWAP2 DUP3 DUP1 MSTORE PUSH1 0x1 GAS STATICCALL ISZERO PUSH2 0xE57 JUMPI DUP1 MLOAD PUSH1 0x1 PUSH1 0x1 PUSH1 0xA0 SHL SUB DUP2 AND ISZERO PUSH2 0xE4E JUMPI SWAP2 DUP2 SWAP1 JUMP JUMPDEST POP DUP1 SWAP2 PUSH1 0x1 SWAP2 SWAP1 JUMP JUMPDEST PUSH1 0x40 MLOAD SWAP1 RETURNDATASIZE SWAP1 DUP3 RETURNDATACOPY RETURNDATASIZE SWAP1 REVERT JUMPDEST POP POP POP PUSH0 SWAP2 PUSH1 0x3 SWAP2 SWAP1 JUMP JUMPDEST PUSH1 0x4 DUP2 LT ISZERO PUSH2 0xEDD JUMPI DUP1 PUSH2 0xE80 JUMPI POP POP JUMP JUMPDEST PUSH1 0x1 DUP2 SUB PUSH2 0xE9A JUMPI PUSH1 0x40 MLOAD PUSH4 0xF645EEDF PUSH1 0xE0 SHL DUP2 MSTORE PUSH1 0x4 SWAP1 REVERT JUMPDEST PUSH1 0x2 DUP2 SUB PUSH2 0xEBB JUMPI PUSH1 0x40 MLOAD PUSH4 0xFCE698F7 PUSH1 0xE0 SHL DUP2 MSTORE PUSH1 0x4 DUP2 ADD DUP4 SWAP1 MSTORE PUSH1 0x24 SWAP1 REVERT JUMPDEST PUSH1 0x3 EQ PUSH2 0xEC5 JUMPI POP JUMP JUMPDEST PUSH1 0x24 SWAP1 PUSH1 0x40 MLOAD SWAP1 PUSH4 0x35E2F383 PUSH1 0xE2 SHL DUP3 MSTORE PUSH1 0x4 DUP3 ADD MSTORE REVERT JUMPDEST PUSH4 0x4E487B71 PUSH1 0xE0 SHL PUSH0 MSTORE PUSH1 0x21 PUSH1 0x4 MSTORE PUSH1 0x24 PUSH0 REVERT INVALID LOG2 PUSH5 0x6970667358 0x22 SLT KECCAK256 0xDA SWAP9 PUSH14 0xB811F72B7BAE8E204E961F4D4E71 PUSH0 SWAP6 PUSH20 0x5030930A191EEEEF34052CD064736F6C63430008 EQ STOP CALLER "},"methodIdentifiers":{"emergencyFreeze(address)":"074e58d6","getMilestones(address)":"22a4e42d","guardianOracle()":"a97be93d","lockLP(address,address,uint256,uint256[],uint256[])":"c9778f96","locks(address)":"5de9a137","owner()":"8da5cb5b","processUnlock(address,uint256,uint256,bytes)":"967cce25","renounceOwnership()":"715018a6","setOracle(address)":"7adbf973","transferOwnership(address)":"f2fde38b"}}}}}