{"project/contracts/GuardianFactory.sol":{"GuardianFactory":{"abi":[{"anonymous":false,"inputs":[{"indexed":true,"internalType":"address","name":"tokenAddress","type":"address"},{"indexed":true,"internalType":"address","name":"creator","type":"address"},{"indexed":false,"internalType":"string","name":"name","type":"string"},{"indexed":false,"internalType":"string","name":"symbol","type":"string"},{"indexed":false,"internalType":"uint256","name":"totalSupply","type":"uint256"},{"indexed":false,"internalType":"uint256","name":"maxWalletPct","type":"uint256"},{"indexed":false,"internalType":"uint256","name":"antiBotBlocks","type":"uint256"},{"indexed":false,"internalType":"uint256","name":"buyTaxBps","type":"uint256"},{"indexed":false,"internalType":"uint256","name":"sellTaxBps","type":"uint256"},{"indexed":false,"internalType":"uint256","name":"cooldownSec","type":"uint256"}],"name":"TokenCreated","type":"event"},{"inputs":[{"internalType":"uint256","name":"","type":"uint256"}],"name":"allTokens","outputs":[{"internalType":"address","name":"tokenAddress","type":"address"},{"internalType":"address","name":"creator","type":"address"},{"internalType":"string","name":"name","type":"string"},{"internalType":"string","name":"symbol","type":"string"},{"internalType":"uint256","name":"totalSupply","type":"uint256"},{"internalType":"uint256","name":"createdAt","type":"uint256"}],"stateMutability":"view","type":"function"},{"inputs":[{"internalType":"string","name":"name_","type":"string"},{"internalType":"string","name":"symbol_","type":"string"},{"internalType":"uint256","name":"totalSupply_","type":"uint256"},{"internalType":"uint256","name":"maxWalletPct_","type":"uint256"},{"internalType":"uint256","name":"antiBotBlocks_","type":"uint256"},{"internalType":"uint256","name":"buyTaxBps_","type":"uint256"},{"internalType":"uint256","name":"sellTaxBps_","type":"uint256"},{"internalType":"uint256","name":"cooldownSec_","type":"uint256"},{"internalType":"address","name":"taxReceiver_","type":"address"}],"name":"createGuardianToken","outputs":[{"internalType":"address","name":"tokenAddress","type":"address"}],"stateMutability":"nonpayable","type":"function"},{"inputs":[{"internalType":"address","name":"","type":"address"},{"internalType":"uint256","name":"","type":"uint256"}],"name":"creatorTokens","outputs":[{"internalType":"address","name":"tokenAddress","type":"address"},{"internalType":"address","name":"creator","type":"address"},{"internalType":"string","name":"name","type":"string"},{"internalType":"string","name":"symbol","type":"string"},{"internalType":"uint256","name":"totalSupply","type":"uint256"},{"internalType":"uint256","name":"createdAt","type":"uint256"}],"stateMutability":"view","type":"function"},{"inputs":[{"internalType":"address","name":"creator","type":"address"}],"name":"getTokensByCreator","outputs":[{"components":[{"internalType":"address","name":"tokenAddress","type":"address"},{"internalType":"address","name":"creator","type":"address"},{"internalType":"string","name":"name","type":"string"},{"internalType":"string","name":"symbol","type":"string"},{"internalType":"uint256","name":"totalSupply","type":"uint256"},{"internalType":"uint256","name":"createdAt","type":"uint256"}],"internalType":"struct GuardianFactory.TokenRecord[]","name":"","type":"tuple[]"}],"stateMutability":"view","type":"function"},{"inputs":[{"internalType":"uint256","name":"offset","type":"uint256"},{"internalType":"uint256","name":"limit","type":"uint256"}],"name":"getTokensPaginated","outputs":[{"components":[{"internalType":"address","name":"tokenAddress","type":"address"},{"internalType":"address","name":"creator","type":"address"},{"internalType":"string","name":"name","type":"string"},{"internalType":"string","name":"symbol","type":"string"},{"internalType":"uint256","name":"totalSupply","type":"uint256"},{"internalType":"uint256","name":"createdAt","type":"uint256"}],"internalType":"struct GuardianFactory.TokenRecord[]","name":"tokens","type":"tuple[]"}],"stateMutability":"view","type":"function"},{"inputs":[],"name":"totalTokens","outputs":[{"internalType":"uint256","name":"","type":"uint256"}],"stateMutability":"view","type":"function"}],"evm":{"bytecode":{"linkReferences":{},"object":"6080806040523461001657612752908161001b8239f35b5f80fdfe6080604052600436101562000012575f80fd5b5f803560e01c80633506cef814620002485780634238b6921462000213578063634282af14620001b95780637e1c0c09146200019a578063d5c7127514620001035763db3fa4cc1462000063575f80fd5b346200010057604036600319011262000100576200008062000b18565b6001600160a01b03908116825260016020526040822080546024359190821015620000fc5790620000b19162000c75565b5090620000f8818354169160018401541692620000d16002820162000d1c565b90620000e06003820162000d1c565b60056004830154920154926040519687968762000dc9565b0390f35b8380fd5b80fd5b503462000100576020908160031936011262000100576001600160a01b036200012b62000b18565b16815260019182815260408220805491620001468362000e81565b9362000156604051958662000cfa565b8385529182528082208185015b8484106200017b5760405180620000f8888262000b6f565b60068388926200018b8562000e99565b81520192019301929062000163565b5034620001005780600319360112620001005760209054604051908152f35b503462000100576020366003190112620001005760043581548110156200020f57620001e59062000c27565b50805460018201546001600160a01b0390811692911690620000f890620000d16002820162000d1c565b5080fd5b5034620001005760403660031901126200010057620000f86200023b60243560043562000f33565b6040519182918262000b6f565b50346200010057610120908160031936011262000100576004356001600160401b0381116200020f576200028190369060040162000ae4565b906024356001600160401b038111620000fc57620002a490369060040162000ae4565b909490919061010435906001600160a01b038216820362000ae05761168690608082608001106001600160401b0383608001111762000acc5762000318620003046101009284620010976080398085608001528460800101888762000e18565b607f198482030160a0850152868a62000e18565b60443560c084015260643560e084015260843561010084015260a43561012084015260c43561014084015260e4356101608401526001600160a01b039093169101608090810191909152607f199091019085f0801562000ac1576001600160a01b031693843b15620001005760405163f2fde38b60e01b81523360048201528181602481838a5af1801562000ab65762000a89575b5060405190620003bd8262000cde565b858252336020830152620003d336868562000e38565b6040830152620003e536858962000e38565b606083015260443560808301524260a08301525f54600160401b811015620007f6578060016200041892015f5562000c27565b620008db57825181546001600160a01b039182166001600160a01b0319918216178355602085015160018401805491909316911617905560408301518051906001600160401b038211620007f657819062000477600285015462000ca3565b601f811162000a34575b50602090601f8311600114620009c4575f92620009b8575b50508160011b915f199060031b1c19161760028201555b60608301518051906001600160401b038211620007f657620004d6600384015462000ca3565b601f81116200096f575b50602090601f8311600114620008fa576040949392915f9183620008ee575b50508160011b915f199060031b1c19161760038201555b60808401516004820155600560a08501519101553381526001602052208054600160401b811015620007f657620005539160018201815562000c75565b919091620008db57805182546001600160a01b039182166001600160a01b0319918216178455602083015160018501805491909316911617905560408101518051906001600160401b038211620007f6578190620005b5600286015462000ca3565b601f811162000886575b50602090601f831160011462000816575f926200080a575b50508160011b915f199060031b1c19161760028301555b60608101518051906001600160401b038211620007f65762000614600385015462000ca3565b601f8111620007ad575b50918795939160209995938a90601f8311600114620007095760a0620006b094847f731d2dc99343119d4b83780c8b482ea13b7cc8a6e76ad60c42684e6d19a267459a9895620006be9a98956005955f92620006fd575b50508160011b915f199060031b1c19161760038501555b60808101516004850155015191015560405197610100895261010089019162000e18565b918683038988015262000e18565b9260443560408201526064356060820152608435608082015260a43560a082015260c43560c082015260e43560e08201528033940390a3604051908152f35b015190505f8062000675565b90600385015f528b5f20915f5b601f1985168110620007925750620006b094600185620006be9a989560059560a0957f731d2dc99343119d4b83780c8b482ea13b7cc8a6e76ad60c42684e6d19a267459e9c99601f1981161062000779575b505050811b0160038501556200068c565b01515f1960f88460031b161c191690555f808062000768565b8183015184558c9a50600190930192918d01918d0162000716565b600385015f5260205f20601f840160051c810160208510620007ee575b601f830160051c82018110620007e25750506200061e565b5f8155600101620007ca565b5080620007ca565b634e487b7160e01b5f52604160045260245ffd5b015190505f80620005d7565b600286015f908152602081209350601f198516905b8181106200086d575090846001959493921062000854575b505050811b016002830155620005ee565b01515f1960f88460031b161c191690555f808062000843565b929360206001819287860151815501950193016200082b565b909150600285015f5260205f20601f840160051c810160208510620008d3575b90849392915b601f830160051c82018110620008c4575050620005bf565b5f8155859450600101620008ac565b5080620008a6565b634e487b7160e01b5f525f60045260245ffd5b015190505f80620004ff565b90600384015f5260205f20915f5b601f19851681106200095657509183916001936040979695601f198116106200093d575b505050811b01600382015562000516565b01515f1960f88460031b161c191690555f80806200092c565b9192602060018192868501518155019401920162000908565b600384015f5260205f20601f840160051c810160208510620009b0575b601f830160051c82018110620009a4575050620004e0565b5f81556001016200098c565b50806200098c565b015190505f8062000499565b600285015f908152602081209350601f198516905b81811062000a1b575090846001959493921062000a02575b505050811b016002820155620004b0565b01515f1960f88460031b161c191690555f8080620009f1565b92936020600181928786015181550195019301620009d9565b909150600284015f5260205f20601f840160051c81016020851062000a81575b90849392915b601f830160051c8201811062000a7257505062000481565b5f815585945060010162000a5a565b508062000a54565b6001600160401b03811162000aa2576040525f620003ad565b634e487b7160e01b82526041600452602482fd5b6040513d84823e3d90fd5b6040513d86823e3d90fd5b634e487b7160e01b87526041600452602487fd5b8580fd5b9181601f8401121562000b14578235916001600160401b03831162000b14576020838186019501011162000b1457565b5f80fd5b600435906001600160a01b038216820362000b1457565b91908251928382525f5b84811062000b5a575050825f602080949584010152601f8019910116010190565b60208183018101518483018201520162000b39565b602080820190808352835180925260409283810182858560051b8401019601945f925b85841062000ba4575050505050505090565b909192939495968580600192603f198582030187528a5190848060a01b0380835116825283830151168382015262000c0162000bed8884015160c0808b86015284019062000b2f565b606080850151908483039085015262000b2f565b916080808201519083015260a08091015191015299019401940192959493919062000b92565b905f91825481101562000c6157600690838052027f290decd9548b62a8d60345a988386fc84ba6bc95484008f6362f93160ef3e563019190565b634e487b7160e01b83526032600452602483fd5b805482101562000c8f575f52600660205f20910201905f90565b634e487b7160e01b5f52603260045260245ffd5b90600182811c9216801562000cd3575b602083101462000cbf57565b634e487b7160e01b5f52602260045260245ffd5b91607f169162000cb3565b60c081019081106001600160401b03821117620007f657604052565b90601f801991011681019081106001600160401b03821117620007f657604052565b9060405191825f82549262000d318462000ca3565b9081845260019485811690815f1462000da4575060011462000d60575b505062000d5e9250038362000cfa565b565b909391505f52602090815f20935f915b81831062000d8b57505062000d5e93508201015f8062000d4e565b8554888401850152948501948794509183019162000d70565b91505062000d5e94506020925060ff191682840152151560051b8201015f8062000d4e565b9262000dff9060a0959262000e0e9499989799600180891b03809216875216602086015260c0604086015260c085019062000b2f565b90838203606085015262000b2f565b9460808201520152565b908060209392818452848401375f828201840152601f01601f1916010190565b9291926001600160401b038211620007f6576040519162000e64601f8201601f19166020018462000cfa565b82948184528183011162000b14578281602093845f960137010152565b6001600160401b038111620007f65760051b60200190565b9060405162000ea88162000cde565b60a060058294600180841b03808254168552600182015416602085015262000ed36002820162000d1c565b604085015262000ee66003820162000d1c565b6060850152600481015460808501520154910152565b9190820391821162000f0a57565b634e487b7160e01b5f52601160045260245ffd5b805182101562000c8f5760209160051b010190565b91905f805491828510156200106e578401918285116200105a5780831162001051575b5062000f63848362000efc565b9362000f6f8562000e81565b9460409062000f818251978862000cfa565b80875262000f92601f199162000e81565b0190835b828110620010155750505084815b84811062000fb3575050505050565b62000fee62000fc28262000c27565b5062000fda62000fd3868562000efc565b9162000e99565b62000fe6828662000f1e565b528362000f1e565b505f198114620010015760010162000fa4565b634e487b7160e01b84526011600452602484fd5b6020908251620010258162000cde565b86815282878183015260608086840152808301528760808301528760a0830152828b0101520162000f96565b91505f62000f56565b634e487b7160e01b82526011600452602482fd5b509192505060405190602082018281106001600160401b0382111762000aa25760405281529056fe604060c0815234620006765762001686803803806200001e816200067a565b928339810161012082820312620006765781516001600160401b0381116200067657816200004e918401620006a0565b602083015190916001600160401b038211620006765762000071918401620006a0565b90838301519260608101519260808201519360a08301519060c08401519261010060e08601519501519560018060a01b038716870362000676578051906001600160401b0382116200054e5760035490600182811c921680156200066b575b60208310146200052f5781601f849311620005fb575b50602090601f83116001146200056e575f9262000562575b50508160011b915f199060031b1c1916176003555b8051906001600160401b0382116200054e5760045490600182811c9216801562000543575b60208310146200052f5781601f849311620004bc575b50602090601f83116001146200042f575f9262000423575b50508160011b915f199060031b1c1916176004555b33156200040c5760058054336001600160a01b031980831682179093558a51929892916001600160a01b03167f8be0079c531659141344cd1fd0a4f28419497f9722a3daafe3b4186f6b6457e05f80a360018310158062000400575b15620003be57506103e88084116200038a57841162000355576001600160a01b038616156200031157670de0b6b3a764000080890298808a04821481151715620002fd57830202918883041488151715620002fd5760646200023e92046080524362000710565b60a05260085560095560065560018060a01b031690600a541617600a55335f52600b602052815f2060ff1990600182825416179055305f526001835f2091825416179055620002908160025462000710565b600255335f525f602052815f2081815401905581519081525f7fddf252ad1be2c89b69c2b068fc378daa952ba7f163c4a11628f55a4df523b3ef60203393a351610f6790816200071f823960805181818161040a0152610d45015260a0518181816105960152610bb50152f35b634e487b7160e01b5f52601160045260245ffd5b885162461bcd60e51b815260206004820152601460248201527f496e76616c6964207461782072656365697665720000000000000000000000006044820152606490fd5b885162461bcd60e51b815260206004820152600e60248201526d53656c6c20746178203e2031302560901b6044820152606490fd5b895162461bcd60e51b815260206004820152600d60248201526c42757920746178203e2031302560981b6044820152606490fd5b62461bcd60e51b815260206004820152601460248201527f496e76616c6964206d61782077616c6c657420250000000000000000000000006044820152606490fd5b506064831115620001d7565b8751631e4fbdf760e01b81525f6004820152602490fd5b015190505f8062000166565b60045f90815293507f8a35acfbc15ff81a39ae7d344fd709f28e8600b4aa8c65c6b64bfe7fe36bd19b91905b601f1984168510620004a0576001945083601f1981161062000487575b505050811b016004556200017b565b01515f1960f88460031b161c191690555f808062000478565b818101518355602094850194600190930192909101906200045b565b60045f529091507f8a35acfbc15ff81a39ae7d344fd709f28e8600b4aa8c65c6b64bfe7fe36bd19b601f840160051c8101916020851062000524575b90601f859493920160051c01905b8181106200051557506200014e565b5f815584935060010162000506565b9091508190620004f8565b634e487b7160e01b5f52602260045260245ffd5b91607f169162000138565b634e487b7160e01b5f52604160045260245ffd5b015190505f80620000fe565b60035f90815293507fc2575a0e9e593c00f959f8c92f12db2869c3395a3b0502d05e2516446f71f85b91905b601f1984168510620005df576001945083601f19811610620005c6575b505050811b0160035562000113565b01515f1960f88460031b161c191690555f8080620005b7565b818101518355602094850194600190930192909101906200059a565b60035f529091507fc2575a0e9e593c00f959f8c92f12db2869c3395a3b0502d05e2516446f71f85b601f840160051c81016020851062000663575b90849392915b601f830160051c8201811062000654575050620000e6565b5f81558594506001016200063c565b508062000636565b91607f1691620000d0565b5f80fd5b6040519190601f01601f191682016001600160401b038111838210176200054e57604052565b919080601f84011215620006765782516001600160401b0381116200054e57602090620006d6601f8201601f191683016200067a565b9281845282828701011162000676575f5b818110620006fc5750825f9394955001015290565b8581018301518482018401528201620006e7565b91908201809211620002fd5756fe60806040818152600480361015610014575f80fd5b5f92833560e01c90816306fdde031461096657508063095ea7b3146108bd5780630eff64271461089e57806318160ddd1461087f57806323b872dd1461078d5780632836be241461070b578063313ce567146106ef57806333cbeaa0146106b75780635cce86cd1461067957806370a0823114610642578063715018a6146105e25780638da5cb5b146105b957806391a83fea1461057e57806395d89b411461045e578063a9059cbb1461042d578063aa4bde28146103f2578063b9a410ff146102ff578063c473413a146102e0578063cffd129c146102c1578063dd62ed3e14610278578063e6ef73d61461024b578063e8891de8146101af5763f2fde38b1461011d575f80fd5b346101ab5760203660031901126101ab57610136610aa2565b9061013f610ad2565b6001600160a01b03918216928315610195575050600554826bffffffffffffffffffffffff60a01b821617600555167f8be0079c531659141344cd1fd0a4f28419497f9722a3daafe3b4186f6b6457e08380a380f35b51631e4fbdf760e01b8152908101849052602490fd5b8280fd5b5090346101ab5760203660031901126101ab578135916101cd610ad2565b6006548310156102095750816020917f583d8b24c5439ab7d810e51e37e8db41ba66f1168fd7b752ceae0c7681c5272c9360065551908152a180f35b6020606492519162461bcd60e51b8352820152601860248201527f43616e6e6f7420696e63726561736520636f6f6c646f776e00000000000000006044820152fd5b505034610274578160031936011261027457600a5490516001600160a01b039091168152602090f35b5080fd5b50503461027457806003193601126102745780602092610296610aa2565b61029e610abc565b6001600160a01b0391821683526001865283832091168252845220549051908152f35b5050346102745781600319360112610274576020906009549051908152f35b5050346102745781600319360112610274576020906008549051908152f35b50919034610274578060031936011261027457823560243593610320610ad2565b60085482116103af57600954851161036c57507fb841faf0d1b32571f4ef966a2f35e3ae51f3cdda45318c3da5570a5b2ad856059293816008558060095582519182526020820152a180f35b606490602084519162461bcd60e51b8352820152601860248201527f43616e6e6f7420696e6372656173652073656c6c2074617800000000000000006044820152fd5b606490602084519162461bcd60e51b8352820152601760248201527f43616e6e6f7420696e63726561736520627579207461780000000000000000006044820152fd5b505034610274578160031936011261027457602090517f00000000000000000000000000000000000000000000000000000000000000008152f35b50503461027457806003193601126102745760209061045761044d610aa2565b6024359033610afe565b5160018152f35b50919034610274578160031936011261027457805190828454600181811c90808316928315610574575b60209384841081146105615783885290811561054557506001146104f0575b505050829003601f01601f191682019267ffffffffffffffff8411838510176104dd57508291826104d9925282610a5b565b0390f35b634e487b7160e01b815260418552602490fd5b8787529192508591837f8a35acfbc15ff81a39ae7d344fd709f28e8600b4aa8c65c6b64bfe7fe36bd19b5b83851061053157505050508301015f80806104a7565b80548886018301529301928490820161051b565b60ff1916878501525050151560051b84010190505f80806104a7565b634e487b7160e01b895260228a52602489fd5b91607f1691610488565b505034610274578160031936011261027457602090517f00000000000000000000000000000000000000000000000000000000000000008152f35b50503461027457816003193601126102745760055490516001600160a01b039091168152602090f35b833461063f578060031936011261063f576105fb610ad2565b600580546001600160a01b0319811690915581906001600160a01b03167f8be0079c531659141344cd1fd0a4f28419497f9722a3daafe3b4186f6b6457e08280a380f35b80fd5b5050346102745760203660031901126102745760209181906001600160a01b0361066a610aa2565b16815280845220549051908152f35b5050346102745760203660031901126102745760209160ff9082906001600160a01b036106a4610aa2565b168152600b855220541690519015158152f35b5050346102745760203660031901126102745760209181906001600160a01b036106df610aa2565b1681526007845220549051908152f35b5050346102745781600319360112610274576020905160128152f35b505034610274578060031936011261027457610725610aa2565b60243590811515809203610789577f83f2b279b6151af5a15cdbe8471d34fe8b34aed9bd9514ffeadb57c9ea366e6191602091610760610ad2565b6001600160a01b0316808652600b8352848620805460ff191660ff84161790559351908152a280f35b8380fd5b50823461063f57606036600319011261063f576107a8610aa2565b6107b0610abc565b916044359360018060a01b038316808352600160205286832033845260205286832054915f1983106107eb575b602088610457898989610afe565b86831061085357811561083c57331561082557508252600160209081528683203384528152918690209085900390558290610457876107dd565b8751634a1406b160e11b8152908101849052602490fd5b875163e602df0560e01b8152908101849052602490fd5b8751637dc7a0d960e11b8152339181019182526020820193909352604081018790528291506060010390fd5b5050346102745781600319360112610274576020906002549051908152f35b5050346102745781600319360112610274576020906006549051908152f35b50346101ab57816003193601126101ab576108d6610aa2565b60243590331561094f576001600160a01b031691821561093857508083602095338152600187528181208582528752205582519081527f8c5be1e5ebec7d5bd14f71427d1e84f3dd0314c0f7b2291e5b200ac8c7c3b925843392a35160018152f35b8351634a1406b160e11b8152908101859052602490fd5b835163e602df0560e01b8152808401869052602490fd5b84915083346101ab57826003193601126101ab5782600354600181811c90808316928315610a51575b602093848410811461056157838852908115610a3557506001146109df57505050829003601f01601f191682019267ffffffffffffffff8411838510176104dd57508291826104d9925282610a5b565b600387529192508591837fc2575a0e9e593c00f959f8c92f12db2869c3395a3b0502d05e2516446f71f85b5b838510610a2157505050508301018580806104a7565b805488860183015293019284908201610a0b565b60ff1916878501525050151560051b84010190508580806104a7565b91607f169161098f565b602080825282518183018190529093925f5b828110610a8e57505060409293505f838284010152601f8019910116010190565b818101860151848201604001528501610a6d565b600435906001600160a01b0382168203610ab857565b5f80fd5b602435906001600160a01b0382168203610ab857565b6005546001600160a01b03163303610ae657565b60405163118cdaa760e01b8152336004820152602490fd5b91906001600160a01b0380841615610b3a57811615610b2257610b2092610b73565b565b60405163ec442f0560e01b81525f6004820152602490fd5b604051634b637e8f60e11b81525f6004820152602490fd5b91908201809211610b5f57565b634e487b7160e01b5f52601160045260245ffd5b6001600160a01b039392919084811680158015610e2e575b610e22575f95818752602091600b8352604060ff818a2054169383871694858b5260ff838c2054167f000000000000000000000000000000000000000000000000000000000000000043111580610e1a575b80610e12575b610dbc57159586610d31575b5015928380610d26575b610ca7575b505050879281610c9f575b50610c59575b8115610c4c5781610c2491600a541684610e38565b8303928311610c3857610b20939450610e38565b634e487b7160e01b85526011600452602485fd5b5050610b20939450610e38565b905060095460085480610c97575b50808502908582041485151715610c8357612710900490610c0f565b634e487b7160e01b87526011600452602487fd5b90505f610c67565b90505f610c09565b808b5260078252610cbe838c205460065490610b52565b4210610cd7578a526007905288204290555f8080610bfe565b50608491519062461bcd60e51b82526004820152602360248201527f477561726469616e546f6b656e3a2073656c6c20636f6f6c646f776e2061637460448201526269766560e81b6064820152fd5b506006541515610bf9565b8b528a8252610d4389848d2054610b52565b7f000000000000000000000000000000000000000000000000000000000000000010610d6f575f610bef565b50608491519062461bcd60e51b82526004820152602160248201527f477561726469616e546f6b656e3a2065786365656473206d61782077616c6c656044820152601d60fa1b6064820152fd5b835162461bcd60e51b815260048101849052602960248201527f477561726469616e546f6b656e3a20616e74692d626f742070726f74656374696044820152686f6e2061637469766560b81b6064820152608490fd5b508015610be3565b508115610bdd565b50610b20939450610e38565b5085831615610b8b565b6001600160a01b0380821692909183610eaf57507fddf252ad1be2c89b69c2b068fc378daa952ba7f163c4a11628f55a4df523b3ef91602091610e7d86600254610b52565b6002555b169384610e9a5780600254036002555b604051908152a3565b845f525f825260405f20818154019055610e91565b5f9084825281602052604082205490868210610eff57509181604087602095887fddf252ad1be2c89b69c2b068fc378daa952ba7f163c4a11628f55a4df523b3ef98965283875203912055610e81565b60405163391434e360e21b81526001600160a01b03919091166004820152602481019190915260448101869052606490fdfea2646970667358221220d7cb02b54fd61eae2a00818ba84b2b0ed94df10d8f0d5e3ddf7d6a90b9e591e864736f6c63430008140033a26469706673582212200e4b882e76b3d6a2424e4d2fc24453a2753dfbe8c5d83c00a54c741c412eb17e64736f6c63430008140033","opcodes":"PUSH1 0x80 DUP1 PUSH1 0x40 MSTORE CALLVALUE PUSH2 0x16 JUMPI PUSH2 0x2752 SWAP1 DUP2 PUSH2 0x1B DUP3 CODECOPY RETURN JUMPDEST PUSH0 DUP1 REVERT INVALID PUSH1 0x80 PUSH1 0x40 MSTORE PUSH1 0x4 CALLDATASIZE LT ISZERO PUSH3 0x12 JUMPI PUSH0 DUP1 REVERT JUMPDEST PUSH0 DUP1 CALLDATALOAD PUSH1 0xE0 SHR DUP1 PUSH4 0x3506CEF8 EQ PUSH3 0x248 JUMPI DUP1 PUSH4 0x4238B692 EQ PUSH3 0x213 JUMPI DUP1 PUSH4 0x634282AF EQ PUSH3 0x1B9 JUMPI DUP1 PUSH4 0x7E1C0C09 EQ PUSH3 0x19A JUMPI DUP1 PUSH4 0xD5C71275 EQ PUSH3 0x103 JUMPI PUSH4 0xDB3FA4CC EQ PUSH3 0x63 JUMPI PUSH0 DUP1 REVERT JUMPDEST CALLVALUE PUSH3 0x100 JUMPI PUSH1 0x40 CALLDATASIZE PUSH1 0x3 NOT ADD SLT PUSH3 0x100 JUMPI PUSH3 0x80 PUSH3 0xB18 JUMP JUMPDEST PUSH1 0x1 PUSH1 0x1 PUSH1 0xA0 SHL SUB SWAP1 DUP2 AND DUP3 MSTORE PUSH1 0x1 PUSH1 0x20 MSTORE PUSH1 0x40 DUP3 KECCAK256 DUP1 SLOAD PUSH1 0x24 CALLDATALOAD SWAP2 SWAP1 DUP3 LT ISZERO PUSH3 0xFC JUMPI SWAP1 PUSH3 0xB1 SWAP2 PUSH3 0xC75 JUMP JUMPDEST POP SWAP1 PUSH3 0xF8 DUP2 DUP4 SLOAD AND SWAP2 PUSH1 0x1 DUP5 ADD SLOAD AND SWAP3 PUSH3 0xD1 PUSH1 0x2 DUP3 ADD PUSH3 0xD1C JUMP JUMPDEST SWAP1 PUSH3 0xE0 PUSH1 0x3 DUP3 ADD PUSH3 0xD1C JUMP JUMPDEST PUSH1 0x5 PUSH1 0x4 DUP4 ADD SLOAD SWAP3 ADD SLOAD SWAP3 PUSH1 0x40 MLOAD SWAP7 DUP8 SWAP7 DUP8 PUSH3 0xDC9 JUMP JUMPDEST SUB SWAP1 RETURN JUMPDEST DUP4 DUP1 REVERT JUMPDEST DUP1 REVERT JUMPDEST POP CALLVALUE PUSH3 0x100 JUMPI PUSH1 0x20 SWAP1 DUP2 PUSH1 0x3 NOT CALLDATASIZE ADD SLT PUSH3 0x100 JUMPI PUSH1 0x1 PUSH1 0x1 PUSH1 0xA0 SHL SUB PUSH3 0x12B PUSH3 0xB18 JUMP JUMPDEST AND DUP2 MSTORE PUSH1 0x1 SWAP2 DUP3 DUP2 MSTORE PUSH1 0x40 DUP3 KECCAK256 DUP1 SLOAD SWAP2 PUSH3 0x146 DUP4 PUSH3 0xE81 JUMP JUMPDEST SWAP4 PUSH3 0x156 PUSH1 0x40 MLOAD SWAP6 DUP7 PUSH3 0xCFA JUMP JUMPDEST DUP4 DUP6 MSTORE SWAP2 DUP3 MSTORE DUP1 DUP3 KECCAK256 DUP2 DUP6 ADD JUMPDEST DUP5 DUP5 LT PUSH3 0x17B JUMPI PUSH1 0x40 MLOAD DUP1 PUSH3 0xF8 DUP9 DUP3 PUSH3 0xB6F JUMP JUMPDEST PUSH1 0x6 DUP4 DUP9 SWAP3 PUSH3 0x18B DUP6 PUSH3 0xE99 JUMP JUMPDEST DUP2 MSTORE ADD SWAP3 ADD SWAP4 ADD SWAP3 SWAP1 PUSH3 0x163 JUMP JUMPDEST POP CALLVALUE PUSH3 0x100 JUMPI DUP1 PUSH1 0x3 NOT CALLDATASIZE ADD SLT PUSH3 0x100 JUMPI PUSH1 0x20 SWAP1 SLOAD PUSH1 0x40 MLOAD SWAP1 DUP2 MSTORE RETURN JUMPDEST POP CALLVALUE PUSH3 0x100 JUMPI PUSH1 0x20 CALLDATASIZE PUSH1 0x3 NOT ADD SLT PUSH3 0x100 JUMPI PUSH1 0x4 CALLDATALOAD DUP2 SLOAD DUP2 LT ISZERO PUSH3 0x20F JUMPI PUSH3 0x1E5 SWAP1 PUSH3 0xC27 JUMP JUMPDEST POP DUP1 SLOAD PUSH1 0x1 DUP3 ADD SLOAD PUSH1 0x1 PUSH1 0x1 PUSH1 0xA0 SHL SUB SWAP1 DUP2 AND SWAP3 SWAP2 AND SWAP1 PUSH3 0xF8 SWAP1 PUSH3 0xD1 PUSH1 0x2 DUP3 ADD PUSH3 0xD1C JUMP JUMPDEST POP DUP1 REVERT JUMPDEST POP CALLVALUE PUSH3 0x100 JUMPI PUSH1 0x40 CALLDATASIZE PUSH1 0x3 NOT ADD SLT PUSH3 0x100 JUMPI PUSH3 0xF8 PUSH3 0x23B PUSH1 0x24 CALLDATALOAD PUSH1 0x4 CALLDATALOAD PUSH3 0xF33 JUMP JUMPDEST PUSH1 0x40 MLOAD SWAP2 DUP3 SWAP2 DUP3 PUSH3 0xB6F JUMP JUMPDEST POP CALLVALUE PUSH3 0x100 JUMPI PUSH2 0x120 SWAP1 DUP2 PUSH1 0x3 NOT CALLDATASIZE ADD SLT PUSH3 0x100 JUMPI PUSH1 0x4 CALLDATALOAD PUSH1 0x1 PUSH1 0x1 PUSH1 0x40 SHL SUB DUP2 GT PUSH3 0x20F JUMPI PUSH3 0x281 SWAP1 CALLDATASIZE SWAP1 PUSH1 0x4 ADD PUSH3 0xAE4 JUMP JUMPDEST SWAP1 PUSH1 0x24 CALLDATALOAD PUSH1 0x1 PUSH1 0x1 PUSH1 0x40 SHL SUB DUP2 GT PUSH3 0xFC JUMPI PUSH3 0x2A4 SWAP1 CALLDATASIZE SWAP1 PUSH1 0x4 ADD PUSH3 0xAE4 JUMP JUMPDEST SWAP1 SWAP5 SWAP1 SWAP2 SWAP1 PUSH2 0x104 CALLDATALOAD SWAP1 PUSH1 0x1 PUSH1 0x1 PUSH1 0xA0 SHL SUB DUP3 AND DUP3 SUB PUSH3 0xAE0 JUMPI PUSH2 0x1686 SWAP1 PUSH1 0x80 DUP3 PUSH1 0x80 ADD LT PUSH1 0x1 PUSH1 0x1 PUSH1 0x40 SHL SUB DUP4 PUSH1 0x80 ADD GT OR PUSH3 0xACC JUMPI PUSH3 0x318 PUSH3 0x304 PUSH2 0x100 SWAP3 DUP5 PUSH3 0x1097 PUSH1 0x80 CODECOPY DUP1 DUP6 PUSH1 0x80 ADD MSTORE DUP5 PUSH1 0x80 ADD ADD DUP9 DUP8 PUSH3 0xE18 JUMP JUMPDEST PUSH1 0x7F NOT DUP5 DUP3 SUB ADD PUSH1 0xA0 DUP6 ADD MSTORE DUP7 DUP11 PUSH3 0xE18 JUMP JUMPDEST PUSH1 0x44 CALLDATALOAD PUSH1 0xC0 DUP5 ADD MSTORE PUSH1 0x64 CALLDATALOAD PUSH1 0xE0 DUP5 ADD MSTORE PUSH1 0x84 CALLDATALOAD PUSH2 0x100 DUP5 ADD MSTORE PUSH1 0xA4 CALLDATALOAD PUSH2 0x120 DUP5 ADD MSTORE PUSH1 0xC4 CALLDATALOAD PUSH2 0x140 DUP5 ADD MSTORE PUSH1 0xE4 CALLDATALOAD PUSH2 0x160 DUP5 ADD MSTORE PUSH1 0x1 PUSH1 0x1 PUSH1 0xA0 SHL SUB SWAP1 SWAP4 AND SWAP2 ADD PUSH1 0x80 SWAP1 DUP2 ADD SWAP2 SWAP1 SWAP2 MSTORE PUSH1 0x7F NOT SWAP1 SWAP2 ADD SWAP1 DUP6 CREATE DUP1 ISZERO PUSH3 0xAC1 JUMPI PUSH1 0x1 PUSH1 0x1 PUSH1 0xA0 SHL SUB AND SWAP4 DUP5 EXTCODESIZE ISZERO PUSH3 0x100 JUMPI PUSH1 0x40 MLOAD PUSH4 0xF2FDE38B PUSH1 0xE0 SHL DUP2 MSTORE CALLER PUSH1 0x4 DUP3 ADD MSTORE DUP2 DUP2 PUSH1 0x24 DUP2 DUP4 DUP11 GAS CALL DUP1 ISZERO PUSH3 0xAB6 JUMPI PUSH3 0xA89 JUMPI JUMPDEST POP PUSH1 0x40 MLOAD SWAP1 PUSH3 0x3BD DUP3 PUSH3 0xCDE JUMP JUMPDEST DUP6 DUP3 MSTORE CALLER PUSH1 0x20 DUP4 ADD MSTORE PUSH3 0x3D3 CALLDATASIZE DUP7 DUP6 PUSH3 0xE38 JUMP JUMPDEST PUSH1 0x40 DUP4 ADD MSTORE PUSH3 0x3E5 CALLDATASIZE DUP6 DUP10 PUSH3 0xE38 JUMP JUMPDEST PUSH1 0x60 DUP4 ADD MSTORE PUSH1 0x44 CALLDATALOAD PUSH1 0x80 DUP4 ADD MSTORE TIMESTAMP PUSH1 0xA0 DUP4 ADD MSTORE PUSH0 SLOAD PUSH1 0x1 PUSH1 0x40 SHL DUP2 LT ISZERO PUSH3 0x7F6 JUMPI DUP1 PUSH1 0x1 PUSH3 0x418 SWAP3 ADD PUSH0 SSTORE PUSH3 0xC27 JUMP JUMPDEST PUSH3 0x8DB JUMPI DUP3 MLOAD DUP2 SLOAD PUSH1 0x1 PUSH1 0x1 PUSH1 0xA0 SHL SUB SWAP2 DUP3 AND PUSH1 0x1 PUSH1 0x1 PUSH1 0xA0 SHL SUB NOT SWAP2 DUP3 AND OR DUP4 SSTORE PUSH1 0x20 DUP6 ADD MLOAD PUSH1 0x1 DUP5 ADD DUP1 SLOAD SWAP2 SWAP1 SWAP4 AND SWAP2 AND OR SWAP1 SSTORE PUSH1 0x40 DUP4 ADD MLOAD DUP1 MLOAD SWAP1 PUSH1 0x1 PUSH1 0x1 PUSH1 0x40 SHL SUB DUP3 GT PUSH3 0x7F6 JUMPI DUP2 SWAP1 PUSH3 0x477 PUSH1 0x2 DUP6 ADD SLOAD PUSH3 0xCA3 JUMP JUMPDEST PUSH1 0x1F DUP2 GT PUSH3 0xA34 JUMPI JUMPDEST POP PUSH1 0x20 SWAP1 PUSH1 0x1F DUP4 GT PUSH1 0x1 EQ PUSH3 0x9C4 JUMPI PUSH0 SWAP3 PUSH3 0x9B8 JUMPI JUMPDEST POP POP DUP2 PUSH1 0x1 SHL SWAP2 PUSH0 NOT SWAP1 PUSH1 0x3 SHL SHR NOT AND OR PUSH1 0x2 DUP3 ADD SSTORE JUMPDEST PUSH1 0x60 DUP4 ADD MLOAD DUP1 MLOAD SWAP1 PUSH1 0x1 PUSH1 0x1 PUSH1 0x40 SHL SUB DUP3 GT PUSH3 0x7F6 JUMPI PUSH3 0x4D6 PUSH1 0x3 DUP5 ADD SLOAD PUSH3 0xCA3 JUMP JUMPDEST PUSH1 0x1F DUP2 GT PUSH3 0x96F JUMPI JUMPDEST POP PUSH1 0x20 SWAP1 PUSH1 0x1F DUP4 GT PUSH1 0x1 EQ PUSH3 0x8FA JUMPI PUSH1 0x40 SWAP5 SWAP4 SWAP3 SWAP2 PUSH0 SWAP2 DUP4 PUSH3 0x8EE JUMPI JUMPDEST POP POP DUP2 PUSH1 0x1 SHL SWAP2 PUSH0 NOT SWAP1 PUSH1 0x3 SHL SHR NOT AND OR PUSH1 0x3 DUP3 ADD SSTORE JUMPDEST PUSH1 0x80 DUP5 ADD MLOAD PUSH1 0x4 DUP3 ADD SSTORE PUSH1 0x5 PUSH1 0xA0 DUP6 ADD MLOAD SWAP2 ADD SSTORE CALLER DUP2 MSTORE PUSH1 0x1 PUSH1 0x20 MSTORE KECCAK256 DUP1 SLOAD PUSH1 0x1 PUSH1 0x40 SHL DUP2 LT ISZERO PUSH3 0x7F6 JUMPI PUSH3 0x553 SWAP2 PUSH1 0x1 DUP3 ADD DUP2 SSTORE PUSH3 0xC75 JUMP JUMPDEST SWAP2 SWAP1 SWAP2 PUSH3 0x8DB JUMPI DUP1 MLOAD DUP3 SLOAD PUSH1 0x1 PUSH1 0x1 PUSH1 0xA0 SHL SUB SWAP2 DUP3 AND PUSH1 0x1 PUSH1 0x1 PUSH1 0xA0 SHL SUB NOT SWAP2 DUP3 AND OR DUP5 SSTORE PUSH1 0x20 DUP4 ADD MLOAD PUSH1 0x1 DUP6 ADD DUP1 SLOAD SWAP2 SWAP1 SWAP4 AND SWAP2 AND OR SWAP1 SSTORE PUSH1 0x40 DUP2 ADD MLOAD DUP1 MLOAD SWAP1 PUSH1 0x1 PUSH1 0x1 PUSH1 0x40 SHL SUB DUP3 GT PUSH3 0x7F6 JUMPI DUP2 SWAP1 PUSH3 0x5B5 PUSH1 0x2 DUP7 ADD SLOAD PUSH3 0xCA3 JUMP JUMPDEST PUSH1 0x1F DUP2 GT PUSH3 0x886 JUMPI JUMPDEST POP PUSH1 0x20 SWAP1 PUSH1 0x1F DUP4 GT PUSH1 0x1 EQ PUSH3 0x816 JUMPI PUSH0 SWAP3 PUSH3 0x80A JUMPI JUMPDEST POP POP DUP2 PUSH1 0x1 SHL SWAP2 PUSH0 NOT SWAP1 PUSH1 0x3 SHL SHR NOT AND OR PUSH1 0x2 DUP4 ADD SSTORE JUMPDEST PUSH1 0x60 DUP2 ADD MLOAD DUP1 MLOAD SWAP1 PUSH1 0x1 PUSH1 0x1 PUSH1 0x40 SHL SUB DUP3 GT PUSH3 0x7F6 JUMPI PUSH3 0x614 PUSH1 0x3 DUP6 ADD SLOAD PUSH3 0xCA3 JUMP JUMPDEST PUSH1 0x1F DUP2 GT PUSH3 0x7AD JUMPI JUMPDEST POP SWAP2 DUP8 SWAP6 SWAP4 SWAP2 PUSH1 0x20 SWAP10 SWAP6 SWAP4 DUP11 SWAP1 PUSH1 0x1F DUP4 GT PUSH1 0x1 EQ PUSH3 0x709 JUMPI PUSH1 0xA0 PUSH3 0x6B0 SWAP5 DUP5 PUSH32 0x731D2DC99343119D4B83780C8B482EA13B7CC8A6E76AD60C42684E6D19A26745 SWAP11 SWAP9 SWAP6 PUSH3 0x6BE SWAP11 SWAP9 SWAP6 PUSH1 0x5 SWAP6 PUSH0 SWAP3 PUSH3 0x6FD JUMPI JUMPDEST POP POP DUP2 PUSH1 0x1 SHL SWAP2 PUSH0 NOT SWAP1 PUSH1 0x3 SHL SHR NOT AND OR PUSH1 0x3 DUP6 ADD SSTORE JUMPDEST PUSH1 0x80 DUP2 ADD MLOAD PUSH1 0x4 DUP6 ADD SSTORE ADD MLOAD SWAP2 ADD SSTORE PUSH1 0x40 MLOAD SWAP8 PUSH2 0x100 DUP10 MSTORE PUSH2 0x100 DUP10 ADD SWAP2 PUSH3 0xE18 JUMP JUMPDEST SWAP2 DUP7 DUP4 SUB DUP10 DUP9 ADD MSTORE PUSH3 0xE18 JUMP JUMPDEST SWAP3 PUSH1 0x44 CALLDATALOAD PUSH1 0x40 DUP3 ADD MSTORE PUSH1 0x64 CALLDATALOAD PUSH1 0x60 DUP3 ADD MSTORE PUSH1 0x84 CALLDATALOAD PUSH1 0x80 DUP3 ADD MSTORE PUSH1 0xA4 CALLDATALOAD PUSH1 0xA0 DUP3 ADD MSTORE PUSH1 0xC4 CALLDATALOAD PUSH1 0xC0 DUP3 ADD MSTORE PUSH1 0xE4 CALLDATALOAD PUSH1 0xE0 DUP3 ADD MSTORE DUP1 CALLER SWAP5 SUB SWAP1 LOG3 PUSH1 0x40 MLOAD SWAP1 DUP2 MSTORE RETURN JUMPDEST ADD MLOAD SWAP1 POP PUSH0 DUP1 PUSH3 0x675 JUMP JUMPDEST SWAP1 PUSH1 0x3 DUP6 ADD PUSH0 MSTORE DUP12 PUSH0 KECCAK256 SWAP2 PUSH0 JUMPDEST PUSH1 0x1F NOT DUP6 AND DUP2 LT PUSH3 0x792 JUMPI POP PUSH3 0x6B0 SWAP5 PUSH1 0x1 DUP6 PUSH3 0x6BE SWAP11 SWAP9 SWAP6 PUSH1 0x5 SWAP6 PUSH1 0xA0 SWAP6 PUSH32 0x731D2DC99343119D4B83780C8B482EA13B7CC8A6E76AD60C42684E6D19A26745 SWAP15 SWAP13 SWAP10 PUSH1 0x1F NOT DUP2 AND LT PUSH3 0x779 JUMPI JUMPDEST POP POP POP DUP2 SHL ADD PUSH1 0x3 DUP6 ADD SSTORE PUSH3 0x68C JUMP JUMPDEST ADD MLOAD PUSH0 NOT PUSH1 0xF8 DUP5 PUSH1 0x3 SHL AND SHR NOT AND SWAP1 SSTORE PUSH0 DUP1 DUP1 PUSH3 0x768 JUMP JUMPDEST DUP2 DUP4 ADD MLOAD DUP5 SSTORE DUP13 SWAP11 POP PUSH1 0x1 SWAP1 SWAP4 ADD SWAP3 SWAP2 DUP14 ADD SWAP2 DUP14 ADD PUSH3 0x716 JUMP JUMPDEST PUSH1 0x3 DUP6 ADD PUSH0 MSTORE PUSH1 0x20 PUSH0 KECCAK256 PUSH1 0x1F DUP5 ADD PUSH1 0x5 SHR DUP2 ADD PUSH1 0x20 DUP6 LT PUSH3 0x7EE JUMPI JUMPDEST PUSH1 0x1F DUP4 ADD PUSH1 0x5 SHR DUP3 ADD DUP2 LT PUSH3 0x7E2 JUMPI POP POP PUSH3 0x61E JUMP JUMPDEST PUSH0 DUP2 SSTORE PUSH1 0x1 ADD PUSH3 0x7CA JUMP JUMPDEST POP DUP1 PUSH3 0x7CA JUMP JUMPDEST PUSH4 0x4E487B71 PUSH1 0xE0 SHL PUSH0 MSTORE PUSH1 0x41 PUSH1 0x4 MSTORE PUSH1 0x24 PUSH0 REVERT JUMPDEST ADD MLOAD SWAP1 POP PUSH0 DUP1 PUSH3 0x5D7 JUMP JUMPDEST PUSH1 0x2 DUP7 ADD PUSH0 SWAP1 DUP2 MSTORE PUSH1 0x20 DUP2 KECCAK256 SWAP4 POP PUSH1 0x1F NOT DUP6 AND SWAP1 JUMPDEST DUP2 DUP2 LT PUSH3 0x86D JUMPI POP SWAP1 DUP5 PUSH1 0x1 SWAP6 SWAP5 SWAP4 SWAP3 LT PUSH3 0x854 JUMPI JUMPDEST POP POP POP DUP2 SHL ADD PUSH1 0x2 DUP4 ADD SSTORE PUSH3 0x5EE JUMP JUMPDEST ADD MLOAD PUSH0 NOT PUSH1 0xF8 DUP5 PUSH1 0x3 SHL AND SHR NOT AND SWAP1 SSTORE PUSH0 DUP1 DUP1 PUSH3 0x843 JUMP JUMPDEST SWAP3 SWAP4 PUSH1 0x20 PUSH1 0x1 DUP2 SWAP3 DUP8 DUP7 ADD MLOAD DUP2 SSTORE ADD SWAP6 ADD SWAP4 ADD PUSH3 0x82B JUMP JUMPDEST SWAP1 SWAP2 POP PUSH1 0x2 DUP6 ADD PUSH0 MSTORE PUSH1 0x20 PUSH0 KECCAK256 PUSH1 0x1F DUP5 ADD PUSH1 0x5 SHR DUP2 ADD PUSH1 0x20 DUP6 LT PUSH3 0x8D3 JUMPI JUMPDEST SWAP1 DUP5 SWAP4 SWAP3 SWAP2 JUMPDEST PUSH1 0x1F DUP4 ADD PUSH1 0x5 SHR DUP3 ADD DUP2 LT PUSH3 0x8C4 JUMPI POP POP PUSH3 0x5BF JUMP JUMPDEST PUSH0 DUP2 SSTORE DUP6 SWAP5 POP PUSH1 0x1 ADD PUSH3 0x8AC JUMP JUMPDEST POP DUP1 PUSH3 0x8A6 JUMP JUMPDEST PUSH4 0x4E487B71 PUSH1 0xE0 SHL PUSH0 MSTORE PUSH0 PUSH1 0x4 MSTORE PUSH1 0x24 PUSH0 REVERT JUMPDEST ADD MLOAD SWAP1 POP PUSH0 DUP1 PUSH3 0x4FF JUMP JUMPDEST SWAP1 PUSH1 0x3 DUP5 ADD PUSH0 MSTORE PUSH1 0x20 PUSH0 KECCAK256 SWAP2 PUSH0 JUMPDEST PUSH1 0x1F NOT DUP6 AND DUP2 LT PUSH3 0x956 JUMPI POP SWAP2 DUP4 SWAP2 PUSH1 0x1 SWAP4 PUSH1 0x40 SWAP8 SWAP7 SWAP6 PUSH1 0x1F NOT DUP2 AND LT PUSH3 0x93D JUMPI JUMPDEST POP POP POP DUP2 SHL ADD PUSH1 0x3 DUP3 ADD SSTORE PUSH3 0x516 JUMP JUMPDEST ADD MLOAD PUSH0 NOT PUSH1 0xF8 DUP5 PUSH1 0x3 SHL AND SHR NOT AND SWAP1 SSTORE PUSH0 DUP1 DUP1 PUSH3 0x92C JUMP JUMPDEST SWAP2 SWAP3 PUSH1 0x20 PUSH1 0x1 DUP2 SWAP3 DUP7 DUP6 ADD MLOAD DUP2 SSTORE ADD SWAP5 ADD SWAP3 ADD PUSH3 0x908 JUMP JUMPDEST PUSH1 0x3 DUP5 ADD PUSH0 MSTORE PUSH1 0x20 PUSH0 KECCAK256 PUSH1 0x1F DUP5 ADD PUSH1 0x5 SHR DUP2 ADD PUSH1 0x20 DUP6 LT PUSH3 0x9B0 JUMPI JUMPDEST PUSH1 0x1F DUP4 ADD PUSH1 0x5 SHR DUP3 ADD DUP2 LT PUSH3 0x9A4 JUMPI POP POP PUSH3 0x4E0 JUMP JUMPDEST PUSH0 DUP2 SSTORE PUSH1 0x1 ADD PUSH3 0x98C JUMP JUMPDEST POP DUP1 PUSH3 0x98C JUMP JUMPDEST ADD MLOAD SWAP1 POP PUSH0 DUP1 PUSH3 0x499 JUMP JUMPDEST PUSH1 0x2 DUP6 ADD PUSH0 SWAP1 DUP2 MSTORE PUSH1 0x20 DUP2 KECCAK256 SWAP4 POP PUSH1 0x1F NOT DUP6 AND SWAP1 JUMPDEST DUP2 DUP2 LT PUSH3 0xA1B JUMPI POP SWAP1 DUP5 PUSH1 0x1 SWAP6 SWAP5 SWAP4 SWAP3 LT PUSH3 0xA02 JUMPI JUMPDEST POP POP POP DUP2 SHL ADD PUSH1 0x2 DUP3 ADD SSTORE PUSH3 0x4B0 JUMP JUMPDEST ADD MLOAD PUSH0 NOT PUSH1 0xF8 DUP5 PUSH1 0x3 SHL AND SHR NOT AND SWAP1 SSTORE PUSH0 DUP1 DUP1 PUSH3 0x9F1 JUMP JUMPDEST SWAP3 SWAP4 PUSH1 0x20 PUSH1 0x1 DUP2 SWAP3 DUP8 DUP7 ADD MLOAD DUP2 SSTORE ADD SWAP6 ADD SWAP4 ADD PUSH3 0x9D9 JUMP JUMPDEST SWAP1 SWAP2 POP PUSH1 0x2 DUP5 ADD PUSH0 MSTORE PUSH1 0x20 PUSH0 KECCAK256 PUSH1 0x1F DUP5 ADD PUSH1 0x5 SHR DUP2 ADD PUSH1 0x20 DUP6 LT PUSH3 0xA81 JUMPI JUMPDEST SWAP1 DUP5 SWAP4 SWAP3 SWAP2 JUMPDEST PUSH1 0x1F DUP4 ADD PUSH1 0x5 SHR DUP3 ADD DUP2 LT PUSH3 0xA72 JUMPI POP POP PUSH3 0x481 JUMP JUMPDEST PUSH0 DUP2 SSTORE DUP6 SWAP5 POP PUSH1 0x1 ADD PUSH3 0xA5A JUMP JUMPDEST POP DUP1 PUSH3 0xA54 JUMP JUMPDEST PUSH1 0x1 PUSH1 0x1 PUSH1 0x40 SHL SUB DUP2 GT PUSH3 0xAA2 JUMPI PUSH1 0x40 MSTORE PUSH0 PUSH3 0x3AD JUMP JUMPDEST PUSH4 0x4E487B71 PUSH1 0xE0 SHL DUP3 MSTORE PUSH1 0x41 PUSH1 0x4 MSTORE PUSH1 0x24 DUP3 REVERT JUMPDEST PUSH1 0x40 MLOAD RETURNDATASIZE DUP5 DUP3 RETURNDATACOPY RETURNDATASIZE SWAP1 REVERT JUMPDEST PUSH1 0x40 MLOAD RETURNDATASIZE DUP7 DUP3 RETURNDATACOPY RETURNDATASIZE SWAP1 REVERT JUMPDEST PUSH4 0x4E487B71 PUSH1 0xE0 SHL DUP8 MSTORE PUSH1 0x41 PUSH1 0x4 MSTORE PUSH1 0x24 DUP8 REVERT JUMPDEST DUP6 DUP1 REVERT JUMPDEST SWAP2 DUP2 PUSH1 0x1F DUP5 ADD SLT ISZERO PUSH3 0xB14 JUMPI DUP3 CALLDATALOAD SWAP2 PUSH1 0x1 PUSH1 0x1 PUSH1 0x40 SHL SUB DUP4 GT PUSH3 0xB14 JUMPI PUSH1 0x20 DUP4 DUP2 DUP7 ADD SWAP6 ADD ADD GT PUSH3 0xB14 JUMPI JUMP JUMPDEST PUSH0 DUP1 REVERT JUMPDEST PUSH1 0x4 CALLDATALOAD SWAP1 PUSH1 0x1 PUSH1 0x1 PUSH1 0xA0 SHL SUB DUP3 AND DUP3 SUB PUSH3 0xB14 JUMPI JUMP JUMPDEST SWAP2 SWAP1 DUP3 MLOAD SWAP3 DUP4 DUP3 MSTORE PUSH0 JUMPDEST DUP5 DUP2 LT PUSH3 0xB5A JUMPI POP POP DUP3 PUSH0 PUSH1 0x20 DUP1 SWAP5 SWAP6 DUP5 ADD ADD MSTORE PUSH1 0x1F DUP1 NOT SWAP2 ADD AND ADD ADD SWAP1 JUMP JUMPDEST PUSH1 0x20 DUP2 DUP4 ADD DUP2 ADD MLOAD DUP5 DUP4 ADD DUP3 ADD MSTORE ADD PUSH3 0xB39 JUMP JUMPDEST PUSH1 0x20 DUP1 DUP3 ADD SWAP1 DUP1 DUP4 MSTORE DUP4 MLOAD DUP1 SWAP3 MSTORE PUSH1 0x40 SWAP3 DUP4 DUP2 ADD DUP3 DUP6 DUP6 PUSH1 0x5 SHL DUP5 ADD ADD SWAP7 ADD SWAP5 PUSH0 SWAP3 JUMPDEST DUP6 DUP5 LT PUSH3 0xBA4 JUMPI POP POP POP POP POP POP POP SWAP1 JUMP JUMPDEST SWAP1 SWAP2 SWAP3 SWAP4 SWAP5 SWAP6 SWAP7 DUP6 DUP1 PUSH1 0x1 SWAP3 PUSH1 0x3F NOT DUP6 DUP3 SUB ADD DUP8 MSTORE DUP11 MLOAD SWAP1 DUP5 DUP1 PUSH1 0xA0 SHL SUB DUP1 DUP4 MLOAD AND DUP3 MSTORE DUP4 DUP4 ADD MLOAD AND DUP4 DUP3 ADD MSTORE PUSH3 0xC01 PUSH3 0xBED DUP9 DUP5 ADD MLOAD PUSH1 0xC0 DUP1 DUP12 DUP7 ADD MSTORE DUP5 ADD SWAP1 PUSH3 0xB2F JUMP JUMPDEST PUSH1 0x60 DUP1 DUP6 ADD MLOAD SWAP1 DUP5 DUP4 SUB SWAP1 DUP6 ADD MSTORE PUSH3 0xB2F JUMP JUMPDEST SWAP2 PUSH1 0x80 DUP1 DUP3 ADD MLOAD SWAP1 DUP4 ADD MSTORE PUSH1 0xA0 DUP1 SWAP2 ADD MLOAD SWAP2 ADD MSTORE SWAP10 ADD SWAP5 ADD SWAP5 ADD SWAP3 SWAP6 SWAP5 SWAP4 SWAP2 SWAP1 PUSH3 0xB92 JUMP JUMPDEST SWAP1 PUSH0 SWAP2 DUP3 SLOAD DUP2 LT ISZERO PUSH3 0xC61 JUMPI PUSH1 0x6 SWAP1 DUP4 DUP1 MSTORE MUL PUSH32 0x290DECD9548B62A8D60345A988386FC84BA6BC95484008F6362F93160EF3E563 ADD SWAP2 SWAP1 JUMP JUMPDEST PUSH4 0x4E487B71 PUSH1 0xE0 SHL DUP4 MSTORE PUSH1 0x32 PUSH1 0x4 MSTORE PUSH1 0x24 DUP4 REVERT JUMPDEST DUP1 SLOAD DUP3 LT ISZERO PUSH3 0xC8F JUMPI PUSH0 MSTORE PUSH1 0x6 PUSH1 0x20 PUSH0 KECCAK256 SWAP2 MUL ADD SWAP1 PUSH0 SWAP1 JUMP JUMPDEST PUSH4 0x4E487B71 PUSH1 0xE0 SHL PUSH0 MSTORE PUSH1 0x32 PUSH1 0x4 MSTORE PUSH1 0x24 PUSH0 REVERT JUMPDEST SWAP1 PUSH1 0x1 DUP3 DUP2 SHR SWAP3 AND DUP1 ISZERO PUSH3 0xCD3 JUMPI JUMPDEST PUSH1 0x20 DUP4 LT EQ PUSH3 0xCBF JUMPI JUMP JUMPDEST PUSH4 0x4E487B71 PUSH1 0xE0 SHL PUSH0 MSTORE PUSH1 0x22 PUSH1 0x4 MSTORE PUSH1 0x24 PUSH0 REVERT JUMPDEST SWAP2 PUSH1 0x7F AND SWAP2 PUSH3 0xCB3 JUMP JUMPDEST PUSH1 0xC0 DUP2 ADD SWAP1 DUP2 LT PUSH1 0x1 PUSH1 0x1 PUSH1 0x40 SHL SUB DUP3 GT OR PUSH3 0x7F6 JUMPI PUSH1 0x40 MSTORE JUMP JUMPDEST SWAP1 PUSH1 0x1F DUP1 NOT SWAP2 ADD AND DUP2 ADD SWAP1 DUP2 LT PUSH1 0x1 PUSH1 0x1 PUSH1 0x40 SHL SUB DUP3 GT OR PUSH3 0x7F6 JUMPI PUSH1 0x40 MSTORE JUMP JUMPDEST SWAP1 PUSH1 0x40 MLOAD SWAP2 DUP3 PUSH0 DUP3 SLOAD SWAP3 PUSH3 0xD31 DUP5 PUSH3 0xCA3 JUMP JUMPDEST SWAP1 DUP2 DUP5 MSTORE PUSH1 0x1 SWAP5 DUP6 DUP2 AND SWAP1 DUP2 PUSH0 EQ PUSH3 0xDA4 JUMPI POP PUSH1 0x1 EQ PUSH3 0xD60 JUMPI JUMPDEST POP POP PUSH3 0xD5E SWAP3 POP SUB DUP4 PUSH3 0xCFA JUMP JUMPDEST JUMP JUMPDEST SWAP1 SWAP4 SWAP2 POP PUSH0 MSTORE PUSH1 0x20 SWAP1 DUP2 PUSH0 KECCAK256 SWAP4 PUSH0 SWAP2 JUMPDEST DUP2 DUP4 LT PUSH3 0xD8B JUMPI POP POP PUSH3 0xD5E SWAP4 POP DUP3 ADD ADD PUSH0 DUP1 PUSH3 0xD4E JUMP JUMPDEST DUP6 SLOAD DUP9 DUP5 ADD DUP6 ADD MSTORE SWAP5 DUP6 ADD SWAP5 DUP8 SWAP5 POP SWAP2 DUP4 ADD SWAP2 PUSH3 0xD70 JUMP JUMPDEST SWAP2 POP POP PUSH3 0xD5E SWAP5 POP PUSH1 0x20 SWAP3 POP PUSH1 0xFF NOT AND DUP3 DUP5 ADD MSTORE ISZERO ISZERO PUSH1 0x5 SHL DUP3 ADD ADD PUSH0 DUP1 PUSH3 0xD4E JUMP JUMPDEST SWAP3 PUSH3 0xDFF SWAP1 PUSH1 0xA0 SWAP6 SWAP3 PUSH3 0xE0E SWAP5 SWAP10 SWAP9 SWAP8 SWAP10 PUSH1 0x1 DUP1 DUP10 SHL SUB DUP1 SWAP3 AND DUP8 MSTORE AND PUSH1 0x20 DUP7 ADD MSTORE PUSH1 0xC0 PUSH1 0x40 DUP7 ADD MSTORE PUSH1 0xC0 DUP6 ADD SWAP1 PUSH3 0xB2F JUMP JUMPDEST SWAP1 DUP4 DUP3 SUB PUSH1 0x60 DUP6 ADD MSTORE PUSH3 0xB2F JUMP JUMPDEST SWAP5 PUSH1 0x80 DUP3 ADD MSTORE ADD MSTORE JUMP JUMPDEST SWAP1 DUP1 PUSH1 0x20 SWAP4 SWAP3 DUP2 DUP5 MSTORE DUP5 DUP5 ADD CALLDATACOPY PUSH0 DUP3 DUP3 ADD DUP5 ADD MSTORE PUSH1 0x1F ADD PUSH1 0x1F NOT AND ADD ADD SWAP1 JUMP JUMPDEST SWAP3 SWAP2 SWAP3 PUSH1 0x1 PUSH1 0x1 PUSH1 0x40 SHL SUB DUP3 GT PUSH3 0x7F6 JUMPI PUSH1 0x40 MLOAD SWAP2 PUSH3 0xE64 PUSH1 0x1F DUP3 ADD PUSH1 0x1F NOT AND PUSH1 0x20 ADD DUP5 PUSH3 0xCFA JUMP JUMPDEST DUP3 SWAP5 DUP2 DUP5 MSTORE DUP2 DUP4 ADD GT PUSH3 0xB14 JUMPI DUP3 DUP2 PUSH1 0x20 SWAP4 DUP5 PUSH0 SWAP7 ADD CALLDATACOPY ADD ADD MSTORE JUMP JUMPDEST PUSH1 0x1 PUSH1 0x1 PUSH1 0x40 SHL SUB DUP2 GT PUSH3 0x7F6 JUMPI PUSH1 0x5 SHL PUSH1 0x20 ADD SWAP1 JUMP JUMPDEST SWAP1 PUSH1 0x40 MLOAD PUSH3 0xEA8 DUP2 PUSH3 0xCDE JUMP JUMPDEST PUSH1 0xA0 PUSH1 0x5 DUP3 SWAP5 PUSH1 0x1 DUP1 DUP5 SHL SUB DUP1 DUP3 SLOAD AND DUP6 MSTORE PUSH1 0x1 DUP3 ADD SLOAD AND PUSH1 0x20 DUP6 ADD MSTORE PUSH3 0xED3 PUSH1 0x2 DUP3 ADD PUSH3 0xD1C JUMP JUMPDEST PUSH1 0x40 DUP6 ADD MSTORE PUSH3 0xEE6 PUSH1 0x3 DUP3 ADD PUSH3 0xD1C JUMP JUMPDEST PUSH1 0x60 DUP6 ADD MSTORE PUSH1 0x4 DUP2 ADD SLOAD PUSH1 0x80 DUP6 ADD MSTORE ADD SLOAD SWAP2 ADD MSTORE JUMP JUMPDEST SWAP2 SWAP1 DUP3 SUB SWAP2 DUP3 GT PUSH3 0xF0A JUMPI JUMP JUMPDEST PUSH4 0x4E487B71 PUSH1 0xE0 SHL PUSH0 MSTORE PUSH1 0x11 PUSH1 0x4 MSTORE PUSH1 0x24 PUSH0 REVERT JUMPDEST DUP1 MLOAD DUP3 LT ISZERO PUSH3 0xC8F JUMPI PUSH1 0x20 SWAP2 PUSH1 0x5 SHL ADD ADD SWAP1 JUMP JUMPDEST SWAP2 SWAP1 PUSH0 DUP1 SLOAD SWAP2 DUP3 DUP6 LT ISZERO PUSH3 0x106E JUMPI DUP5 ADD SWAP2 DUP3 DUP6 GT PUSH3 0x105A JUMPI DUP1 DUP4 GT PUSH3 0x1051 JUMPI JUMPDEST POP PUSH3 0xF63 DUP5 DUP4 PUSH3 0xEFC JUMP JUMPDEST SWAP4 PUSH3 0xF6F DUP6 PUSH3 0xE81 JUMP JUMPDEST SWAP5 PUSH1 0x40 SWAP1 PUSH3 0xF81 DUP3 MLOAD SWAP8 DUP9 PUSH3 0xCFA JUMP JUMPDEST DUP1 DUP8 MSTORE PUSH3 0xF92 PUSH1 0x1F NOT SWAP2 PUSH3 0xE81 JUMP JUMPDEST ADD SWAP1 DUP4 JUMPDEST DUP3 DUP2 LT PUSH3 0x1015 JUMPI POP POP POP DUP5 DUP2 JUMPDEST DUP5 DUP2 LT PUSH3 0xFB3 JUMPI POP POP POP POP POP JUMP JUMPDEST PUSH3 0xFEE PUSH3 0xFC2 DUP3 PUSH3 0xC27 JUMP JUMPDEST POP PUSH3 0xFDA PUSH3 0xFD3 DUP7 DUP6 PUSH3 0xEFC JUMP JUMPDEST SWAP2 PUSH3 0xE99 JUMP JUMPDEST PUSH3 0xFE6 DUP3 DUP7 PUSH3 0xF1E JUMP JUMPDEST MSTORE DUP4 PUSH3 0xF1E JUMP JUMPDEST POP PUSH0 NOT DUP2 EQ PUSH3 0x1001 JUMPI PUSH1 0x1 ADD PUSH3 0xFA4 JUMP JUMPDEST PUSH4 0x4E487B71 PUSH1 0xE0 SHL DUP5 MSTORE PUSH1 0x11 PUSH1 0x4 MSTORE PUSH1 0x24 DUP5 REVERT JUMPDEST PUSH1 0x20 SWAP1 DUP3 MLOAD PUSH3 0x1025 DUP2 PUSH3 0xCDE JUMP JUMPDEST DUP7 DUP2 MSTORE DUP3 DUP8 DUP2 DUP4 ADD MSTORE PUSH1 0x60 DUP1 DUP7 DUP5 ADD MSTORE DUP1 DUP4 ADD MSTORE DUP8 PUSH1 0x80 DUP4 ADD MSTORE DUP8 PUSH1 0xA0 DUP4 ADD MSTORE DUP3 DUP12 ADD ADD MSTORE ADD PUSH3 0xF96 JUMP JUMPDEST SWAP2 POP PUSH0 PUSH3 0xF56 JUMP JUMPDEST PUSH4 0x4E487B71 PUSH1 0xE0 SHL DUP3 MSTORE PUSH1 0x11 PUSH1 0x4 MSTORE PUSH1 0x24 DUP3 REVERT JUMPDEST POP SWAP2 SWAP3 POP POP PUSH1 0x40 MLOAD SWAP1 PUSH1 0x20 DUP3 ADD DUP3 DUP2 LT PUSH1 0x1 PUSH1 0x1 PUSH1 0x40 SHL SUB DUP3 GT OR PUSH3 0xAA2 JUMPI PUSH1 0x40 MSTORE DUP2 MSTORE SWAP1 JUMP INVALID PUSH1 0x40 PUSH1 0xC0 DUP2 MSTORE CALLVALUE PUSH3 0x676 JUMPI PUSH3 0x1686 DUP1 CODESIZE SUB DUP1 PUSH3 0x1E DUP2 PUSH3 0x67A JUMP JUMPDEST SWAP3 DUP4 CODECOPY DUP2 ADD PUSH2 0x120 DUP3 DUP3 SUB SLT PUSH3 0x676 JUMPI DUP2 MLOAD PUSH1 0x1 PUSH1 0x1 PUSH1 0x40 SHL SUB DUP2 GT PUSH3 0x676 JUMPI DUP2 PUSH3 0x4E SWAP2 DUP5 ADD PUSH3 0x6A0 JUMP JUMPDEST PUSH1 0x20 DUP4 ADD MLOAD SWAP1 SWAP2 PUSH1 0x1 PUSH1 0x1 PUSH1 0x40 SHL SUB DUP3 GT PUSH3 0x676 JUMPI PUSH3 0x71 SWAP2 DUP5 ADD PUSH3 0x6A0 JUMP JUMPDEST SWAP1 DUP4 DUP4 ADD MLOAD SWAP3 PUSH1 0x60 DUP2 ADD MLOAD SWAP3 PUSH1 0x80 DUP3 ADD MLOAD SWAP4 PUSH1 0xA0 DUP4 ADD MLOAD SWAP1 PUSH1 0xC0 DUP5 ADD MLOAD SWAP3 PUSH2 0x100 PUSH1 0xE0 DUP7 ADD MLOAD SWAP6 ADD MLOAD SWAP6 PUSH1 0x1 DUP1 PUSH1 0xA0 SHL SUB DUP8 AND DUP8 SUB PUSH3 0x676 JUMPI DUP1 MLOAD SWAP1 PUSH1 0x1 PUSH1 0x1 PUSH1 0x40 SHL SUB DUP3 GT PUSH3 0x54E JUMPI PUSH1 0x3 SLOAD SWAP1 PUSH1 0x1 DUP3 DUP2 SHR SWAP3 AND DUP1 ISZERO PUSH3 0x66B JUMPI JUMPDEST PUSH1 0x20 DUP4 LT EQ PUSH3 0x52F JUMPI DUP2 PUSH1 0x1F DUP5 SWAP4 GT PUSH3 0x5FB JUMPI JUMPDEST POP PUSH1 0x20 SWAP1 PUSH1 0x1F DUP4 GT PUSH1 0x1 EQ PUSH3 0x56E JUMPI PUSH0 SWAP3 PUSH3 0x562 JUMPI JUMPDEST POP POP DUP2 PUSH1 0x1 SHL SWAP2 PUSH0 NOT SWAP1 PUSH1 0x3 SHL SHR NOT AND OR PUSH1 0x3 SSTORE JUMPDEST DUP1 MLOAD SWAP1 PUSH1 0x1 PUSH1 0x1 PUSH1 0x40 SHL SUB DUP3 GT PUSH3 0x54E JUMPI PUSH1 0x4 SLOAD SWAP1 PUSH1 0x1 DUP3 DUP2 SHR SWAP3 AND DUP1 ISZERO PUSH3 0x543 JUMPI JUMPDEST PUSH1 0x20 DUP4 LT EQ PUSH3 0x52F JUMPI DUP2 PUSH1 0x1F DUP5 SWAP4 GT PUSH3 0x4BC JUMPI JUMPDEST POP PUSH1 0x20 SWAP1 PUSH1 0x1F DUP4 GT PUSH1 0x1 EQ PUSH3 0x42F JUMPI PUSH0 SWAP3 PUSH3 0x423 JUMPI JUMPDEST POP POP DUP2 PUSH1 0x1 SHL SWAP2 PUSH0 NOT SWAP1 PUSH1 0x3 SHL SHR NOT AND OR PUSH1 0x4 SSTORE JUMPDEST CALLER ISZERO PUSH3 0x40C JUMPI PUSH1 0x5 DUP1 SLOAD CALLER PUSH1 0x1 PUSH1 0x1 PUSH1 0xA0 SHL SUB NOT DUP1 DUP4 AND DUP3 OR SWAP1 SWAP4 SSTORE DUP11 MLOAD SWAP3 SWAP9 SWAP3 SWAP2 PUSH1 0x1 PUSH1 0x1 PUSH1 0xA0 SHL SUB AND PUSH32 0x8BE0079C531659141344CD1FD0A4F28419497F9722A3DAAFE3B4186F6B6457E0 PUSH0 DUP1 LOG3 PUSH1 0x1 DUP4 LT ISZERO DUP1 PUSH3 0x400 JUMPI JUMPDEST ISZERO PUSH3 0x3BE JUMPI POP PUSH2 0x3E8 DUP1 DUP5 GT PUSH3 0x38A JUMPI DUP5 GT PUSH3 0x355 JUMPI PUSH1 0x1 PUSH1 0x1 PUSH1 0xA0 SHL SUB DUP7 AND ISZERO PUSH3 0x311 JUMPI PUSH8 0xDE0B6B3A7640000 DUP1 DUP10 MUL SWAP9 DUP1 DUP11 DIV DUP3 EQ DUP2 ISZERO OR ISZERO PUSH3 0x2FD JUMPI DUP4 MUL MUL SWAP2 DUP9 DUP4 DIV EQ DUP9 ISZERO OR ISZERO PUSH3 0x2FD JUMPI PUSH1 0x64 PUSH3 0x23E SWAP3 DIV PUSH1 0x80 MSTORE NUMBER PUSH3 0x710 JUMP JUMPDEST PUSH1 0xA0 MSTORE PUSH1 0x8 SSTORE PUSH1 0x9 SSTORE PUSH1 0x6 SSTORE PUSH1 0x1 DUP1 PUSH1 0xA0 SHL SUB AND SWAP1 PUSH1 0xA SLOAD AND OR PUSH1 0xA SSTORE CALLER PUSH0 MSTORE PUSH1 0xB PUSH1 0x20 MSTORE DUP2 PUSH0 KECCAK256 PUSH1 0xFF NOT SWAP1 PUSH1 0x1 DUP3 DUP3 SLOAD AND OR SWAP1 SSTORE ADDRESS PUSH0 MSTORE PUSH1 0x1 DUP4 PUSH0 KECCAK256 SWAP2 DUP3 SLOAD AND OR SWAP1 SSTORE PUSH3 0x290 DUP2 PUSH1 0x2 SLOAD PUSH3 0x710 JUMP JUMPDEST PUSH1 0x2 SSTORE CALLER PUSH0 MSTORE PUSH0 PUSH1 0x20 MSTORE DUP2 PUSH0 KECCAK256 DUP2 DUP2 SLOAD ADD SWAP1 SSTORE DUP2 MLOAD SWAP1 DUP2 MSTORE PUSH0 PUSH32 0xDDF252AD1BE2C89B69C2B068FC378DAA952BA7F163C4A11628F55A4DF523B3EF PUSH1 0x20 CALLER SWAP4 LOG3 MLOAD PUSH2 0xF67 SWAP1 DUP2 PUSH3 0x71F DUP3 CODECOPY PUSH1 0x80 MLOAD DUP2 DUP2 DUP2 PUSH2 0x40A ADD MSTORE PUSH2 0xD45 ADD MSTORE PUSH1 0xA0 MLOAD DUP2 DUP2 DUP2 PUSH2 0x596 ADD MSTORE PUSH2 0xBB5 ADD MSTORE RETURN JUMPDEST PUSH4 0x4E487B71 PUSH1 0xE0 SHL PUSH0 MSTORE PUSH1 0x11 PUSH1 0x4 MSTORE PUSH1 0x24 PUSH0 REVERT JUMPDEST DUP9 MLOAD PUSH3 0x461BCD PUSH1 0xE5 SHL DUP2 MSTORE PUSH1 0x20 PUSH1 0x4 DUP3 ADD MSTORE PUSH1 0x14 PUSH1 0x24 DUP3 ADD MSTORE PUSH32 0x496E76616C696420746178207265636569766572000000000000000000000000 PUSH1 0x44 DUP3 ADD MSTORE PUSH1 0x64 SWAP1 REVERT JUMPDEST DUP9 MLOAD PUSH3 0x461BCD PUSH1 0xE5 SHL DUP2 MSTORE PUSH1 0x20 PUSH1 0x4 DUP3 ADD MSTORE PUSH1 0xE PUSH1 0x24 DUP3 ADD MSTORE PUSH14 0x53656C6C20746178203E20313025 PUSH1 0x90 SHL PUSH1 0x44 DUP3 ADD MSTORE PUSH1 0x64 SWAP1 REVERT JUMPDEST DUP10 MLOAD PUSH3 0x461BCD PUSH1 0xE5 SHL DUP2 MSTORE PUSH1 0x20 PUSH1 0x4 DUP3 ADD MSTORE PUSH1 0xD PUSH1 0x24 DUP3 ADD MSTORE PUSH13 0x42757920746178203E20313025 PUSH1 0x98 SHL PUSH1 0x44 DUP3 ADD MSTORE PUSH1 0x64 SWAP1 REVERT JUMPDEST PUSH3 0x461BCD PUSH1 0xE5 SHL DUP2 MSTORE PUSH1 0x20 PUSH1 0x4 DUP3 ADD MSTORE PUSH1 0x14 PUSH1 0x24 DUP3 ADD MSTORE PUSH32 0x496E76616C6964206D61782077616C6C65742025000000000000000000000000 PUSH1 0x44 DUP3 ADD MSTORE PUSH1 0x64 SWAP1 REVERT JUMPDEST POP PUSH1 0x64 DUP4 GT ISZERO PUSH3 0x1D7 JUMP JUMPDEST DUP8 MLOAD PUSH4 0x1E4FBDF7 PUSH1 0xE0 SHL DUP2 MSTORE PUSH0 PUSH1 0x4 DUP3 ADD MSTORE PUSH1 0x24 SWAP1 REVERT JUMPDEST ADD MLOAD SWAP1 POP PUSH0 DUP1 PUSH3 0x166 JUMP JUMPDEST PUSH1 0x4 PUSH0 SWAP1 DUP2 MSTORE SWAP4 POP PUSH32 0x8A35ACFBC15FF81A39AE7D344FD709F28E8600B4AA8C65C6B64BFE7FE36BD19B SWAP2 SWAP1 JUMPDEST PUSH1 0x1F NOT DUP5 AND DUP6 LT PUSH3 0x4A0 JUMPI PUSH1 0x1 SWAP5 POP DUP4 PUSH1 0x1F NOT DUP2 AND LT PUSH3 0x487 JUMPI JUMPDEST POP POP POP DUP2 SHL ADD PUSH1 0x4 SSTORE PUSH3 0x17B JUMP JUMPDEST ADD MLOAD PUSH0 NOT PUSH1 0xF8 DUP5 PUSH1 0x3 SHL AND SHR NOT AND SWAP1 SSTORE PUSH0 DUP1 DUP1 PUSH3 0x478 JUMP JUMPDEST DUP2 DUP2 ADD MLOAD DUP4 SSTORE PUSH1 0x20 SWAP5 DUP6 ADD SWAP5 PUSH1 0x1 SWAP1 SWAP4 ADD SWAP3 SWAP1 SWAP2 ADD SWAP1 PUSH3 0x45B JUMP JUMPDEST PUSH1 0x4 PUSH0 MSTORE SWAP1 SWAP2 POP PUSH32 0x8A35ACFBC15FF81A39AE7D344FD709F28E8600B4AA8C65C6B64BFE7FE36BD19B PUSH1 0x1F DUP5 ADD PUSH1 0x5 SHR DUP2 ADD SWAP2 PUSH1 0x20 DUP6 LT PUSH3 0x524 JUMPI JUMPDEST SWAP1 PUSH1 0x1F DUP6 SWAP5 SWAP4 SWAP3 ADD PUSH1 0x5 SHR ADD SWAP1 JUMPDEST DUP2 DUP2 LT PUSH3 0x515 JUMPI POP PUSH3 0x14E JUMP JUMPDEST PUSH0 DUP2 SSTORE DUP5 SWAP4 POP PUSH1 0x1 ADD PUSH3 0x506 JUMP JUMPDEST SWAP1 SWAP2 POP DUP2 SWAP1 PUSH3 0x4F8 JUMP JUMPDEST PUSH4 0x4E487B71 PUSH1 0xE0 SHL PUSH0 MSTORE PUSH1 0x22 PUSH1 0x4 MSTORE PUSH1 0x24 PUSH0 REVERT JUMPDEST SWAP2 PUSH1 0x7F AND SWAP2 PUSH3 0x138 JUMP JUMPDEST PUSH4 0x4E487B71 PUSH1 0xE0 SHL PUSH0 MSTORE PUSH1 0x41 PUSH1 0x4 MSTORE PUSH1 0x24 PUSH0 REVERT JUMPDEST ADD MLOAD SWAP1 POP PUSH0 DUP1 PUSH3 0xFE JUMP JUMPDEST PUSH1 0x3 PUSH0 SWAP1 DUP2 MSTORE SWAP4 POP PUSH32 0xC2575A0E9E593C00F959F8C92F12DB2869C3395A3B0502D05E2516446F71F85B SWAP2 SWAP1 JUMPDEST PUSH1 0x1F NOT DUP5 AND DUP6 LT PUSH3 0x5DF JUMPI PUSH1 0x1 SWAP5 POP DUP4 PUSH1 0x1F NOT DUP2 AND LT PUSH3 0x5C6 JUMPI JUMPDEST POP POP POP DUP2 SHL ADD PUSH1 0x3 SSTORE PUSH3 0x113 JUMP JUMPDEST ADD MLOAD PUSH0 NOT PUSH1 0xF8 DUP5 PUSH1 0x3 SHL AND SHR NOT AND SWAP1 SSTORE PUSH0 DUP1 DUP1 PUSH3 0x5B7 JUMP JUMPDEST DUP2 DUP2 ADD MLOAD DUP4 SSTORE PUSH1 0x20 SWAP5 DUP6 ADD SWAP5 PUSH1 0x1 SWAP1 SWAP4 ADD SWAP3 SWAP1 SWAP2 ADD SWAP1 PUSH3 0x59A JUMP JUMPDEST PUSH1 0x3 PUSH0 MSTORE SWAP1 SWAP2 POP PUSH32 0xC2575A0E9E593C00F959F8C92F12DB2869C3395A3B0502D05E2516446F71F85B PUSH1 0x1F DUP5 ADD PUSH1 0x5 SHR DUP2 ADD PUSH1 0x20 DUP6 LT PUSH3 0x663 JUMPI JUMPDEST SWAP1 DUP5 SWAP4 SWAP3 SWAP2 JUMPDEST PUSH1 0x1F DUP4 ADD PUSH1 0x5 SHR DUP3 ADD DUP2 LT PUSH3 0x654 JUMPI POP POP PUSH3 0xE6 JUMP JUMPDEST PUSH0 DUP2 SSTORE DUP6 SWAP5 POP PUSH1 0x1 ADD PUSH3 0x63C JUMP JUMPDEST POP DUP1 PUSH3 0x636 JUMP JUMPDEST SWAP2 PUSH1 0x7F AND SWAP2 PUSH3 0xD0 JUMP JUMPDEST PUSH0 DUP1 REVERT JUMPDEST PUSH1 0x40 MLOAD SWAP2 SWAP1 PUSH1 0x1F ADD PUSH1 0x1F NOT AND DUP3 ADD PUSH1 0x1 PUSH1 0x1 PUSH1 0x40 SHL SUB DUP2 GT DUP4 DUP3 LT OR PUSH3 0x54E JUMPI PUSH1 0x40 MSTORE JUMP JUMPDEST SWAP2 SWAP1 DUP1 PUSH1 0x1F DUP5 ADD SLT ISZERO PUSH3 0x676 JUMPI DUP3 MLOAD PUSH1 0x1 PUSH1 0x1 PUSH1 0x40 SHL SUB DUP2 GT PUSH3 0x54E JUMPI PUSH1 0x20 SWAP1 PUSH3 0x6D6 PUSH1 0x1F DUP3 ADD PUSH1 0x1F NOT AND DUP4 ADD PUSH3 0x67A JUMP JUMPDEST SWAP3 DUP2 DUP5 MSTORE DUP3 DUP3 DUP8 ADD ADD GT PUSH3 0x676 JUMPI PUSH0 JUMPDEST DUP2 DUP2 LT PUSH3 0x6FC JUMPI POP DUP3 PUSH0 SWAP4 SWAP5 SWAP6 POP ADD ADD MSTORE SWAP1 JUMP JUMPDEST DUP6 DUP2 ADD DUP4 ADD MLOAD DUP5 DUP3 ADD DUP5 ADD MSTORE DUP3 ADD PUSH3 0x6E7 JUMP JUMPDEST SWAP2 SWAP1 DUP3 ADD DUP1 SWAP3 GT PUSH3 0x2FD JUMPI JUMP INVALID PUSH1 0x80 PUSH1 0x40 DUP2 DUP2 MSTORE PUSH1 0x4 DUP1 CALLDATASIZE LT ISZERO PUSH2 0x14 JUMPI PUSH0 DUP1 REVERT JUMPDEST PUSH0 SWAP3 DUP4 CALLDATALOAD PUSH1 0xE0 SHR SWAP1 DUP2 PUSH4 0x6FDDE03 EQ PUSH2 0x966 JUMPI POP DUP1 PUSH4 0x95EA7B3 EQ PUSH2 0x8BD JUMPI DUP1 PUSH4 0xEFF6427 EQ PUSH2 0x89E JUMPI DUP1 PUSH4 0x18160DDD EQ PUSH2 0x87F JUMPI DUP1 PUSH4 0x23B872DD EQ PUSH2 0x78D JUMPI DUP1 PUSH4 0x2836BE24 EQ PUSH2 0x70B JUMPI DUP1 PUSH4 0x313CE567 EQ PUSH2 0x6EF JUMPI DUP1 PUSH4 0x33CBEAA0 EQ PUSH2 0x6B7 JUMPI DUP1 PUSH4 0x5CCE86CD EQ PUSH2 0x679 JUMPI DUP1 PUSH4 0x70A08231 EQ PUSH2 0x642 JUMPI DUP1 PUSH4 0x715018A6 EQ PUSH2 0x5E2 JUMPI DUP1 PUSH4 0x8DA5CB5B EQ PUSH2 0x5B9 JUMPI DUP1 PUSH4 0x91A83FEA EQ PUSH2 0x57E JUMPI DUP1 PUSH4 0x95D89B41 EQ PUSH2 0x45E JUMPI DUP1 PUSH4 0xA9059CBB EQ PUSH2 0x42D JUMPI DUP1 PUSH4 0xAA4BDE28 EQ PUSH2 0x3F2 JUMPI DUP1 PUSH4 0xB9A410FF EQ PUSH2 0x2FF JUMPI DUP1 PUSH4 0xC473413A EQ PUSH2 0x2E0 JUMPI DUP1 PUSH4 0xCFFD129C EQ PUSH2 0x2C1 JUMPI DUP1 PUSH4 0xDD62ED3E EQ PUSH2 0x278 JUMPI DUP1 PUSH4 0xE6EF73D6 EQ PUSH2 0x24B JUMPI DUP1 PUSH4 0xE8891DE8 EQ PUSH2 0x1AF JUMPI PUSH4 0xF2FDE38B EQ PUSH2 0x11D JUMPI PUSH0 DUP1 REVERT JUMPDEST CALLVALUE PUSH2 0x1AB JUMPI PUSH1 0x20 CALLDATASIZE PUSH1 0x3 NOT ADD SLT PUSH2 0x1AB JUMPI PUSH2 0x136 PUSH2 0xAA2 JUMP JUMPDEST SWAP1 PUSH2 0x13F PUSH2 0xAD2 JUMP JUMPDEST PUSH1 0x1 PUSH1 0x1 PUSH1 0xA0 SHL SUB SWAP2 DUP3 AND SWAP3 DUP4 ISZERO PUSH2 0x195 JUMPI POP POP PUSH1 0x5 SLOAD DUP3 PUSH12 0xFFFFFFFFFFFFFFFFFFFFFFFF PUSH1 0xA0 SHL DUP3 AND OR PUSH1 0x5 SSTORE AND PUSH32 0x8BE0079C531659141344CD1FD0A4F28419497F9722A3DAAFE3B4186F6B6457E0 DUP4 DUP1 LOG3 DUP1 RETURN JUMPDEST MLOAD PUSH4 0x1E4FBDF7 PUSH1 0xE0 SHL DUP2 MSTORE SWAP1 DUP2 ADD DUP5 SWAP1 MSTORE PUSH1 0x24 SWAP1 REVERT JUMPDEST DUP3 DUP1 REVERT JUMPDEST POP SWAP1 CALLVALUE PUSH2 0x1AB JUMPI PUSH1 0x20 CALLDATASIZE PUSH1 0x3 NOT ADD SLT PUSH2 0x1AB JUMPI DUP2 CALLDATALOAD SWAP2 PUSH2 0x1CD PUSH2 0xAD2 JUMP JUMPDEST PUSH1 0x6 SLOAD DUP4 LT ISZERO PUSH2 0x209 JUMPI POP DUP2 PUSH1 0x20 SWAP2 PUSH32 0x583D8B24C5439AB7D810E51E37E8DB41BA66F1168FD7B752CEAE0C7681C5272C SWAP4 PUSH1 0x6 SSTORE MLOAD SWAP1 DUP2 MSTORE LOG1 DUP1 RETURN JUMPDEST PUSH1 0x20 PUSH1 0x64 SWAP3 MLOAD SWAP2 PUSH3 0x461BCD PUSH1 0xE5 SHL DUP4 MSTORE DUP3 ADD MSTORE PUSH1 0x18 PUSH1 0x24 DUP3 ADD MSTORE PUSH32 0x43616E6E6F7420696E63726561736520636F6F6C646F776E0000000000000000 PUSH1 0x44 DUP3 ADD MSTORE REVERT JUMPDEST POP POP CALLVALUE PUSH2 0x274 JUMPI DUP2 PUSH1 0x3 NOT CALLDATASIZE ADD SLT PUSH2 0x274 JUMPI PUSH1 0xA SLOAD SWAP1 MLOAD PUSH1 0x1 PUSH1 0x1 PUSH1 0xA0 SHL SUB SWAP1 SWAP2 AND DUP2 MSTORE PUSH1 0x20 SWAP1 RETURN JUMPDEST POP DUP1 REVERT JUMPDEST POP POP CALLVALUE PUSH2 0x274 JUMPI DUP1 PUSH1 0x3 NOT CALLDATASIZE ADD SLT PUSH2 0x274 JUMPI DUP1 PUSH1 0x20 SWAP3 PUSH2 0x296 PUSH2 0xAA2 JUMP JUMPDEST PUSH2 0x29E PUSH2 0xABC JUMP JUMPDEST PUSH1 0x1 PUSH1 0x1 PUSH1 0xA0 SHL SUB SWAP2 DUP3 AND DUP4 MSTORE PUSH1 0x1 DUP7 MSTORE DUP4 DUP4 KECCAK256 SWAP2 AND DUP3 MSTORE DUP5 MSTORE KECCAK256 SLOAD SWAP1 MLOAD SWAP1 DUP2 MSTORE RETURN JUMPDEST POP POP CALLVALUE PUSH2 0x274 JUMPI DUP2 PUSH1 0x3 NOT CALLDATASIZE ADD SLT PUSH2 0x274 JUMPI PUSH1 0x20 SWAP1 PUSH1 0x9 SLOAD SWAP1 MLOAD SWAP1 DUP2 MSTORE RETURN JUMPDEST POP POP CALLVALUE PUSH2 0x274 JUMPI DUP2 PUSH1 0x3 NOT CALLDATASIZE ADD SLT PUSH2 0x274 JUMPI PUSH1 0x20 SWAP1 PUSH1 0x8 SLOAD SWAP1 MLOAD SWAP1 DUP2 MSTORE RETURN JUMPDEST POP SWAP2 SWAP1 CALLVALUE PUSH2 0x274 JUMPI DUP1 PUSH1 0x3 NOT CALLDATASIZE ADD SLT PUSH2 0x274 JUMPI DUP3 CALLDATALOAD PUSH1 0x24 CALLDATALOAD SWAP4 PUSH2 0x320 PUSH2 0xAD2 JUMP JUMPDEST PUSH1 0x8 SLOAD DUP3 GT PUSH2 0x3AF JUMPI PUSH1 0x9 SLOAD DUP6 GT PUSH2 0x36C JUMPI POP PUSH32 0xB841FAF0D1B32571F4EF966A2F35E3AE51F3CDDA45318C3DA5570A5B2AD85605 SWAP3 SWAP4 DUP2 PUSH1 0x8 SSTORE DUP1 PUSH1 0x9 SSTORE DUP3 MLOAD SWAP2 DUP3 MSTORE PUSH1 0x20 DUP3 ADD MSTORE LOG1 DUP1 RETURN JUMPDEST PUSH1 0x64 SWAP1 PUSH1 0x20 DUP5 MLOAD SWAP2 PUSH3 0x461BCD PUSH1 0xE5 SHL DUP4 MSTORE DUP3 ADD MSTORE PUSH1 0x18 PUSH1 0x24 DUP3 ADD MSTORE PUSH32 0x43616E6E6F7420696E6372656173652073656C6C207461780000000000000000 PUSH1 0x44 DUP3 ADD MSTORE REVERT JUMPDEST PUSH1 0x64 SWAP1 PUSH1 0x20 DUP5 MLOAD SWAP2 PUSH3 0x461BCD PUSH1 0xE5 SHL DUP4 MSTORE DUP3 ADD MSTORE PUSH1 0x17 PUSH1 0x24 DUP3 ADD MSTORE PUSH32 0x43616E6E6F7420696E6372656173652062757920746178000000000000000000 PUSH1 0x44 DUP3 ADD MSTORE REVERT JUMPDEST POP POP CALLVALUE PUSH2 0x274 JUMPI DUP2 PUSH1 0x3 NOT CALLDATASIZE ADD SLT PUSH2 0x274 JUMPI PUSH1 0x20 SWAP1 MLOAD PUSH32 0x0 DUP2 MSTORE RETURN JUMPDEST POP POP CALLVALUE PUSH2 0x274 JUMPI DUP1 PUSH1 0x3 NOT CALLDATASIZE ADD SLT PUSH2 0x274 JUMPI PUSH1 0x20 SWAP1 PUSH2 0x457 PUSH2 0x44D PUSH2 0xAA2 JUMP JUMPDEST PUSH1 0x24 CALLDATALOAD SWAP1 CALLER PUSH2 0xAFE JUMP JUMPDEST MLOAD PUSH1 0x1 DUP2 MSTORE RETURN JUMPDEST POP SWAP2 SWAP1 CALLVALUE PUSH2 0x274 JUMPI DUP2 PUSH1 0x3 NOT CALLDATASIZE ADD SLT PUSH2 0x274 JUMPI DUP1 MLOAD SWAP1 DUP3 DUP5 SLOAD PUSH1 0x1 DUP2 DUP2 SHR SWAP1 DUP1 DUP4 AND SWAP3 DUP4 ISZERO PUSH2 0x574 JUMPI JUMPDEST PUSH1 0x20 SWAP4 DUP5 DUP5 LT DUP2 EQ PUSH2 0x561 JUMPI DUP4 DUP9 MSTORE SWAP1 DUP2 ISZERO PUSH2 0x545 JUMPI POP PUSH1 0x1 EQ PUSH2 0x4F0 JUMPI JUMPDEST POP POP POP DUP3 SWAP1 SUB PUSH1 0x1F ADD PUSH1 0x1F NOT AND DUP3 ADD SWAP3 PUSH8 0xFFFFFFFFFFFFFFFF DUP5 GT DUP4 DUP6 LT OR PUSH2 0x4DD JUMPI POP DUP3 SWAP2 DUP3 PUSH2 0x4D9 SWAP3 MSTORE DUP3 PUSH2 0xA5B JUMP JUMPDEST SUB SWAP1 RETURN JUMPDEST PUSH4 0x4E487B71 PUSH1 0xE0 SHL DUP2 MSTORE PUSH1 0x41 DUP6 MSTORE PUSH1 0x24 SWAP1 REVERT JUMPDEST DUP8 DUP8 MSTORE SWAP2 SWAP3 POP DUP6 SWAP2 DUP4 PUSH32 0x8A35ACFBC15FF81A39AE7D344FD709F28E8600B4AA8C65C6B64BFE7FE36BD19B JUMPDEST DUP4 DUP6 LT PUSH2 0x531 JUMPI POP POP POP POP DUP4 ADD ADD PUSH0 DUP1 DUP1 PUSH2 0x4A7 JUMP JUMPDEST DUP1 SLOAD DUP9 DUP7 ADD DUP4 ADD MSTORE SWAP4 ADD SWAP3 DUP5 SWAP1 DUP3 ADD PUSH2 0x51B JUMP JUMPDEST PUSH1 0xFF NOT AND DUP8 DUP6 ADD MSTORE POP POP ISZERO ISZERO PUSH1 0x5 SHL DUP5 ADD ADD SWAP1 POP PUSH0 DUP1 DUP1 PUSH2 0x4A7 JUMP JUMPDEST PUSH4 0x4E487B71 PUSH1 0xE0 SHL DUP10 MSTORE PUSH1 0x22 DUP11 MSTORE PUSH1 0x24 DUP10 REVERT JUMPDEST SWAP2 PUSH1 0x7F AND SWAP2 PUSH2 0x488 JUMP JUMPDEST POP POP CALLVALUE PUSH2 0x274 JUMPI DUP2 PUSH1 0x3 NOT CALLDATASIZE ADD SLT PUSH2 0x274 JUMPI PUSH1 0x20 SWAP1 MLOAD PUSH32 0x0 DUP2 MSTORE RETURN JUMPDEST POP POP CALLVALUE PUSH2 0x274 JUMPI DUP2 PUSH1 0x3 NOT CALLDATASIZE ADD SLT PUSH2 0x274 JUMPI PUSH1 0x5 SLOAD SWAP1 MLOAD PUSH1 0x1 PUSH1 0x1 PUSH1 0xA0 SHL SUB SWAP1 SWAP2 AND DUP2 MSTORE PUSH1 0x20 SWAP1 RETURN JUMPDEST DUP4 CALLVALUE PUSH2 0x63F JUMPI DUP1 PUSH1 0x3 NOT CALLDATASIZE ADD SLT PUSH2 0x63F JUMPI PUSH2 0x5FB PUSH2 0xAD2 JUMP JUMPDEST PUSH1 0x5 DUP1 SLOAD PUSH1 0x1 PUSH1 0x1 PUSH1 0xA0 SHL SUB NOT DUP2 AND SWAP1 SWAP2 SSTORE DUP2 SWAP1 PUSH1 0x1 PUSH1 0x1 PUSH1 0xA0 SHL SUB AND PUSH32 0x8BE0079C531659141344CD1FD0A4F28419497F9722A3DAAFE3B4186F6B6457E0 DUP3 DUP1 LOG3 DUP1 RETURN JUMPDEST DUP1 REVERT JUMPDEST POP POP CALLVALUE PUSH2 0x274 JUMPI PUSH1 0x20 CALLDATASIZE PUSH1 0x3 NOT ADD SLT PUSH2 0x274 JUMPI PUSH1 0x20 SWAP2 DUP2 SWAP1 PUSH1 0x1 PUSH1 0x1 PUSH1 0xA0 SHL SUB PUSH2 0x66A PUSH2 0xAA2 JUMP JUMPDEST AND DUP2 MSTORE DUP1 DUP5 MSTORE KECCAK256 SLOAD SWAP1 MLOAD SWAP1 DUP2 MSTORE RETURN JUMPDEST POP POP CALLVALUE PUSH2 0x274 JUMPI PUSH1 0x20 CALLDATASIZE PUSH1 0x3 NOT ADD SLT PUSH2 0x274 JUMPI PUSH1 0x20 SWAP2 PUSH1 0xFF SWAP1 DUP3 SWAP1 PUSH1 0x1 PUSH1 0x1 PUSH1 0xA0 SHL SUB PUSH2 0x6A4 PUSH2 0xAA2 JUMP JUMPDEST AND DUP2 MSTORE PUSH1 0xB DUP6 MSTORE KECCAK256 SLOAD AND SWAP1 MLOAD SWAP1 ISZERO ISZERO DUP2 MSTORE RETURN JUMPDEST POP POP CALLVALUE PUSH2 0x274 JUMPI PUSH1 0x20 CALLDATASIZE PUSH1 0x3 NOT ADD SLT PUSH2 0x274 JUMPI PUSH1 0x20 SWAP2 DUP2 SWAP1 PUSH1 0x1 PUSH1 0x1 PUSH1 0xA0 SHL SUB PUSH2 0x6DF PUSH2 0xAA2 JUMP JUMPDEST AND DUP2 MSTORE PUSH1 0x7 DUP5 MSTORE KECCAK256 SLOAD SWAP1 MLOAD SWAP1 DUP2 MSTORE RETURN JUMPDEST POP POP CALLVALUE PUSH2 0x274 JUMPI DUP2 PUSH1 0x3 NOT CALLDATASIZE ADD SLT PUSH2 0x274 JUMPI PUSH1 0x20 SWAP1 MLOAD PUSH1 0x12 DUP2 MSTORE RETURN JUMPDEST POP POP CALLVALUE PUSH2 0x274 JUMPI DUP1 PUSH1 0x3 NOT CALLDATASIZE ADD SLT PUSH2 0x274 JUMPI PUSH2 0x725 PUSH2 0xAA2 JUMP JUMPDEST PUSH1 0x24 CALLDATALOAD SWAP1 DUP2 ISZERO ISZERO DUP1 SWAP3 SUB PUSH2 0x789 JUMPI PUSH32 0x83F2B279B6151AF5A15CDBE8471D34FE8B34AED9BD9514FFEADB57C9EA366E61 SWAP2 PUSH1 0x20 SWAP2 PUSH2 0x760 PUSH2 0xAD2 JUMP JUMPDEST PUSH1 0x1 PUSH1 0x1 PUSH1 0xA0 SHL SUB AND DUP1 DUP7 MSTORE PUSH1 0xB DUP4 MSTORE DUP5 DUP7 KECCAK256 DUP1 SLOAD PUSH1 0xFF NOT AND PUSH1 0xFF DUP5 AND OR SWAP1 SSTORE SWAP4 MLOAD SWAP1 DUP2 MSTORE LOG2 DUP1 RETURN JUMPDEST DUP4 DUP1 REVERT JUMPDEST POP DUP3 CALLVALUE PUSH2 0x63F JUMPI PUSH1 0x60 CALLDATASIZE PUSH1 0x3 NOT ADD SLT PUSH2 0x63F JUMPI PUSH2 0x7A8 PUSH2 0xAA2 JUMP JUMPDEST PUSH2 0x7B0 PUSH2 0xABC JUMP JUMPDEST SWAP2 PUSH1 0x44 CALLDATALOAD SWAP4 PUSH1 0x1 DUP1 PUSH1 0xA0 SHL SUB DUP4 AND DUP1 DUP4 MSTORE PUSH1 0x1 PUSH1 0x20 MSTORE DUP7 DUP4 KECCAK256 CALLER DUP5 MSTORE PUSH1 0x20 MSTORE DUP7 DUP4 KECCAK256 SLOAD SWAP2 PUSH0 NOT DUP4 LT PUSH2 0x7EB JUMPI JUMPDEST PUSH1 0x20 DUP9 PUSH2 0x457 DUP10 DUP10 DUP10 PUSH2 0xAFE JUMP JUMPDEST DUP7 DUP4 LT PUSH2 0x853 JUMPI DUP2 ISZERO PUSH2 0x83C JUMPI CALLER ISZERO PUSH2 0x825 JUMPI POP DUP3 MSTORE PUSH1 0x1 PUSH1 0x20 SWAP1 DUP2 MSTORE DUP7 DUP4 KECCAK256 CALLER DUP5 MSTORE DUP2 MSTORE SWAP2 DUP7 SWAP1 KECCAK256 SWAP1 DUP6 SWAP1 SUB SWAP1 SSTORE DUP3 SWAP1 PUSH2 0x457 DUP8 PUSH2 0x7DD JUMP JUMPDEST DUP8 MLOAD PUSH4 0x4A1406B1 PUSH1 0xE1 SHL DUP2 MSTORE SWAP1 DUP2 ADD DUP5 SWAP1 MSTORE PUSH1 0x24 SWAP1 REVERT JUMPDEST DUP8 MLOAD PUSH4 0xE602DF05 PUSH1 0xE0 SHL DUP2 MSTORE SWAP1 DUP2 ADD DUP5 SWAP1 MSTORE PUSH1 0x24 SWAP1 REVERT JUMPDEST DUP8 MLOAD PUSH4 0x7DC7A0D9 PUSH1 0xE1 SHL DUP2 MSTORE CALLER SWAP2 DUP2 ADD SWAP2 DUP3 MSTORE PUSH1 0x20 DUP3 ADD SWAP4 SWAP1 SWAP4 MSTORE PUSH1 0x40 DUP2 ADD DUP8 SWAP1 MSTORE DUP3 SWAP2 POP PUSH1 0x60 ADD SUB SWAP1 REVERT JUMPDEST POP POP CALLVALUE PUSH2 0x274 JUMPI DUP2 PUSH1 0x3 NOT CALLDATASIZE ADD SLT PUSH2 0x274 JUMPI PUSH1 0x20 SWAP1 PUSH1 0x2 SLOAD SWAP1 MLOAD SWAP1 DUP2 MSTORE RETURN JUMPDEST POP POP CALLVALUE PUSH2 0x274 JUMPI DUP2 PUSH1 0x3 NOT CALLDATASIZE ADD SLT PUSH2 0x274 JUMPI PUSH1 0x20 SWAP1 PUSH1 0x6 SLOAD SWAP1 MLOAD SWAP1 DUP2 MSTORE RETURN JUMPDEST POP CALLVALUE PUSH2 0x1AB JUMPI DUP2 PUSH1 0x3 NOT CALLDATASIZE ADD SLT PUSH2 0x1AB JUMPI PUSH2 0x8D6 PUSH2 0xAA2 JUMP JUMPDEST PUSH1 0x24 CALLDATALOAD SWAP1 CALLER ISZERO PUSH2 0x94F JUMPI PUSH1 0x1 PUSH1 0x1 PUSH1 0xA0 SHL SUB AND SWAP2 DUP3 ISZERO PUSH2 0x938 JUMPI POP DUP1 DUP4 PUSH1 0x20 SWAP6 CALLER DUP2 MSTORE PUSH1 0x1 DUP8 MSTORE DUP2 DUP2 KECCAK256 DUP6 DUP3 MSTORE DUP8 MSTORE KECCAK256 SSTORE DUP3 MLOAD SWAP1 DUP2 MSTORE PUSH32 0x8C5BE1E5EBEC7D5BD14F71427D1E84F3DD0314C0F7B2291E5B200AC8C7C3B925 DUP5 CALLER SWAP3 LOG3 MLOAD PUSH1 0x1 DUP2 MSTORE RETURN JUMPDEST DUP4 MLOAD PUSH4 0x4A1406B1 PUSH1 0xE1 SHL DUP2 MSTORE SWAP1 DUP2 ADD DUP6 SWAP1 MSTORE PUSH1 0x24 SWAP1 REVERT JUMPDEST DUP4 MLOAD PUSH4 0xE602DF05 PUSH1 0xE0 SHL DUP2 MSTORE DUP1 DUP5 ADD DUP7 SWAP1 MSTORE PUSH1 0x24 SWAP1 REVERT JUMPDEST DUP5 SWAP2 POP DUP4 CALLVALUE PUSH2 0x1AB JUMPI DUP3 PUSH1 0x3 NOT CALLDATASIZE ADD SLT PUSH2 0x1AB JUMPI DUP3 PUSH1 0x3 SLOAD PUSH1 0x1 DUP2 DUP2 SHR SWAP1 DUP1 DUP4 AND SWAP3 DUP4 ISZERO PUSH2 0xA51 JUMPI JUMPDEST PUSH1 0x20 SWAP4 DUP5 DUP5 LT DUP2 EQ PUSH2 0x561 JUMPI DUP4 DUP9 MSTORE SWAP1 DUP2 ISZERO PUSH2 0xA35 JUMPI POP PUSH1 0x1 EQ PUSH2 0x9DF JUMPI POP POP POP DUP3 SWAP1 SUB PUSH1 0x1F ADD PUSH1 0x1F NOT AND DUP3 ADD SWAP3 PUSH8 0xFFFFFFFFFFFFFFFF DUP5 GT DUP4 DUP6 LT OR PUSH2 0x4DD JUMPI POP DUP3 SWAP2 DUP3 PUSH2 0x4D9 SWAP3 MSTORE DUP3 PUSH2 0xA5B JUMP JUMPDEST PUSH1 0x3 DUP8 MSTORE SWAP2 SWAP3 POP DUP6 SWAP2 DUP4 PUSH32 0xC2575A0E9E593C00F959F8C92F12DB2869C3395A3B0502D05E2516446F71F85B JUMPDEST DUP4 DUP6 LT PUSH2 0xA21 JUMPI POP POP POP POP DUP4 ADD ADD DUP6 DUP1 DUP1 PUSH2 0x4A7 JUMP JUMPDEST DUP1 SLOAD DUP9 DUP7 ADD DUP4 ADD MSTORE SWAP4 ADD SWAP3 DUP5 SWAP1 DUP3 ADD PUSH2 0xA0B JUMP JUMPDEST PUSH1 0xFF NOT AND DUP8 DUP6 ADD MSTORE POP POP ISZERO ISZERO PUSH1 0x5 SHL DUP5 ADD ADD SWAP1 POP DUP6 DUP1 DUP1 PUSH2 0x4A7 JUMP JUMPDEST SWAP2 PUSH1 0x7F AND SWAP2 PUSH2 0x98F JUMP JUMPDEST PUSH1 0x20 DUP1 DUP3 MSTORE DUP3 MLOAD DUP2 DUP4 ADD DUP2 SWAP1 MSTORE SWAP1 SWAP4 SWAP3 PUSH0 JUMPDEST DUP3 DUP2 LT PUSH2 0xA8E JUMPI POP POP PUSH1 0x40 SWAP3 SWAP4 POP PUSH0 DUP4 DUP3 DUP5 ADD ADD MSTORE PUSH1 0x1F DUP1 NOT SWAP2 ADD AND ADD ADD SWAP1 JUMP JUMPDEST DUP2 DUP2 ADD DUP7 ADD MLOAD DUP5 DUP3 ADD PUSH1 0x40 ADD MSTORE DUP6 ADD PUSH2 0xA6D JUMP JUMPDEST PUSH1 0x4 CALLDATALOAD SWAP1 PUSH1 0x1 PUSH1 0x1 PUSH1 0xA0 SHL SUB DUP3 AND DUP3 SUB PUSH2 0xAB8 JUMPI JUMP JUMPDEST PUSH0 DUP1 REVERT JUMPDEST PUSH1 0x24 CALLDATALOAD SWAP1 PUSH1 0x1 PUSH1 0x1 PUSH1 0xA0 SHL SUB DUP3 AND DUP3 SUB PUSH2 0xAB8 JUMPI JUMP JUMPDEST PUSH1 0x5 SLOAD PUSH1 0x1 PUSH1 0x1 PUSH1 0xA0 SHL SUB AND CALLER SUB PUSH2 0xAE6 JUMPI JUMP JUMPDEST PUSH1 0x40 MLOAD PUSH4 0x118CDAA7 PUSH1 0xE0 SHL DUP2 MSTORE CALLER PUSH1 0x4 DUP3 ADD MSTORE PUSH1 0x24 SWAP1 REVERT JUMPDEST SWAP2 SWAP1 PUSH1 0x1 PUSH1 0x1 PUSH1 0xA0 SHL SUB DUP1 DUP5 AND ISZERO PUSH2 0xB3A JUMPI DUP2 AND ISZERO PUSH2 0xB22 JUMPI PUSH2 0xB20 SWAP3 PUSH2 0xB73 JUMP JUMPDEST JUMP JUMPDEST PUSH1 0x40 MLOAD PUSH4 0xEC442F05 PUSH1 0xE0 SHL DUP2 MSTORE PUSH0 PUSH1 0x4 DUP3 ADD MSTORE PUSH1 0x24 SWAP1 REVERT JUMPDEST PUSH1 0x40 MLOAD PUSH4 0x4B637E8F PUSH1 0xE1 SHL DUP2 MSTORE PUSH0 PUSH1 0x4 DUP3 ADD MSTORE PUSH1 0x24 SWAP1 REVERT JUMPDEST SWAP2 SWAP1 DUP3 ADD DUP1 SWAP3 GT PUSH2 0xB5F JUMPI JUMP JUMPDEST PUSH4 0x4E487B71 PUSH1 0xE0 SHL PUSH0 MSTORE PUSH1 0x11 PUSH1 0x4 MSTORE PUSH1 0x24 PUSH0 REVERT JUMPDEST PUSH1 0x1 PUSH1 0x1 PUSH1 0xA0 SHL SUB SWAP4 SWAP3 SWAP2 SWAP1 DUP5 DUP2 AND DUP1 ISZERO DUP1 ISZERO PUSH2 0xE2E JUMPI JUMPDEST PUSH2 0xE22 JUMPI PUSH0 SWAP6 DUP2 DUP8 MSTORE PUSH1 0x20 SWAP2 PUSH1 0xB DUP4 MSTORE PUSH1 0x40 PUSH1 0xFF DUP2 DUP11 KECCAK256 SLOAD AND SWAP4 DUP4 DUP8 AND SWAP5 DUP6 DUP12 MSTORE PUSH1 0xFF DUP4 DUP13 KECCAK256 SLOAD AND PUSH32 0x0 NUMBER GT ISZERO DUP1 PUSH2 0xE1A JUMPI JUMPDEST DUP1 PUSH2 0xE12 JUMPI JUMPDEST PUSH2 0xDBC JUMPI ISZERO SWAP6 DUP7 PUSH2 0xD31 JUMPI JUMPDEST POP ISZERO SWAP3 DUP4 DUP1 PUSH2 0xD26 JUMPI JUMPDEST PUSH2 0xCA7 JUMPI JUMPDEST POP POP POP DUP8 SWAP3 DUP2 PUSH2 0xC9F JUMPI JUMPDEST POP PUSH2 0xC59 JUMPI JUMPDEST DUP2 ISZERO PUSH2 0xC4C JUMPI DUP2 PUSH2 0xC24 SWAP2 PUSH1 0xA SLOAD AND DUP5 PUSH2 0xE38 JUMP JUMPDEST DUP4 SUB SWAP3 DUP4 GT PUSH2 0xC38 JUMPI PUSH2 0xB20 SWAP4 SWAP5 POP PUSH2 0xE38 JUMP JUMPDEST PUSH4 0x4E487B71 PUSH1 0xE0 SHL DUP6 MSTORE PUSH1 0x11 PUSH1 0x4 MSTORE PUSH1 0x24 DUP6 REVERT JUMPDEST POP POP PUSH2 0xB20 SWAP4 SWAP5 POP PUSH2 0xE38 JUMP JUMPDEST SWAP1 POP PUSH1 0x9 SLOAD PUSH1 0x8 SLOAD DUP1 PUSH2 0xC97 JUMPI JUMPDEST POP DUP1 DUP6 MUL SWAP1 DUP6 DUP3 DIV EQ DUP6 ISZERO OR ISZERO PUSH2 0xC83 JUMPI PUSH2 0x2710 SWAP1 DIV SWAP1 PUSH2 0xC0F JUMP JUMPDEST PUSH4 0x4E487B71 PUSH1 0xE0 SHL DUP8 MSTORE PUSH1 0x11 PUSH1 0x4 MSTORE PUSH1 0x24 DUP8 REVERT JUMPDEST SWAP1 POP PUSH0 PUSH2 0xC67 JUMP JUMPDEST SWAP1 POP PUSH0 PUSH2 0xC09 JUMP JUMPDEST DUP1 DUP12 MSTORE PUSH1 0x7 DUP3 MSTORE PUSH2 0xCBE DUP4 DUP13 KECCAK256 SLOAD PUSH1 0x6 SLOAD SWAP1 PUSH2 0xB52 JUMP JUMPDEST TIMESTAMP LT PUSH2 0xCD7 JUMPI DUP11 MSTORE PUSH1 0x7 SWAP1 MSTORE DUP9 KECCAK256 TIMESTAMP SWAP1 SSTORE PUSH0 DUP1 DUP1 PUSH2 0xBFE JUMP JUMPDEST POP PUSH1 0x84 SWAP2 MLOAD SWAP1 PUSH3 0x461BCD PUSH1 0xE5 SHL DUP3 MSTORE PUSH1 0x4 DUP3 ADD MSTORE PUSH1 0x23 PUSH1 0x24 DUP3 ADD MSTORE PUSH32 0x477561726469616E546F6B656E3A2073656C6C20636F6F6C646F776E20616374 PUSH1 0x44 DUP3 ADD MSTORE PUSH3 0x697665 PUSH1 0xE8 SHL PUSH1 0x64 DUP3 ADD MSTORE REVERT JUMPDEST POP PUSH1 0x6 SLOAD ISZERO ISZERO PUSH2 0xBF9 JUMP JUMPDEST DUP12 MSTORE DUP11 DUP3 MSTORE PUSH2 0xD43 DUP10 DUP5 DUP14 KECCAK256 SLOAD PUSH2 0xB52 JUMP JUMPDEST PUSH32 0x0 LT PUSH2 0xD6F JUMPI PUSH0 PUSH2 0xBEF JUMP JUMPDEST POP PUSH1 0x84 SWAP2 MLOAD SWAP1 PUSH3 0x461BCD PUSH1 0xE5 SHL DUP3 MSTORE PUSH1 0x4 DUP3 ADD MSTORE PUSH1 0x21 PUSH1 0x24 DUP3 ADD MSTORE PUSH32 0x477561726469616E546F6B656E3A2065786365656473206D61782077616C6C65 PUSH1 0x44 DUP3 ADD MSTORE PUSH1 0x1D PUSH1 0xFA SHL PUSH1 0x64 DUP3 ADD MSTORE REVERT JUMPDEST DUP4 MLOAD PUSH3 0x461BCD PUSH1 0xE5 SHL DUP2 MSTORE PUSH1 0x4 DUP2 ADD DUP5 SWAP1 MSTORE PUSH1 0x29 PUSH1 0x24 DUP3 ADD MSTORE PUSH32 0x477561726469616E546F6B656E3A20616E74692D626F742070726F7465637469 PUSH1 0x44 DUP3 ADD MSTORE PUSH9 0x6F6E20616374697665 PUSH1 0xB8 SHL PUSH1 0x64 DUP3 ADD MSTORE PUSH1 0x84 SWAP1 REVERT JUMPDEST POP DUP1 ISZERO PUSH2 0xBE3 JUMP JUMPDEST POP DUP2 ISZERO PUSH2 0xBDD JUMP JUMPDEST POP PUSH2 0xB20 SWAP4 SWAP5 POP PUSH2 0xE38 JUMP JUMPDEST POP DUP6 DUP4 AND ISZERO PUSH2 0xB8B JUMP JUMPDEST PUSH1 0x1 PUSH1 0x1 PUSH1 0xA0 SHL SUB DUP1 DUP3 AND SWAP3 SWAP1 SWAP2 DUP4 PUSH2 0xEAF JUMPI POP PUSH32 0xDDF252AD1BE2C89B69C2B068FC378DAA952BA7F163C4A11628F55A4DF523B3EF SWAP2 PUSH1 0x20 SWAP2 PUSH2 0xE7D DUP7 PUSH1 0x2 SLOAD PUSH2 0xB52 JUMP JUMPDEST PUSH1 0x2 SSTORE JUMPDEST AND SWAP4 DUP5 PUSH2 0xE9A JUMPI DUP1 PUSH1 0x2 SLOAD SUB PUSH1 0x2 SSTORE JUMPDEST PUSH1 0x40 MLOAD SWAP1 DUP2 MSTORE LOG3 JUMP JUMPDEST DUP5 PUSH0 MSTORE PUSH0 DUP3 MSTORE PUSH1 0x40 PUSH0 KECCAK256 DUP2 DUP2 SLOAD ADD SWAP1 SSTORE PUSH2 0xE91 JUMP JUMPDEST PUSH0 SWAP1 DUP5 DUP3 MSTORE DUP2 PUSH1 0x20 MSTORE PUSH1 0x40 DUP3 KECCAK256 SLOAD SWAP1 DUP7 DUP3 LT PUSH2 0xEFF JUMPI POP SWAP2 DUP2 PUSH1 0x40 DUP8 PUSH1 0x20 SWAP6 DUP9 PUSH32 0xDDF252AD1BE2C89B69C2B068FC378DAA952BA7F163C4A11628F55A4DF523B3EF SWAP9 SWAP7 MSTORE DUP4 DUP8 MSTORE SUB SWAP2 KECCAK256 SSTORE PUSH2 0xE81 JUMP JUMPDEST PUSH1 0x40 MLOAD PUSH4 0x391434E3 PUSH1 0xE2 SHL DUP2 MSTORE PUSH1 0x1 PUSH1 0x1 PUSH1 0xA0 SHL SUB SWAP2 SWAP1 SWAP2 AND PUSH1 0x4 DUP3 ADD MSTORE PUSH1 0x24 DUP2 ADD SWAP2 SWAP1 SWAP2 MSTORE PUSH1 0x44 DUP2 ADD DUP7 SWAP1 MSTORE PUSH1 0x64 SWAP1 REVERT INVALID LOG2 PUSH5 0x6970667358 0x22 SLT KECCAK256 0xD7 0xCB MUL 0xB5 0x4F 0xD6 0x1E 0xAE 0x2A STOP DUP2 DUP12 0xA8 0x4B 0x2B 0xE 0xD9 0x4D CALL 0xD DUP16 0xD 0x5E RETURNDATASIZE 0xDF PUSH30 0x6A90B9E591E864736F6C63430008140033A26469706673582212200E4B88 0x2E PUSH23 0xB3D6A2424E4D2FC24453A2753DFBE8C5D83C00A54C741C COINBASE 0x2E 0xB1 PUSH31 0x64736F6C634300081400330000000000000000000000000000000000000000 "},"methodIdentifiers":{"allTokens(uint256)":"634282af","createGuardianToken(string,string,uint256,uint256,uint256,uint256,uint256,uint256,address)":"3506cef8","creatorTokens(address,uint256)":"db3fa4cc","getTokensByCreator(address)":"d5c71275","getTokensPaginated(uint256,uint256)":"4238b692","totalTokens()":"7e1c0c09"}}}}}