{
  "_format": "hh3-artifact-1",
  "contractName": "BulkDistributor",
  "sourceName": "contracts/BulkDistributor.sol",
  "abi": [
    {
      "inputs": [],
      "stateMutability": "nonpayable",
      "type": "constructor"
    },
    {
      "inputs": [
        {
          "internalType": "address",
          "name": "owner",
          "type": "address"
        }
      ],
      "name": "OwnableInvalidOwner",
      "type": "error"
    },
    {
      "inputs": [
        {
          "internalType": "address",
          "name": "account",
          "type": "address"
        }
      ],
      "name": "OwnableUnauthorizedAccount",
      "type": "error"
    },
    {
      "inputs": [
        {
          "internalType": "address",
          "name": "token",
          "type": "address"
        }
      ],
      "name": "SafeERC20FailedOperation",
      "type": "error"
    },
    {
      "anonymous": false,
      "inputs": [
        {
          "indexed": true,
          "internalType": "address",
          "name": "token",
          "type": "address"
        },
        {
          "indexed": false,
          "internalType": "uint256",
          "name": "totalRecipients",
          "type": "uint256"
        },
        {
          "indexed": false,
          "internalType": "uint256",
          "name": "totalAmount",
          "type": "uint256"
        }
      ],
      "name": "BulkTransferCompleted",
      "type": "event"
    },
    {
      "anonymous": false,
      "inputs": [
        {
          "indexed": true,
          "internalType": "address",
          "name": "token",
          "type": "address"
        },
        {
          "indexed": true,
          "internalType": "address",
          "name": "to",
          "type": "address"
        },
        {
          "indexed": false,
          "internalType": "uint256",
          "name": "amount",
          "type": "uint256"
        }
      ],
      "name": "EmergencyWithdrawn",
      "type": "event"
    },
    {
      "anonymous": false,
      "inputs": [
        {
          "indexed": true,
          "internalType": "address",
          "name": "previousOwner",
          "type": "address"
        },
        {
          "indexed": true,
          "internalType": "address",
          "name": "newOwner",
          "type": "address"
        }
      ],
      "name": "OwnershipTransferred",
      "type": "event"
    },
    {
      "inputs": [
        {
          "internalType": "contract IERC20",
          "name": "token",
          "type": "address"
        },
        {
          "internalType": "address[]",
          "name": "recipients",
          "type": "address[]"
        },
        {
          "internalType": "uint256[]",
          "name": "amounts",
          "type": "uint256[]"
        }
      ],
      "name": "bulkTransfer",
      "outputs": [],
      "stateMutability": "nonpayable",
      "type": "function"
    },
    {
      "inputs": [],
      "name": "owner",
      "outputs": [
        {
          "internalType": "address",
          "name": "",
          "type": "address"
        }
      ],
      "stateMutability": "view",
      "type": "function"
    },
    {
      "inputs": [],
      "name": "renounceOwnership",
      "outputs": [],
      "stateMutability": "nonpayable",
      "type": "function"
    },
    {
      "inputs": [
        {
          "internalType": "address",
          "name": "newOwner",
          "type": "address"
        }
      ],
      "name": "transferOwnership",
      "outputs": [],
      "stateMutability": "nonpayable",
      "type": "function"
    }
  ],
  "bytecode": "0x60808060405234610078573315610063575f8054336001600160a01b03198216811783556040519290916001600160a01b0316907f8be0079c531659141344cd1fd0a4f28419497f9722a3daafe3b4186f6b6457e09080a3610517908161007d8239f35b631e4fbdf760e01b81525f6004820152602490fd5b5f80fdfe604060808152600480361015610013575f80fd5b5f91823560e01c8063715018a6146103ec5780638da5cb5b146103c4578063e886dade146100d95763f2fde38b14610049575f80fd5b346100d55760203660031901126100d5576001600160a01b038235818116939192908490036100d15761007a61047e565b83156100bb57505082546001600160a01b0319811683178455167f8be0079c531659141344cd1fd0a4f28419497f9722a3daafe3b4186f6b6457e08380a380f35b51631e4fbdf760e01b8152908101849052602490fd5b8480fd5b8280fd5b508290346103c05760603660031901126103c0576001600160a01b039280358481169291908381036100d15760249567ffffffffffffffff9287358481116103bc576101289036908301610449565b94909260449485358381116103b8576101449036908601610449565b93909261014f61047e565b881561037c5784890361034157969594939291908b978c975b8a89106101a3578d8d7fe8a7d6e699fb418582fb76f8a1bff2ed76956a5f52c53f167dbffb088b3a18d88e8e8e82519182526020820152a280f35b909192939495969798826101c06101bb8c8e8d6104a9565b6104cd565b16156102fe576101d18a88886104a9565b35156102ca578d8f8b8e868f6101ef8f856101f7936101bb926104a9565b938d8d6104a9565b3591519260208401946323b872dd60e01b86523390850152168683015260649081830152815260a08101818110888211176102b5578f52516020929182895af1156102ab578d513d6102a257508c3b155b61028c576102578a88886104a9565b35810180911161027a57985f19811461027a576001019796959493929190610168565b634e487b7160e01b8e52601188528e8efd5b8b51635274afe760e01b81528089018e90528f90fd5b60011415610248565b8b513d8f823e3d90fd5b5050634e487b7160e01b825250604189528f90fd5b60648f6d125b9d985b1a5908185b5bdd5b9d60921b848f8c936020600e92519562461bcd60e51b8752860152840152820152fd5b60648f7f496e76616c696420726563697069656e74206164647265737300000000000000848f8c936020601992519562461bcd60e51b8752860152840152820152fd5b5050875162461bcd60e51b81526020818601526015818d015274082e4e4c2f240d8cadccee8d040dad2e6dac2e8c6d605b1b81880152606490fd5b5050875162461bcd60e51b81526020818601526016818d015275456d70747920726563697069656e747320617272617960501b81880152606490fd5b8a80fd5b8780fd5b5080fd5b8382346103c057816003193601126103c057905490516001600160a01b039091168152602090f35b833461044657806003193601126104465761040561047e565b80546001600160a01b03198116825581906001600160a01b03167f8be0079c531659141344cd1fd0a4f28419497f9722a3daafe3b4186f6b6457e08280a380f35b80fd5b9181601f8401121561047a5782359167ffffffffffffffff831161047a576020808501948460051b01011161047a57565b5f80fd5b5f546001600160a01b0316330361049157565b60405163118cdaa760e01b8152336004820152602490fd5b91908110156104b95760051b0190565b634e487b7160e01b5f52603260045260245ffd5b356001600160a01b038116810361047a579056fea2646970667358221220fb050e499668d99ed30a8ffa491d52d4255a1a2c03fedc0aa62f288b23a7d74264736f6c63430008140033",
  "linkReferences": {},
  "deployedLinkReferences": {},
  "immutableReferences": {},
  "inputSourceName": "project/contracts/BulkDistributor.sol",
  "buildInfoId": "solc-0_8_20-ff2a648d193df156e0acd29b8d04b0ca4e8b6845"
}