{"project/contracts-token-only/GuardianToken.sol":{"GuardianToken":{"abi":[{"inputs":[{"internalType":"string","name":"name_","type":"string"},{"internalType":"string","name":"symbol_","type":"string"},{"internalType":"uint256","name":"totalSupplyWhole","type":"uint256"},{"internalType":"uint256","name":"maxWalletPct","type":"uint256"},{"internalType":"uint256","name":"antiBotBlocks","type":"uint256"},{"internalType":"uint256","name":"buyTaxBps_","type":"uint256"},{"internalType":"uint256","name":"sellTaxBps_","type":"uint256"},{"internalType":"uint256","name":"cooldownSec","type":"uint256"},{"internalType":"address","name":"taxReceiver_","type":"address"}],"stateMutability":"nonpayable","type":"constructor"},{"inputs":[{"internalType":"address","name":"spender","type":"address"},{"internalType":"uint256","name":"allowance","type":"uint256"},{"internalType":"uint256","name":"needed","type":"uint256"}],"name":"ERC20InsufficientAllowance","type":"error"},{"inputs":[{"internalType":"address","name":"sender","type":"address"},{"internalType":"uint256","name":"balance","type":"uint256"},{"internalType":"uint256","name":"needed","type":"uint256"}],"name":"ERC20InsufficientBalance","type":"error"},{"inputs":[{"internalType":"address","name":"approver","type":"address"}],"name":"ERC20InvalidApprover","type":"error"},{"inputs":[{"internalType":"address","name":"receiver","type":"address"}],"name":"ERC20InvalidReceiver","type":"error"},{"inputs":[{"internalType":"address","name":"sender","type":"address"}],"name":"ERC20InvalidSender","type":"error"},{"inputs":[{"internalType":"address","name":"spender","type":"address"}],"name":"ERC20InvalidSpender","type":"error"},{"inputs":[{"internalType":"address","name":"owner","type":"address"}],"name":"OwnableInvalidOwner","type":"error"},{"inputs":[{"internalType":"address","name":"account","type":"address"}],"name":"OwnableUnauthorizedAccount","type":"error"},{"anonymous":false,"inputs":[{"indexed":true,"internalType":"address","name":"owner","type":"address"},{"indexed":true,"internalType":"address","name":"spender","type":"address"},{"indexed":false,"internalType":"uint256","name":"value","type":"uint256"}],"name":"Approval","type":"event"},{"anonymous":false,"inputs":[{"indexed":false,"internalType":"uint256","name":"newCooldown","type":"uint256"}],"name":"CooldownUpdated","type":"event"},{"anonymous":false,"inputs":[{"indexed":true,"internalType":"address","name":"account","type":"address"},{"indexed":false,"internalType":"bool","name":"excluded","type":"bool"}],"name":"ExclusionUpdated","type":"event"},{"anonymous":false,"inputs":[{"indexed":true,"internalType":"address","name":"previousOwner","type":"address"},{"indexed":true,"internalType":"address","name":"newOwner","type":"address"}],"name":"OwnershipTransferred","type":"event"},{"anonymous":false,"inputs":[{"indexed":false,"internalType":"uint256","name":"newBuyTax","type":"uint256"},{"indexed":false,"internalType":"uint256","name":"newSellTax","type":"uint256"}],"name":"TaxUpdated","type":"event"},{"anonymous":false,"inputs":[{"indexed":true,"internalType":"address","name":"from","type":"address"},{"indexed":true,"internalType":"address","name":"to","type":"address"},{"indexed":false,"internalType":"uint256","name":"value","type":"uint256"}],"name":"Transfer","type":"event"},{"inputs":[{"internalType":"address","name":"owner","type":"address"},{"internalType":"address","name":"spender","type":"address"}],"name":"allowance","outputs":[{"internalType":"uint256","name":"","type":"uint256"}],"stateMutability":"view","type":"function"},{"inputs":[],"name":"antiBotEndBlock","outputs":[{"internalType":"uint256","name":"","type":"uint256"}],"stateMutability":"view","type":"function"},{"inputs":[{"internalType":"address","name":"spender","type":"address"},{"internalType":"uint256","name":"value","type":"uint256"}],"name":"approve","outputs":[{"internalType":"bool","name":"","type":"bool"}],"stateMutability":"nonpayable","type":"function"},{"inputs":[{"internalType":"address","name":"account","type":"address"}],"name":"balanceOf","outputs":[{"internalType":"uint256","name":"","type":"uint256"}],"stateMutability":"view","type":"function"},{"inputs":[],"name":"buyTaxBps","outputs":[{"internalType":"uint256","name":"","type":"uint256"}],"stateMutability":"view","type":"function"},{"inputs":[],"name":"decimals","outputs":[{"internalType":"uint8","name":"","type":"uint8"}],"stateMutability":"view","type":"function"},{"inputs":[{"internalType":"address","name":"","type":"address"}],"name":"isExcludedFromLimits","outputs":[{"internalType":"bool","name":"","type":"bool"}],"stateMutability":"view","type":"function"},{"inputs":[{"internalType":"address","name":"","type":"address"}],"name":"lastSellTimestamp","outputs":[{"internalType":"uint256","name":"","type":"uint256"}],"stateMutability":"view","type":"function"},{"inputs":[],"name":"maxWalletAmount","outputs":[{"internalType":"uint256","name":"","type":"uint256"}],"stateMutability":"view","type":"function"},{"inputs":[],"name":"name","outputs":[{"internalType":"string","name":"","type":"string"}],"stateMutability":"view","type":"function"},{"inputs":[],"name":"owner","outputs":[{"internalType":"address","name":"","type":"address"}],"stateMutability":"view","type":"function"},{"inputs":[{"internalType":"uint256","name":"newCooldown","type":"uint256"}],"name":"reduceCooldown","outputs":[],"stateMutability":"nonpayable","type":"function"},{"inputs":[{"internalType":"uint256","name":"newBuyTax","type":"uint256"},{"internalType":"uint256","name":"newSellTax","type":"uint256"}],"name":"reduceTax","outputs":[],"stateMutability":"nonpayable","type":"function"},{"inputs":[],"name":"renounceOwnership","outputs":[],"stateMutability":"nonpayable","type":"function"},{"inputs":[],"name":"sellCooldownSeconds","outputs":[{"internalType":"uint256","name":"","type":"uint256"}],"stateMutability":"view","type":"function"},{"inputs":[],"name":"sellTaxBps","outputs":[{"internalType":"uint256","name":"","type":"uint256"}],"stateMutability":"view","type":"function"},{"inputs":[{"internalType":"address","name":"account","type":"address"},{"internalType":"bool","name":"excluded","type":"bool"}],"name":"setExcluded","outputs":[],"stateMutability":"nonpayable","type":"function"},{"inputs":[],"name":"symbol","outputs":[{"internalType":"string","name":"","type":"string"}],"stateMutability":"view","type":"function"},{"inputs":[],"name":"taxReceiver","outputs":[{"internalType":"address","name":"","type":"address"}],"stateMutability":"view","type":"function"},{"inputs":[],"name":"totalSupply","outputs":[{"internalType":"uint256","name":"","type":"uint256"}],"stateMutability":"view","type":"function"},{"inputs":[{"internalType":"address","name":"to","type":"address"},{"internalType":"uint256","name":"value","type":"uint256"}],"name":"transfer","outputs":[{"internalType":"bool","name":"","type":"bool"}],"stateMutability":"nonpayable","type":"function"},{"inputs":[{"internalType":"address","name":"from","type":"address"},{"internalType":"address","name":"to","type":"address"},{"internalType":"uint256","name":"value","type":"uint256"}],"name":"transferFrom","outputs":[{"internalType":"bool","name":"","type":"bool"}],"stateMutability":"nonpayable","type":"function"},{"inputs":[{"internalType":"address","name":"newOwner","type":"address"}],"name":"transferOwnership","outputs":[],"stateMutability":"nonpayable","type":"function"}],"evm":{"bytecode":{"linkReferences":{},"object":"60c060405234801562000010575f80fd5b5060405162001abd38038062001abd8339810160408190526200003391620007c7565b338989600362000044838262000906565b50600462000053828262000906565b5050506001600160a01b0381166200008557604051631e4fbdf760e01b81525f60048201526024015b60405180910390fd5b620000908162000292565b5060018610158015620000a4575060648611155b620000f25760405162461bcd60e51b815260206004820152601460248201527f496e76616c6964206d61782077616c6c6574202500000000000000000000000060448201526064016200007c565b6103e8841115620001365760405162461bcd60e51b815260206004820152600d60248201526c42757920746178203e2031302560981b60448201526064016200007c565b6103e88311156200017b5760405162461bcd60e51b815260206004820152600e60248201526d53656c6c20746178203e2031302560901b60448201526064016200007c565b6001600160a01b038116620001d35760405162461bcd60e51b815260206004820152601460248201527f496e76616c69642074617820726563656976657200000000000000000000000060448201526064016200007c565b5f620001e26012600a62000add565b620001ee908962000af4565b90506064620001fe888362000af4565b6200020a919062000b0e565b60805262000219864362000b2e565b60a052600885905560098490556006839055600a80546001600160a01b0319166001600160a01b038416179055335f818152600b6020526040808220805460ff1990811660019081179092553084529190922080549091169091179055620002829082620002e3565b5050505050505050505062000b5a565b600580546001600160a01b038381166001600160a01b0319831681179093556040519116919082907f8be0079c531659141344cd1fd0a4f28419497f9722a3daafe3b4186f6b6457e0905f90a35050565b6001600160a01b0382166200030e5760405163ec442f0560e01b81525f60048201526024016200007c565b6200031b5f83836200031f565b5050565b6001600160a01b03831615806200033d57506001600160a01b038216155b15620003555762000350838383620005da565b505050565b6001600160a01b038381165f908152600b602052604080822054928516825290205460a05160ff9283169290911690431180159062000392575081155b80156200039d575080155b15620003fe5760405162461bcd60e51b815260206004820152602960248201527f477561726469616e546f6b656e3a20616e74692d626f742070726f74656374696044820152686f6e2061637469766560b81b60648201526084016200007c565b806200048d576080518362000427866001600160a01b03165f9081526020819052604090205490565b62000433919062000b2e565b11156200048d5760405162461bcd60e51b815260206004820152602160248201527f477561726469616e546f6b656e3a2065786365656473206d61782077616c6c656044820152601d60fa1b60648201526084016200007c565b811580156200049d57505f600654115b1562000542576006546001600160a01b0386165f90815260076020526040902054620004ca919062000b2e565b421015620005275760405162461bcd60e51b815260206004820152602360248201527f477561726469616e546f6b656e3a2073656c6c20636f6f6c646f776e2061637460448201526269766560e81b60648201526084016200007c565b6001600160a01b0385165f9081526007602052604090204290555b5f8215801562000550575081155b156200058657600954600854156200056757506008545b61271062000576828762000af4565b62000582919062000b0e565b9150505b8015620005c557600a54620005a79087906001600160a01b031683620005da565b620005bf8686620005b9848862000b44565b620005da565b620005d2565b620005d2868686620005da565b505050505050565b6001600160a01b03831662000608578060025f828254620005fc919062000b2e565b909155506200067a9050565b6001600160a01b0383165f90815260208190526040902054818110156200065c5760405163391434e360e21b81526001600160a01b038516600482015260248101829052604481018390526064016200007c565b6001600160a01b0384165f9081526020819052604090209082900390555b6001600160a01b0382166200069857600280548290039055620006b6565b6001600160a01b0382165f9081526020819052604090208054820190555b816001600160a01b0316836001600160a01b03167fddf252ad1be2c89b69c2b068fc378daa952ba7f163c4a11628f55a4df523b3ef83604051620006fc91815260200190565b60405180910390a3505050565b634e487b7160e01b5f52604160045260245ffd5b5f82601f8301126200072d575f80fd5b81516001600160401b03808211156200074a576200074a62000709565b604051601f8301601f19908116603f0116810190828211818310171562000775576200077562000709565b8160405283815260209250868385880101111562000791575f80fd5b5f91505b83821015620007b4578582018301518183018401529082019062000795565b5f93810190920192909252949350505050565b5f805f805f805f805f6101208a8c031215620007e1575f80fd5b89516001600160401b0380821115620007f8575f80fd5b620008068d838e016200071d565b9a5060208c01519150808211156200081c575f80fd5b506200082b8c828d016200071d565b98505060408a0151965060608a0151955060808a0151945060a08a0151935060c08a0151925060e08a015191506101008a015160018060a01b038116811462000872575f80fd5b809150509295985092959850929598565b600181811c908216806200089857607f821691505b602082108103620008b757634e487b7160e01b5f52602260045260245ffd5b50919050565b601f82111562000350575f81815260208120601f850160051c81016020861015620008e55750805b601f850160051c820191505b81811015620005d257828155600101620008f1565b81516001600160401b0381111562000922576200092262000709565b6200093a8162000933845462000883565b84620008bd565b602080601f83116001811462000970575f8415620009585750858301515b5f19600386901b1c1916600185901b178555620005d2565b5f85815260208120601f198616915b82811015620009a0578886015182559484019460019091019084016200097f565b5085821015620009be57878501515f19600388901b60f8161c191681555b5050505050600190811b01905550565b634e487b7160e01b5f52601160045260245ffd5b600181815b8085111562000a2257815f190482111562000a065762000a06620009ce565b8085161562000a1457918102915b93841c9390800290620009e7565b509250929050565b5f8262000a3a5750600162000ad7565b8162000a4857505f62000ad7565b816001811462000a61576002811462000a6c5762000a8c565b600191505062000ad7565b60ff84111562000a805762000a80620009ce565b50506001821b62000ad7565b5060208310610133831016604e8410600b841016171562000ab1575081810a62000ad7565b62000abd8383620009e2565b805f190482111562000ad35762000ad3620009ce565b0290505b92915050565b5f62000aed60ff84168362000a2a565b9392505050565b808202811582820484141762000ad75762000ad7620009ce565b5f8262000b2957634e487b7160e01b5f52601260045260245ffd5b500490565b8082018082111562000ad75762000ad7620009ce565b8181038181111562000ad75762000ad7620009ce565b60805160a051610f3362000b8a5f395f818161027e015261093501525f81816102c001526109d10152610f335ff3fe608060405234801561000f575f80fd5b5060043610610148575f3560e01c80638da5cb5b116100bf578063c473413a11610079578063c473413a146102f5578063cffd129c146102fe578063dd62ed3e14610307578063e6ef73d61461033f578063e8891de814610352578063f2fde38b14610365575f80fd5b80638da5cb5b1461025457806391a83fea1461027957806395d89b41146102a0578063a9059cbb146102a8578063aa4bde28146102bb578063b9a410ff146102e2575f80fd5b80632836be24116101105780632836be24146101bf578063313ce567146101d457806333cbeaa0146101e35780635cce86cd1461020257806370a0823114610224578063715018a61461024c575f80fd5b806306fdde031461014c578063095ea7b31461016a5780630eff64271461018d57806318160ddd146101a457806323b872dd146101ac575b5f80fd5b610154610378565b6040516101619190610ccd565b60405180910390f35b61017d610178366004610d33565b610408565b6040519015158152602001610161565b61019660065481565b604051908152602001610161565b600254610196565b61017d6101ba366004610d5b565b610421565b6101d26101cd366004610d94565b610444565b005b60405160128152602001610161565b6101966101f1366004610dcd565b60076020525f908152604090205481565b61017d610210366004610dcd565b600b6020525f908152604090205460ff1681565b610196610232366004610dcd565b6001600160a01b03165f9081526020819052604090205490565b6101d26104aa565b6005546001600160a01b03165b6040516001600160a01b039091168152602001610161565b6101967f000000000000000000000000000000000000000000000000000000000000000081565b6101546104bd565b61017d6102b6366004610d33565b6104cc565b6101967f000000000000000000000000000000000000000000000000000000000000000081565b6101d26102f0366004610ded565b6104d9565b61019660085481565b61019660095481565b610196610315366004610e0d565b6001600160a01b039182165f90815260016020908152604080832093909416825291909152205490565b600a54610261906001600160a01b031681565b6101d2610360366004610e3e565b6105d1565b6101d2610373366004610dcd565b610665565b60606003805461038790610e55565b80601f01602080910402602001604051908101604052809291908181526020018280546103b390610e55565b80156103fe5780601f106103d5576101008083540402835291602001916103fe565b820191905f5260205f20905b8154815290600101906020018083116103e157829003601f168201915b5050505050905090565b5f336104158185856106a2565b60019150505b92915050565b5f3361042e8582856106b4565b610439858585610730565b506001949350505050565b61044c61078d565b6001600160a01b0382165f818152600b6020908152604091829020805460ff191685151590811790915591519182527f83f2b279b6151af5a15cdbe8471d34fe8b34aed9bd9514ffeadb57c9ea366e61910160405180910390a25050565b6104b261078d565b6104bb5f6107ba565b565b60606004805461038790610e55565b5f33610415818585610730565b6104e161078d565b6008548211156105385760405162461bcd60e51b815260206004820152601760248201527f43616e6e6f7420696e637265617365206275792074617800000000000000000060448201526064015b60405180910390fd5b60095481111561058a5760405162461bcd60e51b815260206004820152601860248201527f43616e6e6f7420696e6372656173652073656c6c207461780000000000000000604482015260640161052f565b6008829055600981905560408051838152602081018390527fb841faf0d1b32571f4ef966a2f35e3ae51f3cdda45318c3da5570a5b2ad85605910160405180910390a15050565b6105d961078d565b600654811061062a5760405162461bcd60e51b815260206004820152601860248201527f43616e6e6f7420696e63726561736520636f6f6c646f776e0000000000000000604482015260640161052f565b60068190556040518181527f583d8b24c5439ab7d810e51e37e8db41ba66f1168fd7b752ceae0c7681c5272c9060200160405180910390a150565b61066d61078d565b6001600160a01b03811661069657604051631e4fbdf760e01b81525f600482015260240161052f565b61069f816107ba565b50565b6106af838383600161080b565b505050565b6001600160a01b038381165f908152600160209081526040808320938616835292905220545f1981101561072a578181101561071c57604051637dc7a0d960e11b81526001600160a01b0384166004820152602481018290526044810183905260640161052f565b61072a84848484035f61080b565b50505050565b6001600160a01b03831661075957604051634b637e8f60e11b81525f600482015260240161052f565b6001600160a01b0382166107825760405163ec442f0560e01b81525f600482015260240161052f565b6106af8383836108dd565b6005546001600160a01b031633146104bb5760405163118cdaa760e01b815233600482015260240161052f565b600580546001600160a01b038381166001600160a01b0319831681179093556040519116919082907f8be0079c531659141344cd1fd0a4f28419497f9722a3daafe3b4186f6b6457e0905f90a35050565b6001600160a01b0384166108345760405163e602df0560e01b81525f600482015260240161052f565b6001600160a01b03831661085d57604051634a1406b160e11b81525f600482015260240161052f565b6001600160a01b038085165f908152600160209081526040808320938716835292905220829055801561072a57826001600160a01b0316846001600160a01b03167f8c5be1e5ebec7d5bd14f71427d1e84f3dd0314c0f7b2291e5b200ac8c7c3b925846040516108cf91815260200190565b60405180910390a350505050565b6001600160a01b03831615806108fa57506001600160a01b038216155b1561090a576106af838383610ba7565b6001600160a01b038084165f908152600b602052604080822054928516825290205460ff91821691167f00000000000000000000000000000000000000000000000000000000000000004311801590610961575081155b801561096b575080155b156109ca5760405162461bcd60e51b815260206004820152602960248201527f477561726469616e546f6b656e3a20616e74692d626f742070726f74656374696044820152686f6e2061637469766560b81b606482015260840161052f565b80610a71577f000000000000000000000000000000000000000000000000000000000000000083610a0f866001600160a01b03165f9081526020819052604090205490565b610a199190610ea1565b1115610a715760405162461bcd60e51b815260206004820152602160248201527f477561726469616e546f6b656e3a2065786365656473206d61782077616c6c656044820152601d60fa1b606482015260840161052f565b81158015610a8057505f600654115b15610b20576006546001600160a01b0386165f90815260076020526040902054610aaa9190610ea1565b421015610b055760405162461bcd60e51b815260206004820152602360248201527f477561726469616e546f6b656e3a2073656c6c20636f6f6c646f776e2061637460448201526269766560e81b606482015260840161052f565b6001600160a01b0385165f9081526007602052604090204290555b5f82158015610b2d575081155b15610b5d5760095460085415610b4257506008545b612710610b4f8287610eb4565b610b599190610ecb565b9150505b8015610b9457600a54610b7b9087906001600160a01b031683610ba7565b610b8f8686610b8a8488610eea565b610ba7565b610b9f565b610b9f868686610ba7565b505050505050565b6001600160a01b038316610bd1578060025f828254610bc69190610ea1565b90915550610c419050565b6001600160a01b0383165f9081526020819052604090205481811015610c235760405163391434e360e21b81526001600160a01b0385166004820152602481018290526044810183905260640161052f565b6001600160a01b0384165f9081526020819052604090209082900390555b6001600160a01b038216610c5d57600280548290039055610c7b565b6001600160a01b0382165f9081526020819052604090208054820190555b816001600160a01b0316836001600160a01b03167fddf252ad1be2c89b69c2b068fc378daa952ba7f163c4a11628f55a4df523b3ef83604051610cc091815260200190565b60405180910390a3505050565b5f6020808352835180828501525f5b81811015610cf857858101830151858201604001528201610cdc565b505f604082860101526040601f19601f8301168501019250505092915050565b80356001600160a01b0381168114610d2e575f80fd5b919050565b5f8060408385031215610d44575f80fd5b610d4d83610d18565b946020939093013593505050565b5f805f60608486031215610d6d575f80fd5b610d7684610d18565b9250610d8460208501610d18565b9150604084013590509250925092565b5f8060408385031215610da5575f80fd5b610dae83610d18565b915060208301358015158114610dc2575f80fd5b809150509250929050565b5f60208284031215610ddd575f80fd5b610de682610d18565b9392505050565b5f8060408385031215610dfe575f80fd5b50508035926020909101359150565b5f8060408385031215610e1e575f80fd5b610e2783610d18565b9150610e3560208401610d18565b90509250929050565b5f60208284031215610e4e575f80fd5b5035919050565b600181811c90821680610e6957607f821691505b602082108103610e8757634e487b7160e01b5f52602260045260245ffd5b50919050565b634e487b7160e01b5f52601160045260245ffd5b8082018082111561041b5761041b610e8d565b808202811582820484141761041b5761041b610e8d565b5f82610ee557634e487b7160e01b5f52601260045260245ffd5b500490565b8181038181111561041b5761041b610e8d56fea264697066735822122049f19b90444f4a307d6d73a5881646d13e4172fccff42170c54f1e5fa83c218a64736f6c63430008140033","opcodes":"PUSH1 0xC0 PUSH1 0x40 MSTORE CALLVALUE DUP1 ISZERO PUSH3 0x10 JUMPI PUSH0 DUP1 REVERT JUMPDEST POP PUSH1 0x40 MLOAD PUSH3 0x1ABD CODESIZE SUB DUP1 PUSH3 0x1ABD DUP4 CODECOPY DUP2 ADD PUSH1 0x40 DUP2 SWAP1 MSTORE PUSH3 0x33 SWAP2 PUSH3 0x7C7 JUMP JUMPDEST CALLER DUP10 DUP10 PUSH1 0x3 PUSH3 0x44 DUP4 DUP3 PUSH3 0x906 JUMP JUMPDEST POP PUSH1 0x4 PUSH3 0x53 DUP3 DUP3 PUSH3 0x906 JUMP JUMPDEST POP POP POP PUSH1 0x1 PUSH1 0x1 PUSH1 0xA0 SHL SUB DUP2 AND PUSH3 0x85 JUMPI PUSH1 0x40 MLOAD PUSH4 0x1E4FBDF7 PUSH1 0xE0 SHL DUP2 MSTORE PUSH0 PUSH1 0x4 DUP3 ADD MSTORE PUSH1 0x24 ADD JUMPDEST PUSH1 0x40 MLOAD DUP1 SWAP2 SUB SWAP1 REVERT JUMPDEST PUSH3 0x90 DUP2 PUSH3 0x292 JUMP JUMPDEST POP PUSH1 0x1 DUP7 LT ISZERO DUP1 ISZERO PUSH3 0xA4 JUMPI POP PUSH1 0x64 DUP7 GT ISZERO JUMPDEST PUSH3 0xF2 JUMPI PUSH1 0x40 MLOAD PUSH3 0x461BCD PUSH1 0xE5 SHL DUP2 MSTORE PUSH1 0x20 PUSH1 0x4 DUP3 ADD MSTORE PUSH1 0x14 PUSH1 0x24 DUP3 ADD MSTORE PUSH32 0x496E76616C6964206D61782077616C6C65742025000000000000000000000000 PUSH1 0x44 DUP3 ADD MSTORE PUSH1 0x64 ADD PUSH3 0x7C JUMP JUMPDEST PUSH2 0x3E8 DUP5 GT ISZERO PUSH3 0x136 JUMPI PUSH1 0x40 MLOAD PUSH3 0x461BCD PUSH1 0xE5 SHL DUP2 MSTORE PUSH1 0x20 PUSH1 0x4 DUP3 ADD MSTORE PUSH1 0xD PUSH1 0x24 DUP3 ADD MSTORE PUSH13 0x42757920746178203E20313025 PUSH1 0x98 SHL PUSH1 0x44 DUP3 ADD MSTORE PUSH1 0x64 ADD PUSH3 0x7C JUMP JUMPDEST PUSH2 0x3E8 DUP4 GT ISZERO PUSH3 0x17B JUMPI PUSH1 0x40 MLOAD PUSH3 0x461BCD PUSH1 0xE5 SHL DUP2 MSTORE PUSH1 0x20 PUSH1 0x4 DUP3 ADD MSTORE PUSH1 0xE PUSH1 0x24 DUP3 ADD MSTORE PUSH14 0x53656C6C20746178203E20313025 PUSH1 0x90 SHL PUSH1 0x44 DUP3 ADD MSTORE PUSH1 0x64 ADD PUSH3 0x7C JUMP JUMPDEST PUSH1 0x1 PUSH1 0x1 PUSH1 0xA0 SHL SUB DUP2 AND PUSH3 0x1D3 JUMPI PUSH1 0x40 MLOAD PUSH3 0x461BCD PUSH1 0xE5 SHL DUP2 MSTORE PUSH1 0x20 PUSH1 0x4 DUP3 ADD MSTORE PUSH1 0x14 PUSH1 0x24 DUP3 ADD MSTORE PUSH32 0x496E76616C696420746178207265636569766572000000000000000000000000 PUSH1 0x44 DUP3 ADD MSTORE PUSH1 0x64 ADD PUSH3 0x7C JUMP JUMPDEST PUSH0 PUSH3 0x1E2 PUSH1 0x12 PUSH1 0xA PUSH3 0xADD JUMP JUMPDEST PUSH3 0x1EE SWAP1 DUP10 PUSH3 0xAF4 JUMP JUMPDEST SWAP1 POP PUSH1 0x64 PUSH3 0x1FE DUP9 DUP4 PUSH3 0xAF4 JUMP JUMPDEST PUSH3 0x20A SWAP2 SWAP1 PUSH3 0xB0E JUMP JUMPDEST PUSH1 0x80 MSTORE PUSH3 0x219 DUP7 NUMBER PUSH3 0xB2E JUMP JUMPDEST PUSH1 0xA0 MSTORE PUSH1 0x8 DUP6 SWAP1 SSTORE PUSH1 0x9 DUP5 SWAP1 SSTORE PUSH1 0x6 DUP4 SWAP1 SSTORE PUSH1 0xA DUP1 SLOAD PUSH1 0x1 PUSH1 0x1 PUSH1 0xA0 SHL SUB NOT AND PUSH1 0x1 PUSH1 0x1 PUSH1 0xA0 SHL SUB DUP5 AND OR SWAP1 SSTORE CALLER PUSH0 DUP2 DUP2 MSTORE PUSH1 0xB PUSH1 0x20 MSTORE PUSH1 0x40 DUP1 DUP3 KECCAK256 DUP1 SLOAD PUSH1 0xFF NOT SWAP1 DUP2 AND PUSH1 0x1 SWAP1 DUP2 OR SWAP1 SWAP3 SSTORE ADDRESS DUP5 MSTORE SWAP2 SWAP1 SWAP3 KECCAK256 DUP1 SLOAD SWAP1 SWAP2 AND SWAP1 SWAP2 OR SWAP1 SSTORE PUSH3 0x282 SWAP1 DUP3 PUSH3 0x2E3 JUMP JUMPDEST POP POP POP POP POP POP POP POP POP POP PUSH3 0xB5A JUMP JUMPDEST PUSH1 0x5 DUP1 SLOAD PUSH1 0x1 PUSH1 0x1 PUSH1 0xA0 SHL SUB DUP4 DUP2 AND PUSH1 0x1 PUSH1 0x1 PUSH1 0xA0 SHL SUB NOT DUP4 AND DUP2 OR SWAP1 SWAP4 SSTORE PUSH1 0x40 MLOAD SWAP2 AND SWAP2 SWAP1 DUP3 SWAP1 PUSH32 0x8BE0079C531659141344CD1FD0A4F28419497F9722A3DAAFE3B4186F6B6457E0 SWAP1 PUSH0 SWAP1 LOG3 POP POP JUMP JUMPDEST PUSH1 0x1 PUSH1 0x1 PUSH1 0xA0 SHL SUB DUP3 AND PUSH3 0x30E JUMPI PUSH1 0x40 MLOAD PUSH4 0xEC442F05 PUSH1 0xE0 SHL DUP2 MSTORE PUSH0 PUSH1 0x4 DUP3 ADD MSTORE PUSH1 0x24 ADD PUSH3 0x7C JUMP JUMPDEST PUSH3 0x31B PUSH0 DUP4 DUP4 PUSH3 0x31F JUMP JUMPDEST POP POP JUMP JUMPDEST PUSH1 0x1 PUSH1 0x1 PUSH1 0xA0 SHL SUB DUP4 AND ISZERO DUP1 PUSH3 0x33D JUMPI POP PUSH1 0x1 PUSH1 0x1 PUSH1 0xA0 SHL SUB DUP3 AND ISZERO JUMPDEST ISZERO PUSH3 0x355 JUMPI PUSH3 0x350 DUP4 DUP4 DUP4 PUSH3 0x5DA JUMP JUMPDEST POP POP POP JUMP JUMPDEST PUSH1 0x1 PUSH1 0x1 PUSH1 0xA0 SHL SUB DUP4 DUP2 AND PUSH0 SWAP1 DUP2 MSTORE PUSH1 0xB PUSH1 0x20 MSTORE PUSH1 0x40 DUP1 DUP3 KECCAK256 SLOAD SWAP3 DUP6 AND DUP3 MSTORE SWAP1 KECCAK256 SLOAD PUSH1 0xA0 MLOAD PUSH1 0xFF SWAP3 DUP4 AND SWAP3 SWAP1 SWAP2 AND SWAP1 NUMBER GT DUP1 ISZERO SWAP1 PUSH3 0x392 JUMPI POP DUP2 ISZERO JUMPDEST DUP1 ISZERO PUSH3 0x39D JUMPI POP DUP1 ISZERO JUMPDEST ISZERO PUSH3 0x3FE JUMPI PUSH1 0x40 MLOAD PUSH3 0x461BCD PUSH1 0xE5 SHL DUP2 MSTORE PUSH1 0x20 PUSH1 0x4 DUP3 ADD MSTORE PUSH1 0x29 PUSH1 0x24 DUP3 ADD MSTORE PUSH32 0x477561726469616E546F6B656E3A20616E74692D626F742070726F7465637469 PUSH1 0x44 DUP3 ADD MSTORE PUSH9 0x6F6E20616374697665 PUSH1 0xB8 SHL PUSH1 0x64 DUP3 ADD MSTORE PUSH1 0x84 ADD PUSH3 0x7C JUMP JUMPDEST DUP1 PUSH3 0x48D JUMPI PUSH1 0x80 MLOAD DUP4 PUSH3 0x427 DUP7 PUSH1 0x1 PUSH1 0x1 PUSH1 0xA0 SHL SUB AND PUSH0 SWAP1 DUP2 MSTORE PUSH1 0x20 DUP2 SWAP1 MSTORE PUSH1 0x40 SWAP1 KECCAK256 SLOAD SWAP1 JUMP JUMPDEST PUSH3 0x433 SWAP2 SWAP1 PUSH3 0xB2E JUMP JUMPDEST GT ISZERO PUSH3 0x48D JUMPI PUSH1 0x40 MLOAD PUSH3 0x461BCD PUSH1 0xE5 SHL DUP2 MSTORE PUSH1 0x20 PUSH1 0x4 DUP3 ADD MSTORE PUSH1 0x21 PUSH1 0x24 DUP3 ADD MSTORE PUSH32 0x477561726469616E546F6B656E3A2065786365656473206D61782077616C6C65 PUSH1 0x44 DUP3 ADD MSTORE PUSH1 0x1D PUSH1 0xFA SHL PUSH1 0x64 DUP3 ADD MSTORE PUSH1 0x84 ADD PUSH3 0x7C JUMP JUMPDEST DUP2 ISZERO DUP1 ISZERO PUSH3 0x49D JUMPI POP PUSH0 PUSH1 0x6 SLOAD GT JUMPDEST ISZERO PUSH3 0x542 JUMPI PUSH1 0x6 SLOAD PUSH1 0x1 PUSH1 0x1 PUSH1 0xA0 SHL SUB DUP7 AND PUSH0 SWAP1 DUP2 MSTORE PUSH1 0x7 PUSH1 0x20 MSTORE PUSH1 0x40 SWAP1 KECCAK256 SLOAD PUSH3 0x4CA SWAP2 SWAP1 PUSH3 0xB2E JUMP JUMPDEST TIMESTAMP LT ISZERO PUSH3 0x527 JUMPI PUSH1 0x40 MLOAD PUSH3 0x461BCD PUSH1 0xE5 SHL DUP2 MSTORE PUSH1 0x20 PUSH1 0x4 DUP3 ADD MSTORE PUSH1 0x23 PUSH1 0x24 DUP3 ADD MSTORE PUSH32 0x477561726469616E546F6B656E3A2073656C6C20636F6F6C646F776E20616374 PUSH1 0x44 DUP3 ADD MSTORE PUSH3 0x697665 PUSH1 0xE8 SHL PUSH1 0x64 DUP3 ADD MSTORE PUSH1 0x84 ADD PUSH3 0x7C JUMP JUMPDEST PUSH1 0x1 PUSH1 0x1 PUSH1 0xA0 SHL SUB DUP6 AND PUSH0 SWAP1 DUP2 MSTORE PUSH1 0x7 PUSH1 0x20 MSTORE PUSH1 0x40 SWAP1 KECCAK256 TIMESTAMP SWAP1 SSTORE JUMPDEST PUSH0 DUP3 ISZERO DUP1 ISZERO PUSH3 0x550 JUMPI POP DUP2 ISZERO JUMPDEST ISZERO PUSH3 0x586 JUMPI PUSH1 0x9 SLOAD PUSH1 0x8 SLOAD ISZERO PUSH3 0x567 JUMPI POP PUSH1 0x8 SLOAD JUMPDEST PUSH2 0x2710 PUSH3 0x576 DUP3 DUP8 PUSH3 0xAF4 JUMP JUMPDEST PUSH3 0x582 SWAP2 SWAP1 PUSH3 0xB0E JUMP JUMPDEST SWAP2 POP POP JUMPDEST DUP1 ISZERO PUSH3 0x5C5 JUMPI PUSH1 0xA SLOAD PUSH3 0x5A7 SWAP1 DUP8 SWAP1 PUSH1 0x1 PUSH1 0x1 PUSH1 0xA0 SHL SUB AND DUP4 PUSH3 0x5DA JUMP JUMPDEST PUSH3 0x5BF DUP7 DUP7 PUSH3 0x5B9 DUP5 DUP9 PUSH3 0xB44 JUMP JUMPDEST PUSH3 0x5DA JUMP JUMPDEST PUSH3 0x5D2 JUMP JUMPDEST PUSH3 0x5D2 DUP7 DUP7 DUP7 PUSH3 0x5DA JUMP JUMPDEST POP POP POP POP POP POP JUMP JUMPDEST PUSH1 0x1 PUSH1 0x1 PUSH1 0xA0 SHL SUB DUP4 AND PUSH3 0x608 JUMPI DUP1 PUSH1 0x2 PUSH0 DUP3 DUP3 SLOAD PUSH3 0x5FC SWAP2 SWAP1 PUSH3 0xB2E JUMP JUMPDEST SWAP1 SWAP2 SSTORE POP PUSH3 0x67A SWAP1 POP JUMP JUMPDEST PUSH1 0x1 PUSH1 0x1 PUSH1 0xA0 SHL SUB DUP4 AND PUSH0 SWAP1 DUP2 MSTORE PUSH1 0x20 DUP2 SWAP1 MSTORE PUSH1 0x40 SWAP1 KECCAK256 SLOAD DUP2 DUP2 LT ISZERO PUSH3 0x65C JUMPI PUSH1 0x40 MLOAD PUSH4 0x391434E3 PUSH1 0xE2 SHL DUP2 MSTORE PUSH1 0x1 PUSH1 0x1 PUSH1 0xA0 SHL SUB DUP6 AND PUSH1 0x4 DUP3 ADD MSTORE PUSH1 0x24 DUP2 ADD DUP3 SWAP1 MSTORE PUSH1 0x44 DUP2 ADD DUP4 SWAP1 MSTORE PUSH1 0x64 ADD PUSH3 0x7C JUMP JUMPDEST PUSH1 0x1 PUSH1 0x1 PUSH1 0xA0 SHL SUB DUP5 AND PUSH0 SWAP1 DUP2 MSTORE PUSH1 0x20 DUP2 SWAP1 MSTORE PUSH1 0x40 SWAP1 KECCAK256 SWAP1 DUP3 SWAP1 SUB SWAP1 SSTORE JUMPDEST PUSH1 0x1 PUSH1 0x1 PUSH1 0xA0 SHL SUB DUP3 AND PUSH3 0x698 JUMPI PUSH1 0x2 DUP1 SLOAD DUP3 SWAP1 SUB SWAP1 SSTORE PUSH3 0x6B6 JUMP JUMPDEST PUSH1 0x1 PUSH1 0x1 PUSH1 0xA0 SHL SUB DUP3 AND PUSH0 SWAP1 DUP2 MSTORE PUSH1 0x20 DUP2 SWAP1 MSTORE PUSH1 0x40 SWAP1 KECCAK256 DUP1 SLOAD DUP3 ADD SWAP1 SSTORE JUMPDEST DUP2 PUSH1 0x1 PUSH1 0x1 PUSH1 0xA0 SHL SUB AND DUP4 PUSH1 0x1 PUSH1 0x1 PUSH1 0xA0 SHL SUB AND PUSH32 0xDDF252AD1BE2C89B69C2B068FC378DAA952BA7F163C4A11628F55A4DF523B3EF DUP4 PUSH1 0x40 MLOAD PUSH3 0x6FC SWAP2 DUP2 MSTORE PUSH1 0x20 ADD SWAP1 JUMP JUMPDEST PUSH1 0x40 MLOAD DUP1 SWAP2 SUB SWAP1 LOG3 POP POP POP JUMP JUMPDEST PUSH4 0x4E487B71 PUSH1 0xE0 SHL PUSH0 MSTORE PUSH1 0x41 PUSH1 0x4 MSTORE PUSH1 0x24 PUSH0 REVERT JUMPDEST PUSH0 DUP3 PUSH1 0x1F DUP4 ADD SLT PUSH3 0x72D JUMPI PUSH0 DUP1 REVERT JUMPDEST DUP2 MLOAD PUSH1 0x1 PUSH1 0x1 PUSH1 0x40 SHL SUB DUP1 DUP3 GT ISZERO PUSH3 0x74A JUMPI PUSH3 0x74A PUSH3 0x709 JUMP JUMPDEST PUSH1 0x40 MLOAD PUSH1 0x1F DUP4 ADD PUSH1 0x1F NOT SWAP1 DUP2 AND PUSH1 0x3F ADD AND DUP2 ADD SWAP1 DUP3 DUP3 GT DUP2 DUP4 LT OR ISZERO PUSH3 0x775 JUMPI PUSH3 0x775 PUSH3 0x709 JUMP JUMPDEST DUP2 PUSH1 0x40 MSTORE DUP4 DUP2 MSTORE PUSH1 0x20 SWAP3 POP DUP7 DUP4 DUP6 DUP9 ADD ADD GT ISZERO PUSH3 0x791 JUMPI PUSH0 DUP1 REVERT JUMPDEST PUSH0 SWAP2 POP JUMPDEST DUP4 DUP3 LT ISZERO PUSH3 0x7B4 JUMPI DUP6 DUP3 ADD DUP4 ADD MLOAD DUP2 DUP4 ADD DUP5 ADD MSTORE SWAP1 DUP3 ADD SWAP1 PUSH3 0x795 JUMP JUMPDEST PUSH0 SWAP4 DUP2 ADD SWAP1 SWAP3 ADD SWAP3 SWAP1 SWAP3 MSTORE SWAP5 SWAP4 POP POP POP POP JUMP JUMPDEST PUSH0 DUP1 PUSH0 DUP1 PUSH0 DUP1 PUSH0 DUP1 PUSH0 PUSH2 0x120 DUP11 DUP13 SUB SLT ISZERO PUSH3 0x7E1 JUMPI PUSH0 DUP1 REVERT JUMPDEST DUP10 MLOAD PUSH1 0x1 PUSH1 0x1 PUSH1 0x40 SHL SUB DUP1 DUP3 GT ISZERO PUSH3 0x7F8 JUMPI PUSH0 DUP1 REVERT JUMPDEST PUSH3 0x806 DUP14 DUP4 DUP15 ADD PUSH3 0x71D JUMP JUMPDEST SWAP11 POP PUSH1 0x20 DUP13 ADD MLOAD SWAP2 POP DUP1 DUP3 GT ISZERO PUSH3 0x81C JUMPI PUSH0 DUP1 REVERT JUMPDEST POP PUSH3 0x82B DUP13 DUP3 DUP14 ADD PUSH3 0x71D JUMP JUMPDEST SWAP9 POP POP PUSH1 0x40 DUP11 ADD MLOAD SWAP7 POP PUSH1 0x60 DUP11 ADD MLOAD SWAP6 POP PUSH1 0x80 DUP11 ADD MLOAD SWAP5 POP PUSH1 0xA0 DUP11 ADD MLOAD SWAP4 POP PUSH1 0xC0 DUP11 ADD MLOAD SWAP3 POP PUSH1 0xE0 DUP11 ADD MLOAD SWAP2 POP PUSH2 0x100 DUP11 ADD MLOAD PUSH1 0x1 DUP1 PUSH1 0xA0 SHL SUB DUP2 AND DUP2 EQ PUSH3 0x872 JUMPI PUSH0 DUP1 REVERT JUMPDEST DUP1 SWAP2 POP POP SWAP3 SWAP6 SWAP9 POP SWAP3 SWAP6 SWAP9 POP SWAP3 SWAP6 SWAP9 JUMP JUMPDEST PUSH1 0x1 DUP2 DUP2 SHR SWAP1 DUP3 AND DUP1 PUSH3 0x898 JUMPI PUSH1 0x7F DUP3 AND SWAP2 POP JUMPDEST PUSH1 0x20 DUP3 LT DUP2 SUB PUSH3 0x8B7 JUMPI PUSH4 0x4E487B71 PUSH1 0xE0 SHL PUSH0 MSTORE PUSH1 0x22 PUSH1 0x4 MSTORE PUSH1 0x24 PUSH0 REVERT JUMPDEST POP SWAP2 SWAP1 POP JUMP JUMPDEST PUSH1 0x1F DUP3 GT ISZERO PUSH3 0x350 JUMPI PUSH0 DUP2 DUP2 MSTORE PUSH1 0x20 DUP2 KECCAK256 PUSH1 0x1F DUP6 ADD PUSH1 0x5 SHR DUP2 ADD PUSH1 0x20 DUP7 LT ISZERO PUSH3 0x8E5 JUMPI POP DUP1 JUMPDEST PUSH1 0x1F DUP6 ADD PUSH1 0x5 SHR DUP3 ADD SWAP2 POP JUMPDEST DUP2 DUP2 LT ISZERO PUSH3 0x5D2 JUMPI DUP3 DUP2 SSTORE PUSH1 0x1 ADD PUSH3 0x8F1 JUMP JUMPDEST DUP2 MLOAD PUSH1 0x1 PUSH1 0x1 PUSH1 0x40 SHL SUB DUP2 GT ISZERO PUSH3 0x922 JUMPI PUSH3 0x922 PUSH3 0x709 JUMP JUMPDEST PUSH3 0x93A DUP2 PUSH3 0x933 DUP5 SLOAD PUSH3 0x883 JUMP JUMPDEST DUP5 PUSH3 0x8BD JUMP JUMPDEST PUSH1 0x20 DUP1 PUSH1 0x1F DUP4 GT PUSH1 0x1 DUP2 EQ PUSH3 0x970 JUMPI PUSH0 DUP5 ISZERO PUSH3 0x958 JUMPI POP DUP6 DUP4 ADD MLOAD JUMPDEST PUSH0 NOT PUSH1 0x3 DUP7 SWAP1 SHL SHR NOT AND PUSH1 0x1 DUP6 SWAP1 SHL OR DUP6 SSTORE PUSH3 0x5D2 JUMP JUMPDEST PUSH0 DUP6 DUP2 MSTORE PUSH1 0x20 DUP2 KECCAK256 PUSH1 0x1F NOT DUP7 AND SWAP2 JUMPDEST DUP3 DUP2 LT ISZERO PUSH3 0x9A0 JUMPI DUP9 DUP7 ADD MLOAD DUP3 SSTORE SWAP5 DUP5 ADD SWAP5 PUSH1 0x1 SWAP1 SWAP2 ADD SWAP1 DUP5 ADD PUSH3 0x97F JUMP JUMPDEST POP DUP6 DUP3 LT ISZERO PUSH3 0x9BE JUMPI DUP8 DUP6 ADD MLOAD PUSH0 NOT PUSH1 0x3 DUP9 SWAP1 SHL PUSH1 0xF8 AND SHR NOT AND DUP2 SSTORE JUMPDEST POP POP POP POP POP PUSH1 0x1 SWAP1 DUP2 SHL ADD SWAP1 SSTORE POP JUMP JUMPDEST PUSH4 0x4E487B71 PUSH1 0xE0 SHL PUSH0 MSTORE PUSH1 0x11 PUSH1 0x4 MSTORE PUSH1 0x24 PUSH0 REVERT JUMPDEST PUSH1 0x1 DUP2 DUP2 JUMPDEST DUP1 DUP6 GT ISZERO PUSH3 0xA22 JUMPI DUP2 PUSH0 NOT DIV DUP3 GT ISZERO PUSH3 0xA06 JUMPI PUSH3 0xA06 PUSH3 0x9CE JUMP JUMPDEST DUP1 DUP6 AND ISZERO PUSH3 0xA14 JUMPI SWAP2 DUP2 MUL SWAP2 JUMPDEST SWAP4 DUP5 SHR SWAP4 SWAP1 DUP1 MUL SWAP1 PUSH3 0x9E7 JUMP JUMPDEST POP SWAP3 POP SWAP3 SWAP1 POP JUMP JUMPDEST PUSH0 DUP3 PUSH3 0xA3A JUMPI POP PUSH1 0x1 PUSH3 0xAD7 JUMP JUMPDEST DUP2 PUSH3 0xA48 JUMPI POP PUSH0 PUSH3 0xAD7 JUMP JUMPDEST DUP2 PUSH1 0x1 DUP2 EQ PUSH3 0xA61 JUMPI PUSH1 0x2 DUP2 EQ PUSH3 0xA6C JUMPI PUSH3 0xA8C JUMP JUMPDEST PUSH1 0x1 SWAP2 POP POP PUSH3 0xAD7 JUMP JUMPDEST PUSH1 0xFF DUP5 GT ISZERO PUSH3 0xA80 JUMPI PUSH3 0xA80 PUSH3 0x9CE JUMP JUMPDEST POP POP PUSH1 0x1 DUP3 SHL PUSH3 0xAD7 JUMP JUMPDEST POP PUSH1 0x20 DUP4 LT PUSH2 0x133 DUP4 LT AND PUSH1 0x4E DUP5 LT PUSH1 0xB DUP5 LT AND OR ISZERO PUSH3 0xAB1 JUMPI POP DUP2 DUP2 EXP PUSH3 0xAD7 JUMP JUMPDEST PUSH3 0xABD DUP4 DUP4 PUSH3 0x9E2 JUMP JUMPDEST DUP1 PUSH0 NOT DIV DUP3 GT ISZERO PUSH3 0xAD3 JUMPI PUSH3 0xAD3 PUSH3 0x9CE JUMP JUMPDEST MUL SWAP1 POP JUMPDEST SWAP3 SWAP2 POP POP JUMP JUMPDEST PUSH0 PUSH3 0xAED PUSH1 0xFF DUP5 AND DUP4 PUSH3 0xA2A JUMP JUMPDEST SWAP4 SWAP3 POP POP POP JUMP JUMPDEST DUP1 DUP3 MUL DUP2 ISZERO DUP3 DUP3 DIV DUP5 EQ OR PUSH3 0xAD7 JUMPI PUSH3 0xAD7 PUSH3 0x9CE JUMP JUMPDEST PUSH0 DUP3 PUSH3 0xB29 JUMPI PUSH4 0x4E487B71 PUSH1 0xE0 SHL PUSH0 MSTORE PUSH1 0x12 PUSH1 0x4 MSTORE PUSH1 0x24 PUSH0 REVERT JUMPDEST POP DIV SWAP1 JUMP JUMPDEST DUP1 DUP3 ADD DUP1 DUP3 GT ISZERO PUSH3 0xAD7 JUMPI PUSH3 0xAD7 PUSH3 0x9CE JUMP JUMPDEST DUP2 DUP2 SUB DUP2 DUP2 GT ISZERO PUSH3 0xAD7 JUMPI PUSH3 0xAD7 PUSH3 0x9CE JUMP JUMPDEST PUSH1 0x80 MLOAD PUSH1 0xA0 MLOAD PUSH2 0xF33 PUSH3 0xB8A PUSH0 CODECOPY PUSH0 DUP2 DUP2 PUSH2 0x27E ADD MSTORE PUSH2 0x935 ADD MSTORE PUSH0 DUP2 DUP2 PUSH2 0x2C0 ADD MSTORE PUSH2 0x9D1 ADD MSTORE PUSH2 0xF33 PUSH0 RETURN INVALID PUSH1 0x80 PUSH1 0x40 MSTORE CALLVALUE DUP1 ISZERO PUSH2 0xF JUMPI PUSH0 DUP1 REVERT JUMPDEST POP PUSH1 0x4 CALLDATASIZE LT PUSH2 0x148 JUMPI PUSH0 CALLDATALOAD PUSH1 0xE0 SHR DUP1 PUSH4 0x8DA5CB5B GT PUSH2 0xBF JUMPI DUP1 PUSH4 0xC473413A GT PUSH2 0x79 JUMPI DUP1 PUSH4 0xC473413A EQ PUSH2 0x2F5 JUMPI DUP1 PUSH4 0xCFFD129C EQ PUSH2 0x2FE JUMPI DUP1 PUSH4 0xDD62ED3E EQ PUSH2 0x307 JUMPI DUP1 PUSH4 0xE6EF73D6 EQ PUSH2 0x33F JUMPI DUP1 PUSH4 0xE8891DE8 EQ PUSH2 0x352 JUMPI DUP1 PUSH4 0xF2FDE38B EQ PUSH2 0x365 JUMPI PUSH0 DUP1 REVERT JUMPDEST DUP1 PUSH4 0x8DA5CB5B EQ PUSH2 0x254 JUMPI DUP1 PUSH4 0x91A83FEA EQ PUSH2 0x279 JUMPI DUP1 PUSH4 0x95D89B41 EQ PUSH2 0x2A0 JUMPI DUP1 PUSH4 0xA9059CBB EQ PUSH2 0x2A8 JUMPI DUP1 PUSH4 0xAA4BDE28 EQ PUSH2 0x2BB JUMPI DUP1 PUSH4 0xB9A410FF EQ PUSH2 0x2E2 JUMPI PUSH0 DUP1 REVERT JUMPDEST DUP1 PUSH4 0x2836BE24 GT PUSH2 0x110 JUMPI DUP1 PUSH4 0x2836BE24 EQ PUSH2 0x1BF JUMPI DUP1 PUSH4 0x313CE567 EQ PUSH2 0x1D4 JUMPI DUP1 PUSH4 0x33CBEAA0 EQ PUSH2 0x1E3 JUMPI DUP1 PUSH4 0x5CCE86CD EQ PUSH2 0x202 JUMPI DUP1 PUSH4 0x70A08231 EQ PUSH2 0x224 JUMPI DUP1 PUSH4 0x715018A6 EQ PUSH2 0x24C JUMPI PUSH0 DUP1 REVERT JUMPDEST DUP1 PUSH4 0x6FDDE03 EQ PUSH2 0x14C JUMPI DUP1 PUSH4 0x95EA7B3 EQ PUSH2 0x16A JUMPI DUP1 PUSH4 0xEFF6427 EQ PUSH2 0x18D JUMPI DUP1 PUSH4 0x18160DDD EQ PUSH2 0x1A4 JUMPI DUP1 PUSH4 0x23B872DD EQ PUSH2 0x1AC JUMPI JUMPDEST PUSH0 DUP1 REVERT JUMPDEST PUSH2 0x154 PUSH2 0x378 JUMP JUMPDEST PUSH1 0x40 MLOAD PUSH2 0x161 SWAP2 SWAP1 PUSH2 0xCCD JUMP JUMPDEST PUSH1 0x40 MLOAD DUP1 SWAP2 SUB SWAP1 RETURN JUMPDEST PUSH2 0x17D PUSH2 0x178 CALLDATASIZE PUSH1 0x4 PUSH2 0xD33 JUMP JUMPDEST PUSH2 0x408 JUMP JUMPDEST PUSH1 0x40 MLOAD SWAP1 ISZERO ISZERO DUP2 MSTORE PUSH1 0x20 ADD PUSH2 0x161 JUMP JUMPDEST PUSH2 0x196 PUSH1 0x6 SLOAD DUP2 JUMP JUMPDEST PUSH1 0x40 MLOAD SWAP1 DUP2 MSTORE PUSH1 0x20 ADD PUSH2 0x161 JUMP JUMPDEST PUSH1 0x2 SLOAD PUSH2 0x196 JUMP JUMPDEST PUSH2 0x17D PUSH2 0x1BA CALLDATASIZE PUSH1 0x4 PUSH2 0xD5B JUMP JUMPDEST PUSH2 0x421 JUMP JUMPDEST PUSH2 0x1D2 PUSH2 0x1CD CALLDATASIZE PUSH1 0x4 PUSH2 0xD94 JUMP JUMPDEST PUSH2 0x444 JUMP JUMPDEST STOP JUMPDEST PUSH1 0x40 MLOAD PUSH1 0x12 DUP2 MSTORE PUSH1 0x20 ADD PUSH2 0x161 JUMP JUMPDEST PUSH2 0x196 PUSH2 0x1F1 CALLDATASIZE PUSH1 0x4 PUSH2 0xDCD JUMP JUMPDEST PUSH1 0x7 PUSH1 0x20 MSTORE PUSH0 SWAP1 DUP2 MSTORE PUSH1 0x40 SWAP1 KECCAK256 SLOAD DUP2 JUMP JUMPDEST PUSH2 0x17D PUSH2 0x210 CALLDATASIZE PUSH1 0x4 PUSH2 0xDCD JUMP JUMPDEST PUSH1 0xB PUSH1 0x20 MSTORE PUSH0 SWAP1 DUP2 MSTORE PUSH1 0x40 SWAP1 KECCAK256 SLOAD PUSH1 0xFF AND DUP2 JUMP JUMPDEST PUSH2 0x196 PUSH2 0x232 CALLDATASIZE PUSH1 0x4 PUSH2 0xDCD JUMP JUMPDEST PUSH1 0x1 PUSH1 0x1 PUSH1 0xA0 SHL SUB AND PUSH0 SWAP1 DUP2 MSTORE PUSH1 0x20 DUP2 SWAP1 MSTORE PUSH1 0x40 SWAP1 KECCAK256 SLOAD SWAP1 JUMP JUMPDEST PUSH2 0x1D2 PUSH2 0x4AA JUMP JUMPDEST PUSH1 0x5 SLOAD PUSH1 0x1 PUSH1 0x1 PUSH1 0xA0 SHL SUB AND JUMPDEST PUSH1 0x40 MLOAD PUSH1 0x1 PUSH1 0x1 PUSH1 0xA0 SHL SUB SWAP1 SWAP2 AND DUP2 MSTORE PUSH1 0x20 ADD PUSH2 0x161 JUMP JUMPDEST PUSH2 0x196 PUSH32 0x0 DUP2 JUMP JUMPDEST PUSH2 0x154 PUSH2 0x4BD JUMP JUMPDEST PUSH2 0x17D PUSH2 0x2B6 CALLDATASIZE PUSH1 0x4 PUSH2 0xD33 JUMP JUMPDEST PUSH2 0x4CC JUMP JUMPDEST PUSH2 0x196 PUSH32 0x0 DUP2 JUMP JUMPDEST PUSH2 0x1D2 PUSH2 0x2F0 CALLDATASIZE PUSH1 0x4 PUSH2 0xDED JUMP JUMPDEST PUSH2 0x4D9 JUMP JUMPDEST PUSH2 0x196 PUSH1 0x8 SLOAD DUP2 JUMP JUMPDEST PUSH2 0x196 PUSH1 0x9 SLOAD DUP2 JUMP JUMPDEST PUSH2 0x196 PUSH2 0x315 CALLDATASIZE PUSH1 0x4 PUSH2 0xE0D JUMP JUMPDEST PUSH1 0x1 PUSH1 0x1 PUSH1 0xA0 SHL SUB SWAP2 DUP3 AND PUSH0 SWAP1 DUP2 MSTORE PUSH1 0x1 PUSH1 0x20 SWAP1 DUP2 MSTORE PUSH1 0x40 DUP1 DUP4 KECCAK256 SWAP4 SWAP1 SWAP5 AND DUP3 MSTORE SWAP2 SWAP1 SWAP2 MSTORE KECCAK256 SLOAD SWAP1 JUMP JUMPDEST PUSH1 0xA SLOAD PUSH2 0x261 SWAP1 PUSH1 0x1 PUSH1 0x1 PUSH1 0xA0 SHL SUB AND DUP2 JUMP JUMPDEST PUSH2 0x1D2 PUSH2 0x360 CALLDATASIZE PUSH1 0x4 PUSH2 0xE3E JUMP JUMPDEST PUSH2 0x5D1 JUMP JUMPDEST PUSH2 0x1D2 PUSH2 0x373 CALLDATASIZE PUSH1 0x4 PUSH2 0xDCD JUMP JUMPDEST PUSH2 0x665 JUMP JUMPDEST PUSH1 0x60 PUSH1 0x3 DUP1 SLOAD PUSH2 0x387 SWAP1 PUSH2 0xE55 JUMP JUMPDEST DUP1 PUSH1 0x1F ADD PUSH1 0x20 DUP1 SWAP2 DIV MUL PUSH1 0x20 ADD PUSH1 0x40 MLOAD SWAP1 DUP2 ADD PUSH1 0x40 MSTORE DUP1 SWAP3 SWAP2 SWAP1 DUP2 DUP2 MSTORE PUSH1 0x20 ADD DUP3 DUP1 SLOAD PUSH2 0x3B3 SWAP1 PUSH2 0xE55 JUMP JUMPDEST DUP1 ISZERO PUSH2 0x3FE JUMPI DUP1 PUSH1 0x1F LT PUSH2 0x3D5 JUMPI PUSH2 0x100 DUP1 DUP4 SLOAD DIV MUL DUP4 MSTORE SWAP2 PUSH1 0x20 ADD SWAP2 PUSH2 0x3FE JUMP JUMPDEST DUP3 ADD SWAP2 SWAP1 PUSH0 MSTORE PUSH1 0x20 PUSH0 KECCAK256 SWAP1 JUMPDEST DUP2 SLOAD DUP2 MSTORE SWAP1 PUSH1 0x1 ADD SWAP1 PUSH1 0x20 ADD DUP1 DUP4 GT PUSH2 0x3E1 JUMPI DUP3 SWAP1 SUB PUSH1 0x1F AND DUP3 ADD SWAP2 JUMPDEST POP POP POP POP POP SWAP1 POP SWAP1 JUMP JUMPDEST PUSH0 CALLER PUSH2 0x415 DUP2 DUP6 DUP6 PUSH2 0x6A2 JUMP JUMPDEST PUSH1 0x1 SWAP2 POP POP JUMPDEST SWAP3 SWAP2 POP POP JUMP JUMPDEST PUSH0 CALLER PUSH2 0x42E DUP6 DUP3 DUP6 PUSH2 0x6B4 JUMP JUMPDEST PUSH2 0x439 DUP6 DUP6 DUP6 PUSH2 0x730 JUMP JUMPDEST POP PUSH1 0x1 SWAP5 SWAP4 POP POP POP POP JUMP JUMPDEST PUSH2 0x44C PUSH2 0x78D JUMP JUMPDEST PUSH1 0x1 PUSH1 0x1 PUSH1 0xA0 SHL SUB DUP3 AND PUSH0 DUP2 DUP2 MSTORE PUSH1 0xB PUSH1 0x20 SWAP1 DUP2 MSTORE PUSH1 0x40 SWAP2 DUP3 SWAP1 KECCAK256 DUP1 SLOAD PUSH1 0xFF NOT AND DUP6 ISZERO ISZERO SWAP1 DUP2 OR SWAP1 SWAP2 SSTORE SWAP2 MLOAD SWAP2 DUP3 MSTORE PUSH32 0x83F2B279B6151AF5A15CDBE8471D34FE8B34AED9BD9514FFEADB57C9EA366E61 SWAP2 ADD PUSH1 0x40 MLOAD DUP1 SWAP2 SUB SWAP1 LOG2 POP POP JUMP JUMPDEST PUSH2 0x4B2 PUSH2 0x78D JUMP JUMPDEST PUSH2 0x4BB PUSH0 PUSH2 0x7BA JUMP JUMPDEST JUMP JUMPDEST PUSH1 0x60 PUSH1 0x4 DUP1 SLOAD PUSH2 0x387 SWAP1 PUSH2 0xE55 JUMP JUMPDEST PUSH0 CALLER PUSH2 0x415 DUP2 DUP6 DUP6 PUSH2 0x730 JUMP JUMPDEST PUSH2 0x4E1 PUSH2 0x78D JUMP JUMPDEST PUSH1 0x8 SLOAD DUP3 GT ISZERO PUSH2 0x538 JUMPI PUSH1 0x40 MLOAD PUSH3 0x461BCD PUSH1 0xE5 SHL DUP2 MSTORE PUSH1 0x20 PUSH1 0x4 DUP3 ADD MSTORE PUSH1 0x17 PUSH1 0x24 DUP3 ADD MSTORE PUSH32 0x43616E6E6F7420696E6372656173652062757920746178000000000000000000 PUSH1 0x44 DUP3 ADD MSTORE PUSH1 0x64 ADD JUMPDEST PUSH1 0x40 MLOAD DUP1 SWAP2 SUB SWAP1 REVERT JUMPDEST PUSH1 0x9 SLOAD DUP2 GT ISZERO PUSH2 0x58A JUMPI PUSH1 0x40 MLOAD PUSH3 0x461BCD PUSH1 0xE5 SHL DUP2 MSTORE PUSH1 0x20 PUSH1 0x4 DUP3 ADD MSTORE PUSH1 0x18 PUSH1 0x24 DUP3 ADD MSTORE PUSH32 0x43616E6E6F7420696E6372656173652073656C6C207461780000000000000000 PUSH1 0x44 DUP3 ADD MSTORE PUSH1 0x64 ADD PUSH2 0x52F JUMP JUMPDEST PUSH1 0x8 DUP3 SWAP1 SSTORE PUSH1 0x9 DUP2 SWAP1 SSTORE PUSH1 0x40 DUP1 MLOAD DUP4 DUP2 MSTORE PUSH1 0x20 DUP2 ADD DUP4 SWAP1 MSTORE PUSH32 0xB841FAF0D1B32571F4EF966A2F35E3AE51F3CDDA45318C3DA5570A5B2AD85605 SWAP2 ADD PUSH1 0x40 MLOAD DUP1 SWAP2 SUB SWAP1 LOG1 POP POP JUMP JUMPDEST PUSH2 0x5D9 PUSH2 0x78D JUMP JUMPDEST PUSH1 0x6 SLOAD DUP2 LT PUSH2 0x62A JUMPI PUSH1 0x40 MLOAD PUSH3 0x461BCD PUSH1 0xE5 SHL DUP2 MSTORE PUSH1 0x20 PUSH1 0x4 DUP3 ADD MSTORE PUSH1 0x18 PUSH1 0x24 DUP3 ADD MSTORE PUSH32 0x43616E6E6F7420696E63726561736520636F6F6C646F776E0000000000000000 PUSH1 0x44 DUP3 ADD MSTORE PUSH1 0x64 ADD PUSH2 0x52F JUMP JUMPDEST PUSH1 0x6 DUP2 SWAP1 SSTORE PUSH1 0x40 MLOAD DUP2 DUP2 MSTORE PUSH32 0x583D8B24C5439AB7D810E51E37E8DB41BA66F1168FD7B752CEAE0C7681C5272C SWAP1 PUSH1 0x20 ADD PUSH1 0x40 MLOAD DUP1 SWAP2 SUB SWAP1 LOG1 POP JUMP JUMPDEST PUSH2 0x66D PUSH2 0x78D JUMP JUMPDEST PUSH1 0x1 PUSH1 0x1 PUSH1 0xA0 SHL SUB DUP2 AND PUSH2 0x696 JUMPI PUSH1 0x40 MLOAD PUSH4 0x1E4FBDF7 PUSH1 0xE0 SHL DUP2 MSTORE PUSH0 PUSH1 0x4 DUP3 ADD MSTORE PUSH1 0x24 ADD PUSH2 0x52F JUMP JUMPDEST PUSH2 0x69F DUP2 PUSH2 0x7BA JUMP JUMPDEST POP JUMP JUMPDEST PUSH2 0x6AF DUP4 DUP4 DUP4 PUSH1 0x1 PUSH2 0x80B JUMP JUMPDEST POP POP POP JUMP JUMPDEST PUSH1 0x1 PUSH1 0x1 PUSH1 0xA0 SHL SUB DUP4 DUP2 AND PUSH0 SWAP1 DUP2 MSTORE PUSH1 0x1 PUSH1 0x20 SWAP1 DUP2 MSTORE PUSH1 0x40 DUP1 DUP4 KECCAK256 SWAP4 DUP7 AND DUP4 MSTORE SWAP3 SWAP1 MSTORE KECCAK256 SLOAD PUSH0 NOT DUP2 LT ISZERO PUSH2 0x72A JUMPI DUP2 DUP2 LT ISZERO PUSH2 0x71C JUMPI PUSH1 0x40 MLOAD PUSH4 0x7DC7A0D9 PUSH1 0xE1 SHL DUP2 MSTORE PUSH1 0x1 PUSH1 0x1 PUSH1 0xA0 SHL SUB DUP5 AND PUSH1 0x4 DUP3 ADD MSTORE PUSH1 0x24 DUP2 ADD DUP3 SWAP1 MSTORE PUSH1 0x44 DUP2 ADD DUP4 SWAP1 MSTORE PUSH1 0x64 ADD PUSH2 0x52F JUMP JUMPDEST PUSH2 0x72A DUP5 DUP5 DUP5 DUP5 SUB PUSH0 PUSH2 0x80B JUMP JUMPDEST POP POP POP POP JUMP JUMPDEST PUSH1 0x1 PUSH1 0x1 PUSH1 0xA0 SHL SUB DUP4 AND PUSH2 0x759 JUMPI PUSH1 0x40 MLOAD PUSH4 0x4B637E8F PUSH1 0xE1 SHL DUP2 MSTORE PUSH0 PUSH1 0x4 DUP3 ADD MSTORE PUSH1 0x24 ADD PUSH2 0x52F JUMP JUMPDEST PUSH1 0x1 PUSH1 0x1 PUSH1 0xA0 SHL SUB DUP3 AND PUSH2 0x782 JUMPI PUSH1 0x40 MLOAD PUSH4 0xEC442F05 PUSH1 0xE0 SHL DUP2 MSTORE PUSH0 PUSH1 0x4 DUP3 ADD MSTORE PUSH1 0x24 ADD PUSH2 0x52F JUMP JUMPDEST PUSH2 0x6AF DUP4 DUP4 DUP4 PUSH2 0x8DD JUMP JUMPDEST PUSH1 0x5 SLOAD PUSH1 0x1 PUSH1 0x1 PUSH1 0xA0 SHL SUB AND CALLER EQ PUSH2 0x4BB JUMPI PUSH1 0x40 MLOAD PUSH4 0x118CDAA7 PUSH1 0xE0 SHL DUP2 MSTORE CALLER PUSH1 0x4 DUP3 ADD MSTORE PUSH1 0x24 ADD PUSH2 0x52F JUMP JUMPDEST PUSH1 0x5 DUP1 SLOAD PUSH1 0x1 PUSH1 0x1 PUSH1 0xA0 SHL SUB DUP4 DUP2 AND PUSH1 0x1 PUSH1 0x1 PUSH1 0xA0 SHL SUB NOT DUP4 AND DUP2 OR SWAP1 SWAP4 SSTORE PUSH1 0x40 MLOAD SWAP2 AND SWAP2 SWAP1 DUP3 SWAP1 PUSH32 0x8BE0079C531659141344CD1FD0A4F28419497F9722A3DAAFE3B4186F6B6457E0 SWAP1 PUSH0 SWAP1 LOG3 POP POP JUMP JUMPDEST PUSH1 0x1 PUSH1 0x1 PUSH1 0xA0 SHL SUB DUP5 AND PUSH2 0x834 JUMPI PUSH1 0x40 MLOAD PUSH4 0xE602DF05 PUSH1 0xE0 SHL DUP2 MSTORE PUSH0 PUSH1 0x4 DUP3 ADD MSTORE PUSH1 0x24 ADD PUSH2 0x52F JUMP JUMPDEST PUSH1 0x1 PUSH1 0x1 PUSH1 0xA0 SHL SUB DUP4 AND PUSH2 0x85D JUMPI PUSH1 0x40 MLOAD PUSH4 0x4A1406B1 PUSH1 0xE1 SHL DUP2 MSTORE PUSH0 PUSH1 0x4 DUP3 ADD MSTORE PUSH1 0x24 ADD PUSH2 0x52F JUMP JUMPDEST PUSH1 0x1 PUSH1 0x1 PUSH1 0xA0 SHL SUB DUP1 DUP6 AND PUSH0 SWAP1 DUP2 MSTORE PUSH1 0x1 PUSH1 0x20 SWAP1 DUP2 MSTORE PUSH1 0x40 DUP1 DUP4 KECCAK256 SWAP4 DUP8 AND DUP4 MSTORE SWAP3 SWAP1 MSTORE KECCAK256 DUP3 SWAP1 SSTORE DUP1 ISZERO PUSH2 0x72A JUMPI DUP3 PUSH1 0x1 PUSH1 0x1 PUSH1 0xA0 SHL SUB AND DUP5 PUSH1 0x1 PUSH1 0x1 PUSH1 0xA0 SHL SUB AND PUSH32 0x8C5BE1E5EBEC7D5BD14F71427D1E84F3DD0314C0F7B2291E5B200AC8C7C3B925 DUP5 PUSH1 0x40 MLOAD PUSH2 0x8CF SWAP2 DUP2 MSTORE PUSH1 0x20 ADD SWAP1 JUMP JUMPDEST PUSH1 0x40 MLOAD DUP1 SWAP2 SUB SWAP1 LOG3 POP POP POP POP JUMP JUMPDEST PUSH1 0x1 PUSH1 0x1 PUSH1 0xA0 SHL SUB DUP4 AND ISZERO DUP1 PUSH2 0x8FA JUMPI POP PUSH1 0x1 PUSH1 0x1 PUSH1 0xA0 SHL SUB DUP3 AND ISZERO JUMPDEST ISZERO PUSH2 0x90A JUMPI PUSH2 0x6AF DUP4 DUP4 DUP4 PUSH2 0xBA7 JUMP JUMPDEST PUSH1 0x1 PUSH1 0x1 PUSH1 0xA0 SHL SUB DUP1 DUP5 AND PUSH0 SWAP1 DUP2 MSTORE PUSH1 0xB PUSH1 0x20 MSTORE PUSH1 0x40 DUP1 DUP3 KECCAK256 SLOAD SWAP3 DUP6 AND DUP3 MSTORE SWAP1 KECCAK256 SLOAD PUSH1 0xFF SWAP2 DUP3 AND SWAP2 AND PUSH32 0x0 NUMBER GT DUP1 ISZERO SWAP1 PUSH2 0x961 JUMPI POP DUP2 ISZERO JUMPDEST DUP1 ISZERO PUSH2 0x96B JUMPI POP DUP1 ISZERO JUMPDEST ISZERO PUSH2 0x9CA JUMPI PUSH1 0x40 MLOAD PUSH3 0x461BCD PUSH1 0xE5 SHL DUP2 MSTORE PUSH1 0x20 PUSH1 0x4 DUP3 ADD MSTORE PUSH1 0x29 PUSH1 0x24 DUP3 ADD MSTORE PUSH32 0x477561726469616E546F6B656E3A20616E74692D626F742070726F7465637469 PUSH1 0x44 DUP3 ADD MSTORE PUSH9 0x6F6E20616374697665 PUSH1 0xB8 SHL PUSH1 0x64 DUP3 ADD MSTORE PUSH1 0x84 ADD PUSH2 0x52F JUMP JUMPDEST DUP1 PUSH2 0xA71 JUMPI PUSH32 0x0 DUP4 PUSH2 0xA0F DUP7 PUSH1 0x1 PUSH1 0x1 PUSH1 0xA0 SHL SUB AND PUSH0 SWAP1 DUP2 MSTORE PUSH1 0x20 DUP2 SWAP1 MSTORE PUSH1 0x40 SWAP1 KECCAK256 SLOAD SWAP1 JUMP JUMPDEST PUSH2 0xA19 SWAP2 SWAP1 PUSH2 0xEA1 JUMP JUMPDEST GT ISZERO PUSH2 0xA71 JUMPI PUSH1 0x40 MLOAD PUSH3 0x461BCD PUSH1 0xE5 SHL DUP2 MSTORE PUSH1 0x20 PUSH1 0x4 DUP3 ADD MSTORE PUSH1 0x21 PUSH1 0x24 DUP3 ADD MSTORE PUSH32 0x477561726469616E546F6B656E3A2065786365656473206D61782077616C6C65 PUSH1 0x44 DUP3 ADD MSTORE PUSH1 0x1D PUSH1 0xFA SHL PUSH1 0x64 DUP3 ADD MSTORE PUSH1 0x84 ADD PUSH2 0x52F JUMP JUMPDEST DUP2 ISZERO DUP1 ISZERO PUSH2 0xA80 JUMPI POP PUSH0 PUSH1 0x6 SLOAD GT JUMPDEST ISZERO PUSH2 0xB20 JUMPI PUSH1 0x6 SLOAD PUSH1 0x1 PUSH1 0x1 PUSH1 0xA0 SHL SUB DUP7 AND PUSH0 SWAP1 DUP2 MSTORE PUSH1 0x7 PUSH1 0x20 MSTORE PUSH1 0x40 SWAP1 KECCAK256 SLOAD PUSH2 0xAAA SWAP2 SWAP1 PUSH2 0xEA1 JUMP JUMPDEST TIMESTAMP LT ISZERO PUSH2 0xB05 JUMPI PUSH1 0x40 MLOAD PUSH3 0x461BCD PUSH1 0xE5 SHL DUP2 MSTORE PUSH1 0x20 PUSH1 0x4 DUP3 ADD MSTORE PUSH1 0x23 PUSH1 0x24 DUP3 ADD MSTORE PUSH32 0x477561726469616E546F6B656E3A2073656C6C20636F6F6C646F776E20616374 PUSH1 0x44 DUP3 ADD MSTORE PUSH3 0x697665 PUSH1 0xE8 SHL PUSH1 0x64 DUP3 ADD MSTORE PUSH1 0x84 ADD PUSH2 0x52F JUMP JUMPDEST PUSH1 0x1 PUSH1 0x1 PUSH1 0xA0 SHL SUB DUP6 AND PUSH0 SWAP1 DUP2 MSTORE PUSH1 0x7 PUSH1 0x20 MSTORE PUSH1 0x40 SWAP1 KECCAK256 TIMESTAMP SWAP1 SSTORE JUMPDEST PUSH0 DUP3 ISZERO DUP1 ISZERO PUSH2 0xB2D JUMPI POP DUP2 ISZERO JUMPDEST ISZERO PUSH2 0xB5D JUMPI PUSH1 0x9 SLOAD PUSH1 0x8 SLOAD ISZERO PUSH2 0xB42 JUMPI POP PUSH1 0x8 SLOAD JUMPDEST PUSH2 0x2710 PUSH2 0xB4F DUP3 DUP8 PUSH2 0xEB4 JUMP JUMPDEST PUSH2 0xB59 SWAP2 SWAP1 PUSH2 0xECB JUMP JUMPDEST SWAP2 POP POP JUMPDEST DUP1 ISZERO PUSH2 0xB94 JUMPI PUSH1 0xA SLOAD PUSH2 0xB7B SWAP1 DUP8 SWAP1 PUSH1 0x1 PUSH1 0x1 PUSH1 0xA0 SHL SUB AND DUP4 PUSH2 0xBA7 JUMP JUMPDEST PUSH2 0xB8F DUP7 DUP7 PUSH2 0xB8A DUP5 DUP9 PUSH2 0xEEA JUMP JUMPDEST PUSH2 0xBA7 JUMP JUMPDEST PUSH2 0xB9F JUMP JUMPDEST PUSH2 0xB9F DUP7 DUP7 DUP7 PUSH2 0xBA7 JUMP JUMPDEST POP POP POP POP POP POP JUMP JUMPDEST PUSH1 0x1 PUSH1 0x1 PUSH1 0xA0 SHL SUB DUP4 AND PUSH2 0xBD1 JUMPI DUP1 PUSH1 0x2 PUSH0 DUP3 DUP3 SLOAD PUSH2 0xBC6 SWAP2 SWAP1 PUSH2 0xEA1 JUMP JUMPDEST SWAP1 SWAP2 SSTORE POP PUSH2 0xC41 SWAP1 POP JUMP JUMPDEST PUSH1 0x1 PUSH1 0x1 PUSH1 0xA0 SHL SUB DUP4 AND PUSH0 SWAP1 DUP2 MSTORE PUSH1 0x20 DUP2 SWAP1 MSTORE PUSH1 0x40 SWAP1 KECCAK256 SLOAD DUP2 DUP2 LT ISZERO PUSH2 0xC23 JUMPI PUSH1 0x40 MLOAD PUSH4 0x391434E3 PUSH1 0xE2 SHL DUP2 MSTORE PUSH1 0x1 PUSH1 0x1 PUSH1 0xA0 SHL SUB DUP6 AND PUSH1 0x4 DUP3 ADD MSTORE PUSH1 0x24 DUP2 ADD DUP3 SWAP1 MSTORE PUSH1 0x44 DUP2 ADD DUP4 SWAP1 MSTORE PUSH1 0x64 ADD PUSH2 0x52F JUMP JUMPDEST PUSH1 0x1 PUSH1 0x1 PUSH1 0xA0 SHL SUB DUP5 AND PUSH0 SWAP1 DUP2 MSTORE PUSH1 0x20 DUP2 SWAP1 MSTORE PUSH1 0x40 SWAP1 KECCAK256 SWAP1 DUP3 SWAP1 SUB SWAP1 SSTORE JUMPDEST PUSH1 0x1 PUSH1 0x1 PUSH1 0xA0 SHL SUB DUP3 AND PUSH2 0xC5D JUMPI PUSH1 0x2 DUP1 SLOAD DUP3 SWAP1 SUB SWAP1 SSTORE PUSH2 0xC7B JUMP JUMPDEST PUSH1 0x1 PUSH1 0x1 PUSH1 0xA0 SHL SUB DUP3 AND PUSH0 SWAP1 DUP2 MSTORE PUSH1 0x20 DUP2 SWAP1 MSTORE PUSH1 0x40 SWAP1 KECCAK256 DUP1 SLOAD DUP3 ADD SWAP1 SSTORE JUMPDEST DUP2 PUSH1 0x1 PUSH1 0x1 PUSH1 0xA0 SHL SUB AND DUP4 PUSH1 0x1 PUSH1 0x1 PUSH1 0xA0 SHL SUB AND PUSH32 0xDDF252AD1BE2C89B69C2B068FC378DAA952BA7F163C4A11628F55A4DF523B3EF DUP4 PUSH1 0x40 MLOAD PUSH2 0xCC0 SWAP2 DUP2 MSTORE PUSH1 0x20 ADD SWAP1 JUMP JUMPDEST PUSH1 0x40 MLOAD DUP1 SWAP2 SUB SWAP1 LOG3 POP POP POP JUMP JUMPDEST PUSH0 PUSH1 0x20 DUP1 DUP4 MSTORE DUP4 MLOAD DUP1 DUP3 DUP6 ADD MSTORE PUSH0 JUMPDEST DUP2 DUP2 LT ISZERO PUSH2 0xCF8 JUMPI DUP6 DUP2 ADD DUP4 ADD MLOAD DUP6 DUP3 ADD PUSH1 0x40 ADD MSTORE DUP3 ADD PUSH2 0xCDC JUMP JUMPDEST POP PUSH0 PUSH1 0x40 DUP3 DUP7 ADD ADD MSTORE PUSH1 0x40 PUSH1 0x1F NOT PUSH1 0x1F DUP4 ADD AND DUP6 ADD ADD SWAP3 POP POP POP SWAP3 SWAP2 POP POP JUMP JUMPDEST DUP1 CALLDATALOAD PUSH1 0x1 PUSH1 0x1 PUSH1 0xA0 SHL SUB DUP2 AND DUP2 EQ PUSH2 0xD2E JUMPI PUSH0 DUP1 REVERT JUMPDEST SWAP2 SWAP1 POP JUMP JUMPDEST PUSH0 DUP1 PUSH1 0x40 DUP4 DUP6 SUB SLT ISZERO PUSH2 0xD44 JUMPI PUSH0 DUP1 REVERT JUMPDEST PUSH2 0xD4D DUP4 PUSH2 0xD18 JUMP JUMPDEST SWAP5 PUSH1 0x20 SWAP4 SWAP1 SWAP4 ADD CALLDATALOAD SWAP4 POP POP POP JUMP JUMPDEST PUSH0 DUP1 PUSH0 PUSH1 0x60 DUP5 DUP7 SUB SLT ISZERO PUSH2 0xD6D JUMPI PUSH0 DUP1 REVERT JUMPDEST PUSH2 0xD76 DUP5 PUSH2 0xD18 JUMP JUMPDEST SWAP3 POP PUSH2 0xD84 PUSH1 0x20 DUP6 ADD PUSH2 0xD18 JUMP JUMPDEST SWAP2 POP PUSH1 0x40 DUP5 ADD CALLDATALOAD SWAP1 POP SWAP3 POP SWAP3 POP SWAP3 JUMP JUMPDEST PUSH0 DUP1 PUSH1 0x40 DUP4 DUP6 SUB SLT ISZERO PUSH2 0xDA5 JUMPI PUSH0 DUP1 REVERT JUMPDEST PUSH2 0xDAE DUP4 PUSH2 0xD18 JUMP JUMPDEST SWAP2 POP PUSH1 0x20 DUP4 ADD CALLDATALOAD DUP1 ISZERO ISZERO DUP2 EQ PUSH2 0xDC2 JUMPI PUSH0 DUP1 REVERT JUMPDEST DUP1 SWAP2 POP POP SWAP3 POP SWAP3 SWAP1 POP JUMP JUMPDEST PUSH0 PUSH1 0x20 DUP3 DUP5 SUB SLT ISZERO PUSH2 0xDDD JUMPI PUSH0 DUP1 REVERT JUMPDEST PUSH2 0xDE6 DUP3 PUSH2 0xD18 JUMP JUMPDEST SWAP4 SWAP3 POP POP POP JUMP JUMPDEST PUSH0 DUP1 PUSH1 0x40 DUP4 DUP6 SUB SLT ISZERO PUSH2 0xDFE JUMPI PUSH0 DUP1 REVERT JUMPDEST POP POP DUP1 CALLDATALOAD SWAP3 PUSH1 0x20 SWAP1 SWAP2 ADD CALLDATALOAD SWAP2 POP JUMP JUMPDEST PUSH0 DUP1 PUSH1 0x40 DUP4 DUP6 SUB SLT ISZERO PUSH2 0xE1E JUMPI PUSH0 DUP1 REVERT JUMPDEST PUSH2 0xE27 DUP4 PUSH2 0xD18 JUMP JUMPDEST SWAP2 POP PUSH2 0xE35 PUSH1 0x20 DUP5 ADD PUSH2 0xD18 JUMP JUMPDEST SWAP1 POP SWAP3 POP SWAP3 SWAP1 POP JUMP JUMPDEST PUSH0 PUSH1 0x20 DUP3 DUP5 SUB SLT ISZERO PUSH2 0xE4E JUMPI PUSH0 DUP1 REVERT JUMPDEST POP CALLDATALOAD SWAP2 SWAP1 POP JUMP JUMPDEST PUSH1 0x1 DUP2 DUP2 SHR SWAP1 DUP3 AND DUP1 PUSH2 0xE69 JUMPI PUSH1 0x7F DUP3 AND SWAP2 POP JUMPDEST PUSH1 0x20 DUP3 LT DUP2 SUB PUSH2 0xE87 JUMPI PUSH4 0x4E487B71 PUSH1 0xE0 SHL PUSH0 MSTORE PUSH1 0x22 PUSH1 0x4 MSTORE PUSH1 0x24 PUSH0 REVERT JUMPDEST POP SWAP2 SWAP1 POP JUMP JUMPDEST PUSH4 0x4E487B71 PUSH1 0xE0 SHL PUSH0 MSTORE PUSH1 0x11 PUSH1 0x4 MSTORE PUSH1 0x24 PUSH0 REVERT JUMPDEST DUP1 DUP3 ADD DUP1 DUP3 GT ISZERO PUSH2 0x41B JUMPI PUSH2 0x41B PUSH2 0xE8D JUMP JUMPDEST DUP1 DUP3 MUL DUP2 ISZERO DUP3 DUP3 DIV DUP5 EQ OR PUSH2 0x41B JUMPI PUSH2 0x41B PUSH2 0xE8D JUMP JUMPDEST PUSH0 DUP3 PUSH2 0xEE5 JUMPI PUSH4 0x4E487B71 PUSH1 0xE0 SHL PUSH0 MSTORE PUSH1 0x12 PUSH1 0x4 MSTORE PUSH1 0x24 PUSH0 REVERT JUMPDEST POP DIV SWAP1 JUMP JUMPDEST DUP2 DUP2 SUB DUP2 DUP2 GT ISZERO PUSH2 0x41B JUMPI PUSH2 0x41B PUSH2 0xE8D JUMP INVALID LOG2 PUSH5 0x6970667358 0x22 SLT KECCAK256 0x49 CALL SWAP12 SWAP1 PREVRANDAO 0x4F 0x4A ADDRESS PUSH30 0x6D73A5881646D13E4172FCCFF42170C54F1E5FA83C218A64736F6C634300 ADDMOD EQ STOP CALLER "},"methodIdentifiers":{"allowance(address,address)":"dd62ed3e","antiBotEndBlock()":"91a83fea","approve(address,uint256)":"095ea7b3","balanceOf(address)":"70a08231","buyTaxBps()":"c473413a","decimals()":"313ce567","isExcludedFromLimits(address)":"5cce86cd","lastSellTimestamp(address)":"33cbeaa0","maxWalletAmount()":"aa4bde28","name()":"06fdde03","owner()":"8da5cb5b","reduceCooldown(uint256)":"e8891de8","reduceTax(uint256,uint256)":"b9a410ff","renounceOwnership()":"715018a6","sellCooldownSeconds()":"0eff6427","sellTaxBps()":"cffd129c","setExcluded(address,bool)":"2836be24","symbol()":"95d89b41","taxReceiver()":"e6ef73d6","totalSupply()":"18160ddd","transfer(address,uint256)":"a9059cbb","transferFrom(address,address,uint256)":"23b872dd","transferOwnership(address)":"f2fde38b"}}}}}