{
  "_format": "hh3-artifact-1",
  "contractName": "LiquidityController",
  "sourceName": "contracts/LiquidityController.sol",
  "abi": [
    {
      "inputs": [
        {
          "internalType": "address",
          "name": "_oracle",
          "type": "address"
        }
      ],
      "stateMutability": "nonpayable",
      "type": "constructor"
    },
    {
      "inputs": [],
      "name": "ECDSAInvalidSignature",
      "type": "error"
    },
    {
      "inputs": [
        {
          "internalType": "uint256",
          "name": "length",
          "type": "uint256"
        }
      ],
      "name": "ECDSAInvalidSignatureLength",
      "type": "error"
    },
    {
      "inputs": [
        {
          "internalType": "bytes32",
          "name": "s",
          "type": "bytes32"
        }
      ],
      "name": "ECDSAInvalidSignatureS",
      "type": "error"
    },
    {
      "inputs": [
        {
          "internalType": "address",
          "name": "owner",
          "type": "address"
        }
      ],
      "name": "OwnableInvalidOwner",
      "type": "error"
    },
    {
      "inputs": [
        {
          "internalType": "address",
          "name": "account",
          "type": "address"
        }
      ],
      "name": "OwnableUnauthorizedAccount",
      "type": "error"
    },
    {
      "inputs": [
        {
          "internalType": "address",
          "name": "token",
          "type": "address"
        }
      ],
      "name": "SafeERC20FailedOperation",
      "type": "error"
    },
    {
      "anonymous": false,
      "inputs": [
        {
          "indexed": true,
          "internalType": "address",
          "name": "token",
          "type": "address"
        },
        {
          "indexed": false,
          "internalType": "string",
          "name": "reason",
          "type": "string"
        }
      ],
      "name": "EmergencyFrozen",
      "type": "event"
    },
    {
      "anonymous": false,
      "inputs": [
        {
          "indexed": true,
          "internalType": "address",
          "name": "token",
          "type": "address"
        },
        {
          "indexed": true,
          "internalType": "address",
          "name": "lpToken",
          "type": "address"
        },
        {
          "indexed": false,
          "internalType": "uint256",
          "name": "amount",
          "type": "uint256"
        }
      ],
      "name": "Locked",
      "type": "event"
    },
    {
      "anonymous": false,
      "inputs": [
        {
          "indexed": true,
          "internalType": "address",
          "name": "previousOwner",
          "type": "address"
        },
        {
          "indexed": true,
          "internalType": "address",
          "name": "newOwner",
          "type": "address"
        }
      ],
      "name": "OwnershipTransferred",
      "type": "event"
    },
    {
      "anonymous": false,
      "inputs": [
        {
          "indexed": true,
          "internalType": "address",
          "name": "token",
          "type": "address"
        },
        {
          "indexed": false,
          "internalType": "uint256",
          "name": "delayDays",
          "type": "uint256"
        },
        {
          "indexed": false,
          "internalType": "uint256",
          "name": "healthScore",
          "type": "uint256"
        }
      ],
      "name": "PenaltyApplied",
      "type": "event"
    },
    {
      "anonymous": false,
      "inputs": [
        {
          "indexed": true,
          "internalType": "address",
          "name": "token",
          "type": "address"
        },
        {
          "indexed": false,
          "internalType": "uint256",
          "name": "amount",
          "type": "uint256"
        },
        {
          "indexed": false,
          "internalType": "uint256",
          "name": "healthScore",
          "type": "uint256"
        }
      ],
      "name": "Unlocked",
      "type": "event"
    },
    {
      "inputs": [
        {
          "internalType": "address",
          "name": "projectToken",
          "type": "address"
        }
      ],
      "name": "emergencyFreeze",
      "outputs": [],
      "stateMutability": "nonpayable",
      "type": "function"
    },
    {
      "inputs": [
        {
          "internalType": "address",
          "name": "projectToken",
          "type": "address"
        }
      ],
      "name": "getMilestones",
      "outputs": [
        {
          "components": [
            {
              "internalType": "uint256",
              "name": "unlockTimestamp",
              "type": "uint256"
            },
            {
              "internalType": "uint256",
              "name": "amountToUnlock",
              "type": "uint256"
            },
            {
              "internalType": "bool",
              "name": "isUnlocked",
              "type": "bool"
            }
          ],
          "internalType": "struct LiquidityController.Milestone[]",
          "name": "",
          "type": "tuple[]"
        }
      ],
      "stateMutability": "view",
      "type": "function"
    },
    {
      "inputs": [],
      "name": "guardianOracle",
      "outputs": [
        {
          "internalType": "address",
          "name": "",
          "type": "address"
        }
      ],
      "stateMutability": "view",
      "type": "function"
    },
    {
      "inputs": [
        {
          "internalType": "address",
          "name": "projectToken",
          "type": "address"
        },
        {
          "internalType": "address",
          "name": "lpToken",
          "type": "address"
        },
        {
          "internalType": "uint256",
          "name": "amount",
          "type": "uint256"
        },
        {
          "internalType": "uint256[]",
          "name": "unlockTimestamps",
          "type": "uint256[]"
        },
        {
          "internalType": "uint256[]",
          "name": "unlockAmounts",
          "type": "uint256[]"
        }
      ],
      "name": "lockLP",
      "outputs": [],
      "stateMutability": "nonpayable",
      "type": "function"
    },
    {
      "inputs": [
        {
          "internalType": "address",
          "name": "",
          "type": "address"
        }
      ],
      "name": "locks",
      "outputs": [
        {
          "internalType": "address",
          "name": "deployer",
          "type": "address"
        },
        {
          "internalType": "address",
          "name": "lpToken",
          "type": "address"
        },
        {
          "internalType": "uint256",
          "name": "totalLocked",
          "type": "uint256"
        },
        {
          "internalType": "uint256",
          "name": "totalUnlocked",
          "type": "uint256"
        },
        {
          "internalType": "bool",
          "name": "emergencyFrozen",
          "type": "bool"
        }
      ],
      "stateMutability": "view",
      "type": "function"
    },
    {
      "inputs": [],
      "name": "owner",
      "outputs": [
        {
          "internalType": "address",
          "name": "",
          "type": "address"
        }
      ],
      "stateMutability": "view",
      "type": "function"
    },
    {
      "inputs": [
        {
          "internalType": "address",
          "name": "projectToken",
          "type": "address"
        },
        {
          "internalType": "uint256",
          "name": "milestoneIndex",
          "type": "uint256"
        },
        {
          "internalType": "uint256",
          "name": "healthScore",
          "type": "uint256"
        },
        {
          "internalType": "bytes",
          "name": "signature",
          "type": "bytes"
        }
      ],
      "name": "processUnlock",
      "outputs": [],
      "stateMutability": "nonpayable",
      "type": "function"
    },
    {
      "inputs": [],
      "name": "renounceOwnership",
      "outputs": [],
      "stateMutability": "nonpayable",
      "type": "function"
    },
    {
      "inputs": [
        {
          "internalType": "address",
          "name": "_oracle",
          "type": "address"
        }
      ],
      "name": "setOracle",
      "outputs": [],
      "stateMutability": "nonpayable",
      "type": "function"
    },
    {
      "inputs": [
        {
          "internalType": "address",
          "name": "newOwner",
          "type": "address"
        }
      ],
      "name": "transferOwnership",
      "outputs": [],
      "stateMutability": "nonpayable",
      "type": "function"
    }
  ],
  "bytecode": "0x6080346100c257601f61100238819003918201601f19168301916001600160401b038311848410176100c6578084926020946040528339810103126100c257516001600160a01b0390818116908190036100c25733156100aa575f5460018060a01b03199033828216175f55604051933391167f8be0079c531659141344cd1fd0a4f28419497f9722a3daafe3b4186f6b6457e05f80a36001541617600155610f2790816100db8239f35b604051631e4fbdf760e01b81525f6004820152602490fd5b5f80fd5b634e487b7160e01b5f52604160045260245ffdfe60806040526004361015610011575f80fd5b5f3560e01c8063074e58d614610b6f57806322a4e42d14610a625780635de9a137146109f5578063715018a61461099e5780637adbf9731461095b5780638da5cb5b14610934578063967cce2514610479578063a97be93d14610451578063c9778f96146101105763f2fde38b14610087575f80fd5b3461010c57602036600319011261010c576100a0610c1d565b6100a8610c64565b6001600160a01b039081169081156100f4575f54826001600160601b0360a01b8216175f55167f8be0079c531659141344cd1fd0a4f28419497f9722a3daafe3b4186f6b6457e05f80a3005b604051631e4fbdf760e01b81525f6004820152602490fd5b5f80fd5b3461010c5760a036600319011261010c57610129610c1d565b602480356001600160a01b0381811693909184900361010c57606492604480359267ffffffffffffffff9190863583811161010c5761016c903690600401610c33565b9190926084359480861161010c5761018989963690600401610c33565b96909316998a5f5260209960028b5260405f205416610411578685036103d95784156103a957885f805b89811061038057500361033557604051926323b872dd60e01b8b850152338985015230908401528881840152825260a08201908282109082111761032257604052929392610201908a610d41565b875f526002875260405f20926001600160601b0360a01b9233848654161785556001938b8587019182541617905587600286015560055f9501945b818110610271578b8b7f989eaa915cbb416ea3d6f9a63b1a3de51770c7674b11fe21ecdf76b4e1d139108c8c604051908152a3005b61027c818389610c9d565b35610288828587610c9d565b35906040519061029782610cce565b81528b810191825260408101915f835288546801000000000000000081101561030f5780896102c992018b558a610d28565b9290926102fd57916002916102f89594935182555189820155019051151560ff80198354169116179055610c8f565b61023c565b8b634e487b7160e01b5f525f6004525ffd5b8b634e487b7160e01b5f5260416004525ffd5b86634e487b7160e01b5f5260416004525ffd5b89601b60fa1b6084927f5363686564756c6520616d6f756e7473206d75737420657175616c20746f74618660218d6040519662461bcd60e51b88526004880152860152840152820152fd5b915061039b6103a191610394848c8a610c9d565b3590610cc1565b91610c8f565b908a916101b3565b60405162461bcd60e51b8152600481018b9052600d818a01526c4e6f206d696c6573746f6e657360981b81850152fd5b60405162461bcd60e51b8152600481018b90526015818a015274082e4e4c2f240d8cadccee8d040dad2e6dac2e8c6d605b1b81850152fd5b60405162461bcd60e51b8152600481018b9052601d818a01527f416c7265616479206c6f636b656420666f72207468697320746f6b656e00000081850152fd5b3461010c575f36600319011261010c576001546040516001600160a01b039091168152602090f35b3461010c57608036600319011261010c57610492610c1d565b67ffffffffffffffff806064351161010c5736602360643501121561010c57606435600401351161010c573660246064356004013560643501011161010c576001600160a01b038181165f908152600260205260409020805490911633036108fc5760048101549060ff82166108b757600581018054602435101561087e5761051e9060243590610d28565b509160ff6002840154166108465782544210610801576040516001600160601b03198560601b166020820152602435603482015260443560548201526054815261056781610cea565b602081519101207f19457468657265756d205369676e6564204d6573736167653a0a3332000000005f52601c526105ec6105e3603c5f20604051906105bc6020601f19601f6064356004013501160183610d06565b60643560048101358084529060240160208401375f60206064356004013584010152610da6565b90929192610e6e565b6001546001600160a01b039081169116036107bc576050604435106106bc575060409061069f60017f3f2f29fa02cc34566ac167b446be0be9e0254cac18eda93b2dfe6a7a7c8affb9948160ff196002830154161760028201550191825461065960038301918254610cc1565b9055600181015490548354855163a9059cbb60e01b60208201526001600160a01b039283166024820152604480820192909252908152911661069a82610cea565b610d41565b54815190815260443560208201526001600160a01b0390931692a2005b60326044351061072d57505062127500420190814211610719575560408051600e815260443560208201526001600160a01b03909216917fcf40cadcd86c14cb7e696a86578255719f67bc54bf991d45d267ee6e01467c199190a2005b634e487b7160e01b5f52601160045260245ffd5b600491925060019060ff1916179101557fc06d420c02ffa76e3d8e9886af2d015ffc5ec5d9cd458acd9b49e51cf684f15f60806040519260208452603260208501527f437269746963616c206865616c74682073636f72652064726f70202d2044414e60408501527111d154881b5bd919481858dd1a5d985d195960721b606085015260018060a01b031692a2005b60405162461bcd60e51b815260206004820152601860248201527f496e76616c6964206f7261636c65207369676e617475726500000000000000006044820152606490fd5b60405162461bcd60e51b815260206004820152601a60248201527f4d696c6573746f6e652074696d65206e6f7420726561636865640000000000006044820152606490fd5b60405162461bcd60e51b815260206004820152601060248201526f105b1c9958591e481d5b9b1bd8dad95960821b6044820152606490fd5b60405162461bcd60e51b8152602060048201526011602482015270496e76616c6964206d696c6573746f6e6560781b6044820152606490fd5b60405162461bcd60e51b815260206004820152601860248201527f4c6f636b20697320656d657267656e63792066726f7a656e00000000000000006044820152606490fd5b60405162461bcd60e51b815260206004820152601060248201526f2737ba103a3432903232b83637bcb2b960811b6044820152606490fd5b3461010c575f36600319011261010c575f546040516001600160a01b039091168152602090f35b3461010c57602036600319011261010c57610974610c1d565b61097c610c64565b600180546001600160a01b0319166001600160a01b0392909216919091179055005b3461010c575f36600319011261010c576109b6610c64565b5f80546001600160a01b0319811682556001600160a01b03167f8be0079c531659141344cd1fd0a4f28419497f9722a3daafe3b4186f6b6457e08280a3005b3461010c57602036600319011261010c5760a06001600160a01b0380610a19610c1d565b165f52600260205260405f20818154169160018201541690600281015460ff60046003840154930154169260405194855260208501526040840152606083015215156080820152f35b3461010c5760208060031936011261010c576001600160a01b03610a84610c1d565b165f52600290818152600560405f200191825467ffffffffffffffff8111610b5b5760405191610ab9848360051b0184610d06565b8183525f9485528385208484019591865b848410610b2157604080518881528751818a018190528a928201908a5f5b828110610af55784840385f35b855180518552808301518584015260409081015115159085015294810194606090930192600101610ae8565b600387600192604051610b3381610cce565b86548152848701548382015260ff868801541615156040820152815201930193019291610aca565b634e487b7160e01b5f52604160045260245ffd5b3461010c57602036600319011261010c57610b88610c1d565b610b90610c64565b60018060a01b0316805f526002602052600460405f2001600160ff198254161790557fc06d420c02ffa76e3d8e9886af2d015ffc5ec5d9cd458acd9b49e51cf684f15f608060405160208152602860208201527f4d616e75616c20696e74657276656e74696f6e20627920477561726469616e20604082015267706c6174666f726d60c01b6060820152a2005b600435906001600160a01b038216820361010c57565b9181601f8401121561010c5782359167ffffffffffffffff831161010c576020808501948460051b01011161010c57565b5f546001600160a01b03163303610c7757565b60405163118cdaa760e01b8152336004820152602490fd5b5f1981146107195760010190565b9190811015610cad5760051b0190565b634e487b7160e01b5f52603260045260245ffd5b9190820180921161071957565b6060810190811067ffffffffffffffff821117610b5b57604052565b6080810190811067ffffffffffffffff821117610b5b57604052565b90601f8019910116810190811067ffffffffffffffff821117610b5b57604052565b8054821015610cad575f52600360205f20910201905f90565b905f602091828151910182855af115610d9b575f513d610d9257506001600160a01b0381163b155b610d705750565b604051635274afe760e01b81526001600160a01b039091166004820152602490fd5b60011415610d69565b6040513d5f823e3d90fd5b8151919060418303610dd657610dcf9250602082015190606060408401519301515f1a90610de0565b9192909190565b50505f9160029190565b91907f7fffffffffffffffffffffffffffffff5d576e7357a4501ddfe92f46681b20a08411610e6357926020929160ff6080956040519485521684840152604083015260608201525f92839182805260015afa15610e575780516001600160a01b03811615610e4e57918190565b50809160019190565b604051903d90823e3d90fd5b5050505f9160039190565b6004811015610edd5780610e80575050565b60018103610e9a5760405163f645eedf60e01b8152600490fd5b60028103610ebb5760405163fce698f760e01b815260048101839052602490fd5b600314610ec55750565b602490604051906335e2f38360e21b82526004820152fd5b634e487b7160e01b5f52602160045260245ffdfea2646970667358221220da986db811f72b7bae8e204e961f4d4e715f95735030930a191eeeef34052cd064736f6c63430008140033",
  "linkReferences": {},
  "deployedLinkReferences": {},
  "immutableReferences": {},
  "inputSourceName": "project/contracts/LiquidityController.sol",
  "buildInfoId": "solc-0_8_20-30ae910a43f3452aca1f4140178d4e0de56f3d69"
}